{
	"BookChainNova/BookChainNova.sol": {
		"BookChainNova": {
			"abi": [
				{
					"anonymous": false,
					"inputs": [
						{
							"indexed": true,
							"internalType": "uint256",
							"name": "bookId",
							"type": "uint256"
						},
						{
							"indexed": false,
							"internalType": "string",
							"name": "title",
							"type": "string"
						},
						{
							"indexed": false,
							"internalType": "string",
							"name": "author",
							"type": "string"
						}
					],
					"name": "BookAdded",
					"type": "event"
				},
				{
					"anonymous": false,
					"inputs": [
						{
							"indexed": true,
							"internalType": "address",
							"name": "userAddress",
							"type": "address"
						},
						{
							"indexed": false,
							"internalType": "string",
							"name": "name",
							"type": "string"
						},
						{
							"indexed": false,
							"internalType": "string",
							"name": "role",
							"type": "string"
						}
					],
					"name": "UserRegistered",
					"type": "event"
				},
				{
					"inputs": [
						{
							"internalType": "string",
							"name": "_title",
							"type": "string"
						},
						{
							"internalType": "string",
							"name": "_author",
							"type": "string"
						},
						{
							"internalType": "string",
							"name": "_genre",
							"type": "string"
						},
						{
							"internalType": "string",
							"name": "_imageUrl",
							"type": "string"
						},
						{
							"internalType": "string",
							"name": "_purchaseLink",
							"type": "string"
						},
						{
							"internalType": "uint256",
							"name": "_price",
							"type": "uint256"
						}
					],
					"name": "addBook",
					"outputs": [],
					"stateMutability": "nonpayable",
					"type": "function"
				},
				{
					"inputs": [],
					"name": "bookCount",
					"outputs": [
						{
							"internalType": "uint256",
							"name": "",
							"type": "uint256"
						}
					],
					"stateMutability": "view",
					"type": "function"
				},
				{
					"inputs": [
						{
							"internalType": "uint256",
							"name": "",
							"type": "uint256"
						}
					],
					"name": "books",
					"outputs": [
						{
							"internalType": "string",
							"name": "title",
							"type": "string"
						},
						{
							"internalType": "string",
							"name": "author",
							"type": "string"
						},
						{
							"internalType": "string",
							"name": "genre",
							"type": "string"
						},
						{
							"internalType": "string",
							"name": "imageUrl",
							"type": "string"
						},
						{
							"internalType": "string",
							"name": "purchaseLink",
							"type": "string"
						},
						{
							"internalType": "uint256",
							"name": "price",
							"type": "uint256"
						},
						{
							"internalType": "bool",
							"name": "exists",
							"type": "bool"
						}
					],
					"stateMutability": "view",
					"type": "function"
				},
				{
					"inputs": [
						{
							"internalType": "uint256",
							"name": "_bookId",
							"type": "uint256"
						}
					],
					"name": "getBook",
					"outputs": [
						{
							"components": [
								{
									"internalType": "string",
									"name": "title",
									"type": "string"
								},
								{
									"internalType": "string",
									"name": "author",
									"type": "string"
								},
								{
									"internalType": "string",
									"name": "genre",
									"type": "string"
								},
								{
									"internalType": "string",
									"name": "imageUrl",
									"type": "string"
								},
								{
									"internalType": "string",
									"name": "purchaseLink",
									"type": "string"
								},
								{
									"internalType": "uint256",
									"name": "price",
									"type": "uint256"
								},
								{
									"internalType": "bool",
									"name": "exists",
									"type": "bool"
								}
							],
							"internalType": "struct BookChainNova.Book",
							"name": "",
							"type": "tuple"
						}
					],
					"stateMutability": "view",
					"type": "function"
				},
				{
					"inputs": [
						{
							"internalType": "address",
							"name": "_userAddress",
							"type": "address"
						}
					],
					"name": "getUser",
					"outputs": [
						{
							"components": [
								{
									"internalType": "address",
									"name": "userAddress",
									"type": "address"
								},
								{
									"internalType": "string",
									"name": "name",
									"type": "string"
								},
								{
									"internalType": "bool",
									"name": "isRegistered",
									"type": "bool"
								},
								{
									"internalType": "string",
									"name": "role",
									"type": "string"
								}
							],
							"internalType": "struct BookChainNova.User",
							"name": "",
							"type": "tuple"
						}
					],
					"stateMutability": "view",
					"type": "function"
				},
				{
					"inputs": [
						{
							"internalType": "string",
							"name": "_name",
							"type": "string"
						},
						{
							"internalType": "string",
							"name": "_role",
							"type": "string"
						}
					],
					"name": "registerUser",
					"outputs": [],
					"stateMutability": "nonpayable",
					"type": "function"
				},
				{
					"inputs": [
						{
							"internalType": "address",
							"name": "",
							"type": "address"
						}
					],
					"name": "users",
					"outputs": [
						{
							"internalType": "address",
							"name": "userAddress",
							"type": "address"
						},
						{
							"internalType": "string",
							"name": "name",
							"type": "string"
						},
						{
							"internalType": "bool",
							"name": "isRegistered",
							"type": "bool"
						},
						{
							"internalType": "string",
							"name": "role",
							"type": "string"
						}
					],
					"stateMutability": "view",
					"type": "function"
				}
			],
			"devdoc": {
				"kind": "dev",
				"methods": {},
				"version": 1
			},
			"evm": {
				"assembly": "    /* \"BookChainNova/BookChainNova.sol\":60:1922  contract BookChainNova {... */\n  mstore(0x40, 0x80)\n  callvalue\n  dup1\n  iszero\n  tag_1\n  jumpi\n  0x00\n  dup1\n  revert\ntag_1:\n  pop\n  dataSize(sub_0)\n  dup1\n  dataOffset(sub_0)\n  0x00\n  codecopy\n  0x00\n  return\nstop\n\nsub_0: assembly {\n        /* \"BookChainNova/BookChainNova.sol\":60:1922  contract BookChainNova {... */\n      mstore(0x40, 0x80)\n      callvalue\n      dup1\n      iszero\n      tag_1\n      jumpi\n      0x00\n      dup1\n      revert\n    tag_1:\n      pop\n      jumpi(tag_2, lt(calldatasize, 0x04))\n      shr(0xe0, calldataload(0x00))\n      dup1\n      0x84cba8d8\n      gt\n      tag_10\n      jumpi\n      dup1\n      0x84cba8d8\n      eq\n      tag_6\n      jumpi\n      dup1\n      0xa87430ba\n      eq\n      tag_7\n      jumpi\n      dup1\n      0xb905ad78\n      eq\n      tag_8\n      jumpi\n      dup1\n      0xe0ff5b8b\n      eq\n      tag_9\n      jumpi\n      jump(tag_2)\n    tag_10:\n      dup1\n      0x1d2e4afd\n      eq\n      tag_3\n      jumpi\n      dup1\n      0x68744046\n      eq\n      tag_4\n      jumpi\n      dup1\n      0x6f77926b\n      eq\n      tag_5\n      jumpi\n    tag_2:\n      0x00\n      dup1\n      revert\n        /* \"BookChainNova/BookChainNova.sol\":755:1037  function registerUser(string memory _name, string memory _role) public {... */\n    tag_3:\n      tag_11\n      0x04\n      dup1\n      calldatasize\n      sub\n      dup2\n      add\n      swap1\n      tag_12\n      swap2\n      swap1\n      tag_13\n      jump\t// in\n    tag_12:\n      tag_14\n      jump\t// in\n    tag_11:\n      stop\n        /* \"BookChainNova/BookChainNova.sol\":491:528  mapping(uint256 => Book) public books */\n    tag_4:\n      tag_15\n      0x04\n      dup1\n      calldatasize\n      sub\n      dup2\n      add\n      swap1\n      tag_16\n      swap2\n      swap1\n      tag_17\n      jump\t// in\n    tag_16:\n      tag_18\n      jump\t// in\n    tag_15:\n      mload(0x40)\n      tag_19\n      swap8\n      swap7\n      swap6\n      swap5\n      swap4\n      swap3\n      swap2\n      swap1\n      tag_20\n      jump\t// in\n    tag_19:\n      mload(0x40)\n      dup1\n      swap2\n      sub\n      swap1\n      return\n        /* \"BookChainNova/BookChainNova.sol\":1801:1919  function getUser(address _userAddress) public view returns (User memory) {... */\n    tag_5:\n      tag_21\n      0x04\n      dup1\n      calldatasize\n      sub\n      dup2\n      add\n      swap1\n      tag_22\n      swap2\n      swap1\n      tag_23\n      jump\t// in\n    tag_22:\n      tag_24\n      jump\t// in\n    tag_21:\n      mload(0x40)\n      tag_25\n      swap2\n      swap1\n      tag_26\n      jump\t// in\n    tag_25:\n      mload(0x40)\n      dup1\n      swap2\n      sub\n      swap1\n      return\n        /* \"BookChainNova/BookChainNova.sol\":1068:1563  function addBook(... */\n    tag_6:\n      tag_27\n      0x04\n      dup1\n      calldatasize\n      sub\n      dup2\n      add\n      swap1\n      tag_28\n      swap2\n      swap1\n      tag_29\n      jump\t// in\n    tag_28:\n      tag_30\n      jump\t// in\n    tag_27:\n      stop\n        /* \"BookChainNova/BookChainNova.sol\":447:484  mapping(address => User) public users */\n    tag_7:\n      tag_31\n      0x04\n      dup1\n      calldatasize\n      sub\n      dup2\n      add\n      swap1\n      tag_32\n      swap2\n      swap1\n      tag_23\n      jump\t// in\n    tag_32:\n      tag_33\n      jump\t// in\n    tag_31:\n      mload(0x40)\n      tag_34\n      swap5\n      swap4\n      swap3\n      swap2\n      swap1\n      tag_35\n      jump\t// in\n    tag_34:\n      mload(0x40)\n      dup1\n      swap2\n      sub\n      swap1\n      return\n        /* \"BookChainNova/BookChainNova.sol\":535:559  uint256 public bookCount */\n    tag_8:\n      tag_36\n      tag_37\n      jump\t// in\n    tag_36:\n      mload(0x40)\n      tag_38\n      swap2\n      swap1\n      tag_39\n      jump\t// in\n    tag_38:\n      mload(0x40)\n      dup1\n      swap2\n      sub\n      swap1\n      return\n        /* \"BookChainNova/BookChainNova.sol\":1596:1768  function getBook(uint256 _bookId) public view returns (Book memory) {... */\n    tag_9:\n      tag_40\n      0x04\n      dup1\n      calldatasize\n      sub\n      dup2\n      add\n      swap1\n      tag_41\n      swap2\n      swap1\n      tag_17\n      jump\t// in\n    tag_41:\n      tag_42\n      jump\t// in\n    tag_40:\n      mload(0x40)\n      tag_43\n      swap2\n      swap1\n      tag_44\n      jump\t// in\n    tag_43:\n      mload(0x40)\n      dup1\n      swap2\n      sub\n      swap1\n      return\n        /* \"BookChainNova/BookChainNova.sol\":755:1037  function registerUser(string memory _name, string memory _role) public {... */\n    tag_14:\n        /* \"BookChainNova/BookChainNova.sol\":846:851  users */\n      0x00\n        /* \"BookChainNova/BookChainNova.sol\":846:863  users[msg.sender] */\n      dup1\n        /* \"BookChainNova/BookChainNova.sol\":852:862  msg.sender */\n      caller\n        /* \"BookChainNova/BookChainNova.sol\":846:863  users[msg.sender] */\n      0xffffffffffffffffffffffffffffffffffffffff\n      and\n      0xffffffffffffffffffffffffffffffffffffffff\n      and\n      dup2\n      mstore\n      0x20\n      add\n      swap1\n      dup2\n      mstore\n      0x20\n      add\n      0x00\n      keccak256\n        /* \"BookChainNova/BookChainNova.sol\":846:876  users[msg.sender].isRegistered */\n      0x02\n      add\n      0x00\n      swap1\n      sload\n      swap1\n      0x0100\n      exp\n      swap1\n      div\n      0xff\n      and\n        /* \"BookChainNova/BookChainNova.sol\":845:876  !users[msg.sender].isRegistered */\n      iszero\n        /* \"BookChainNova/BookChainNova.sol\":837:904  require(!users[msg.sender].isRegistered, \"User already registered\") */\n      tag_46\n      jumpi\n      mload(0x40)\n      0x08c379a000000000000000000000000000000000000000000000000000000000\n      dup2\n      mstore\n      0x04\n      add\n      tag_47\n      swap1\n      tag_48\n      jump\t// in\n    tag_47:\n      mload(0x40)\n      dup1\n      swap2\n      sub\n      swap1\n      revert\n    tag_46:\n        /* \"BookChainNova/BookChainNova.sol\":937:973  User(msg.sender, _name, true, _role) */\n      mload(0x40)\n      dup1\n      0x80\n      add\n      0x40\n      mstore\n      dup1\n        /* \"BookChainNova/BookChainNova.sol\":942:952  msg.sender */\n      caller\n        /* \"BookChainNova/BookChainNova.sol\":937:973  User(msg.sender, _name, true, _role) */\n      0xffffffffffffffffffffffffffffffffffffffff\n      and\n      dup2\n      mstore\n      0x20\n      add\n        /* \"BookChainNova/BookChainNova.sol\":954:959  _name */\n      dup4\n        /* \"BookChainNova/BookChainNova.sol\":937:973  User(msg.sender, _name, true, _role) */\n      dup2\n      mstore\n      0x20\n      add\n        /* \"BookChainNova/BookChainNova.sol\":961:965  true */\n      0x01\n        /* \"BookChainNova/BookChainNova.sol\":937:973  User(msg.sender, _name, true, _role) */\n      iszero\n      iszero\n      dup2\n      mstore\n      0x20\n      add\n        /* \"BookChainNova/BookChainNova.sol\":967:972  _role */\n      dup3\n        /* \"BookChainNova/BookChainNova.sol\":937:973  User(msg.sender, _name, true, _role) */\n      dup2\n      mstore\n      pop\n        /* \"BookChainNova/BookChainNova.sol\":917:922  users */\n      0x00\n        /* \"BookChainNova/BookChainNova.sol\":917:934  users[msg.sender] */\n      dup1\n        /* \"BookChainNova/BookChainNova.sol\":923:933  msg.sender */\n      caller\n        /* \"BookChainNova/BookChainNova.sol\":917:934  users[msg.sender] */\n      0xffffffffffffffffffffffffffffffffffffffff\n      and\n      0xffffffffffffffffffffffffffffffffffffffff\n      and\n      dup2\n      mstore\n      0x20\n      add\n      swap1\n      dup2\n      mstore\n      0x20\n      add\n      0x00\n      keccak256\n        /* \"BookChainNova/BookChainNova.sol\":917:973  users[msg.sender] = User(msg.sender, _name, true, _role) */\n      0x00\n      dup3\n      add\n      mload\n      dup2\n      0x00\n      add\n      exp(0x0100, 0x00)\n      dup2\n      sload\n      dup2\n      0xffffffffffffffffffffffffffffffffffffffff\n      mul\n      not\n      and\n      swap1\n      dup4\n      0xffffffffffffffffffffffffffffffffffffffff\n      and\n      mul\n      or\n      swap1\n      sstore\n      pop\n      0x20\n      dup3\n      add\n      mload\n      dup2\n      0x01\n      add\n      swap1\n      dup2\n      tag_49\n      swap2\n      swap1\n      tag_50\n      jump\t// in\n    tag_49:\n      pop\n      0x40\n      dup3\n      add\n      mload\n      dup2\n      0x02\n      add\n      exp(0x0100, 0x00)\n      dup2\n      sload\n      dup2\n      0xff\n      mul\n      not\n      and\n      swap1\n      dup4\n      iszero\n      iszero\n      mul\n      or\n      swap1\n      sstore\n      pop\n      0x60\n      dup3\n      add\n      mload\n      dup2\n      0x03\n      add\n      swap1\n      dup2\n      tag_51\n      swap2\n      swap1\n      tag_50\n      jump\t// in\n    tag_51:\n      pop\n      swap1\n      pop\n      pop\n        /* \"BookChainNova/BookChainNova.sol\":1004:1014  msg.sender */\n      caller\n        /* \"BookChainNova/BookChainNova.sol\":989:1029  UserRegistered(msg.sender, _name, _role) */\n      0xffffffffffffffffffffffffffffffffffffffff\n      and\n      0x92822564bab8864c3a47b34e8d23fbce5c46234eb5da261f94087b995ac0f33b\n        /* \"BookChainNova/BookChainNova.sol\":1016:1021  _name */\n      dup4\n        /* \"BookChainNova/BookChainNova.sol\":1023:1028  _role */\n      dup4\n        /* \"BookChainNova/BookChainNova.sol\":989:1029  UserRegistered(msg.sender, _name, _role) */\n      mload(0x40)\n      tag_52\n      swap3\n      swap2\n      swap1\n      tag_53\n      jump\t// in\n    tag_52:\n      mload(0x40)\n      dup1\n      swap2\n      sub\n      swap1\n      log2\n        /* \"BookChainNova/BookChainNova.sol\":755:1037  function registerUser(string memory _name, string memory _role) public {... */\n      pop\n      pop\n      jump\t// out\n        /* \"BookChainNova/BookChainNova.sol\":491:528  mapping(uint256 => Book) public books */\n    tag_18:\n      mstore(0x20, 0x01)\n      dup1\n      0x00\n      mstore\n      keccak256(0x00, 0x40)\n      0x00\n      swap2\n      pop\n      swap1\n      pop\n      dup1\n      0x00\n      add\n      dup1\n      sload\n      tag_54\n      swap1\n      tag_55\n      jump\t// in\n    tag_54:\n      dup1\n      0x1f\n      add\n      0x20\n      dup1\n      swap2\n      div\n      mul\n      0x20\n      add\n      mload(0x40)\n      swap1\n      dup2\n      add\n      0x40\n      mstore\n      dup1\n      swap3\n      swap2\n      swap1\n      dup2\n      dup2\n      mstore\n      0x20\n      add\n      dup3\n      dup1\n      sload\n      tag_56\n      swap1\n      tag_55\n      jump\t// in\n    tag_56:\n      dup1\n      iszero\n      tag_57\n      jumpi\n      dup1\n      0x1f\n      lt\n      tag_58\n      jumpi\n      0x0100\n      dup1\n      dup4\n      sload\n      div\n      mul\n      dup4\n      mstore\n      swap2\n      0x20\n      add\n      swap2\n      jump(tag_57)\n    tag_58:\n      dup3\n      add\n      swap2\n      swap1\n      0x00\n      mstore\n      keccak256(0x00, 0x20)\n      swap1\n    tag_59:\n      dup2\n      sload\n      dup2\n      mstore\n      swap1\n      0x01\n      add\n      swap1\n      0x20\n      add\n      dup1\n      dup4\n      gt\n      tag_59\n      jumpi\n      dup3\n      swap1\n      sub\n      0x1f\n      and\n      dup3\n      add\n      swap2\n    tag_57:\n      pop\n      pop\n      pop\n      pop\n      pop\n      swap1\n      dup1\n      0x01\n      add\n      dup1\n      sload\n      tag_60\n      swap1\n      tag_55\n      jump\t// in\n    tag_60:\n      dup1\n      0x1f\n      add\n      0x20\n      dup1\n      swap2\n      div\n      mul\n      0x20\n      add\n      mload(0x40)\n      swap1\n      dup2\n      add\n      0x40\n      mstore\n      dup1\n      swap3\n      swap2\n      swap1\n      dup2\n      dup2\n      mstore\n      0x20\n      add\n      dup3\n      dup1\n      sload\n      tag_61\n      swap1\n      tag_55\n      jump\t// in\n    tag_61:\n      dup1\n      iszero\n      tag_62\n      jumpi\n      dup1\n      0x1f\n      lt\n      tag_63\n      jumpi\n      0x0100\n      dup1\n      dup4\n      sload\n      div\n      mul\n      dup4\n      mstore\n      swap2\n      0x20\n      add\n      swap2\n      jump(tag_62)\n    tag_63:\n      dup3\n      add\n      swap2\n      swap1\n      0x00\n      mstore\n      keccak256(0x00, 0x20)\n      swap1\n    tag_64:\n      dup2\n      sload\n      dup2\n      mstore\n      swap1\n      0x01\n      add\n      swap1\n      0x20\n      add\n      dup1\n      dup4\n      gt\n      tag_64\n      jumpi\n      dup3\n      swap1\n      sub\n      0x1f\n      and\n      dup3\n      add\n      swap2\n    tag_62:\n      pop\n      pop\n      pop\n      pop\n      pop\n      swap1\n      dup1\n      0x02\n      add\n      dup1\n      sload\n      tag_65\n      swap1\n      tag_55\n      jump\t// in\n    tag_65:\n      dup1\n      0x1f\n      add\n      0x20\n      dup1\n      swap2\n      div\n      mul\n      0x20\n      add\n      mload(0x40)\n      swap1\n      dup2\n      add\n      0x40\n      mstore\n      dup1\n      swap3\n      swap2\n      swap1\n      dup2\n      dup2\n      mstore\n      0x20\n      add\n      dup3\n      dup1\n      sload\n      tag_66\n      swap1\n      tag_55\n      jump\t// in\n    tag_66:\n      dup1\n      iszero\n      tag_67\n      jumpi\n      dup1\n      0x1f\n      lt\n      tag_68\n      jumpi\n      0x0100\n      dup1\n      dup4\n      sload\n      div\n      mul\n      dup4\n      mstore\n      swap2\n      0x20\n      add\n      swap2\n      jump(tag_67)\n    tag_68:\n      dup3\n      add\n      swap2\n      swap1\n      0x00\n      mstore\n      keccak256(0x00, 0x20)\n      swap1\n    tag_69:\n      dup2\n      sload\n      dup2\n      mstore\n      swap1\n      0x01\n      add\n      swap1\n      0x20\n      add\n      dup1\n      dup4\n      gt\n      tag_69\n      jumpi\n      dup3\n      swap1\n      sub\n      0x1f\n      and\n      dup3\n      add\n      swap2\n    tag_67:\n      pop\n      pop\n      pop\n      pop\n      pop\n      swap1\n      dup1\n      0x03\n      add\n      dup1\n      sload\n      tag_70\n      swap1\n      tag_55\n      jump\t// in\n    tag_70:\n      dup1\n      0x1f\n      add\n      0x20\n      dup1\n      swap2\n      div\n      mul\n      0x20\n      add\n      mload(0x40)\n      swap1\n      dup2\n      add\n      0x40\n      mstore\n      dup1\n      swap3\n      swap2\n      swap1\n      dup2\n      dup2\n      mstore\n      0x20\n      add\n      dup3\n      dup1\n      sload\n      tag_71\n      swap1\n      tag_55\n      jump\t// in\n    tag_71:\n      dup1\n      iszero\n      tag_72\n      jumpi\n      dup1\n      0x1f\n      lt\n      tag_73\n      jumpi\n      0x0100\n      dup1\n      dup4\n      sload\n      div\n      mul\n      dup4\n      mstore\n      swap2\n      0x20\n      add\n      swap2\n      jump(tag_72)\n    tag_73:\n      dup3\n      add\n      swap2\n      swap1\n      0x00\n      mstore\n      keccak256(0x00, 0x20)\n      swap1\n    tag_74:\n      dup2\n      sload\n      dup2\n      mstore\n      swap1\n      0x01\n      add\n      swap1\n      0x20\n      add\n      dup1\n      dup4\n      gt\n      tag_74\n      jumpi\n      dup3\n      swap1\n      sub\n      0x1f\n      and\n      dup3\n      add\n      swap2\n    tag_72:\n      pop\n      pop\n      pop\n      pop\n      pop\n      swap1\n      dup1\n      0x04\n      add\n      dup1\n      sload\n      tag_75\n      swap1\n      tag_55\n      jump\t// in\n    tag_75:\n      dup1\n      0x1f\n      add\n      0x20\n      dup1\n      swap2\n      div\n      mul\n      0x20\n      add\n      mload(0x40)\n      swap1\n      dup2\n      add\n      0x40\n      mstore\n      dup1\n      swap3\n      swap2\n      swap1\n      dup2\n      dup2\n      mstore\n      0x20\n      add\n      dup3\n      dup1\n      sload\n      tag_76\n      swap1\n      tag_55\n      jump\t// in\n    tag_76:\n      dup1\n      iszero\n      tag_77\n      jumpi\n      dup1\n      0x1f\n      lt\n      tag_78\n      jumpi\n      0x0100\n      dup1\n      dup4\n      sload\n      div\n      mul\n      dup4\n      mstore\n      swap2\n      0x20\n      add\n      swap2\n      jump(tag_77)\n    tag_78:\n      dup3\n      add\n      swap2\n      swap1\n      0x00\n      mstore\n      keccak256(0x00, 0x20)\n      swap1\n    tag_79:\n      dup2\n      sload\n      dup2\n      mstore\n      swap1\n      0x01\n      add\n      swap1\n      0x20\n      add\n      dup1\n      dup4\n      gt\n      tag_79\n      jumpi\n      dup3\n      swap1\n      sub\n      0x1f\n      and\n      dup3\n      add\n      swap2\n    tag_77:\n      pop\n      pop\n      pop\n      pop\n      pop\n      swap1\n      dup1\n      0x05\n      add\n      sload\n      swap1\n      dup1\n      0x06\n      add\n      0x00\n      swap1\n      sload\n      swap1\n      0x0100\n      exp\n      swap1\n      div\n      0xff\n      and\n      swap1\n      pop\n      dup8\n      jump\t// out\n        /* \"BookChainNova/BookChainNova.sol\":1801:1919  function getUser(address _userAddress) public view returns (User memory) {... */\n    tag_24:\n        /* \"BookChainNova/BookChainNova.sol\":1861:1872  User memory */\n      tag_80\n      tag_81\n      jump\t// in\n    tag_80:\n        /* \"BookChainNova/BookChainNova.sol\":1892:1897  users */\n      0x00\n        /* \"BookChainNova/BookChainNova.sol\":1892:1911  users[_userAddress] */\n      dup1\n        /* \"BookChainNova/BookChainNova.sol\":1898:1910  _userAddress */\n      dup4\n        /* \"BookChainNova/BookChainNova.sol\":1892:1911  users[_userAddress] */\n      0xffffffffffffffffffffffffffffffffffffffff\n      and\n      0xffffffffffffffffffffffffffffffffffffffff\n      and\n      dup2\n      mstore\n      0x20\n      add\n      swap1\n      dup2\n      mstore\n      0x20\n      add\n      0x00\n      keccak256\n        /* \"BookChainNova/BookChainNova.sol\":1885:1911  return users[_userAddress] */\n      mload(0x40)\n      dup1\n      0x80\n      add\n      0x40\n      mstore\n      swap1\n      dup2\n      0x00\n      dup3\n      add\n      0x00\n      swap1\n      sload\n      swap1\n      0x0100\n      exp\n      swap1\n      div\n      0xffffffffffffffffffffffffffffffffffffffff\n      and\n      0xffffffffffffffffffffffffffffffffffffffff\n      and\n      0xffffffffffffffffffffffffffffffffffffffff\n      and\n      dup2\n      mstore\n      0x20\n      add\n      0x01\n      dup3\n      add\n      dup1\n      sload\n      tag_83\n      swap1\n      tag_55\n      jump\t// in\n    tag_83:\n      dup1\n      0x1f\n      add\n      0x20\n      dup1\n      swap2\n      div\n      mul\n      0x20\n      add\n      mload(0x40)\n      swap1\n      dup2\n      add\n      0x40\n      mstore\n      dup1\n      swap3\n      swap2\n      swap1\n      dup2\n      dup2\n      mstore\n      0x20\n      add\n      dup3\n      dup1\n      sload\n      tag_84\n      swap1\n      tag_55\n      jump\t// in\n    tag_84:\n      dup1\n      iszero\n      tag_85\n      jumpi\n      dup1\n      0x1f\n      lt\n      tag_86\n      jumpi\n      0x0100\n      dup1\n      dup4\n      sload\n      div\n      mul\n      dup4\n      mstore\n      swap2\n      0x20\n      add\n      swap2\n      jump(tag_85)\n    tag_86:\n      dup3\n      add\n      swap2\n      swap1\n      0x00\n      mstore\n      keccak256(0x00, 0x20)\n      swap1\n    tag_87:\n      dup2\n      sload\n      dup2\n      mstore\n      swap1\n      0x01\n      add\n      swap1\n      0x20\n      add\n      dup1\n      dup4\n      gt\n      tag_87\n      jumpi\n      dup3\n      swap1\n      sub\n      0x1f\n      and\n      dup3\n      add\n      swap2\n    tag_85:\n      pop\n      pop\n      pop\n      pop\n      pop\n      dup2\n      mstore\n      0x20\n      add\n      0x02\n      dup3\n      add\n      0x00\n      swap1\n      sload\n      swap1\n      0x0100\n      exp\n      swap1\n      div\n      0xff\n      and\n      iszero\n      iszero\n      iszero\n      iszero\n      dup2\n      mstore\n      0x20\n      add\n      0x03\n      dup3\n      add\n      dup1\n      sload\n      tag_88\n      swap1\n      tag_55\n      jump\t// in\n    tag_88:\n      dup1\n      0x1f\n      add\n      0x20\n      dup1\n      swap2\n      div\n      mul\n      0x20\n      add\n      mload(0x40)\n      swap1\n      dup2\n      add\n      0x40\n      mstore\n      dup1\n      swap3\n      swap2\n      swap1\n      dup2\n      dup2\n      mstore\n      0x20\n      add\n      dup3\n      dup1\n      sload\n      tag_89\n      swap1\n      tag_55\n      jump\t// in\n    tag_89:\n      dup1\n      iszero\n      tag_90\n      jumpi\n      dup1\n      0x1f\n      lt\n      tag_91\n      jumpi\n      0x0100\n      dup1\n      dup4\n      sload\n      div\n      mul\n      dup4\n      mstore\n      swap2\n      0x20\n      add\n      swap2\n      jump(tag_90)\n    tag_91:\n      dup3\n      add\n      swap2\n      swap1\n      0x00\n      mstore\n      keccak256(0x00, 0x20)\n      swap1\n    tag_92:\n      dup2\n      sload\n      dup2\n      mstore\n      swap1\n      0x01\n      add\n      swap1\n      0x20\n      add\n      dup1\n      dup4\n      gt\n      tag_92\n      jumpi\n      dup3\n      swap1\n      sub\n      0x1f\n      and\n      dup3\n      add\n      swap2\n    tag_90:\n      pop\n      pop\n      pop\n      pop\n      pop\n      dup2\n      mstore\n      pop\n      pop\n      swap1\n      pop\n        /* \"BookChainNova/BookChainNova.sol\":1801:1919  function getUser(address _userAddress) public view returns (User memory) {... */\n      swap2\n      swap1\n      pop\n      jump\t// out\n        /* \"BookChainNova/BookChainNova.sol\":1068:1563  function addBook(... */\n    tag_30:\n        /* \"BookChainNova/BookChainNova.sol\":1309:1314  users */\n      0x00\n        /* \"BookChainNova/BookChainNova.sol\":1309:1326  users[msg.sender] */\n      dup1\n        /* \"BookChainNova/BookChainNova.sol\":1315:1325  msg.sender */\n      caller\n        /* \"BookChainNova/BookChainNova.sol\":1309:1326  users[msg.sender] */\n      0xffffffffffffffffffffffffffffffffffffffff\n      and\n      0xffffffffffffffffffffffffffffffffffffffff\n      and\n      dup2\n      mstore\n      0x20\n      add\n      swap1\n      dup2\n      mstore\n      0x20\n      add\n      0x00\n      keccak256\n        /* \"BookChainNova/BookChainNova.sol\":1309:1339  users[msg.sender].isRegistered */\n      0x02\n      add\n      0x00\n      swap1\n      sload\n      swap1\n      0x0100\n      exp\n      swap1\n      div\n      0xff\n      and\n        /* \"BookChainNova/BookChainNova.sol\":1301:1379  require(users[msg.sender].isRegistered, \"Only registered users can add books\") */\n      tag_94\n      jumpi\n      mload(0x40)\n      0x08c379a000000000000000000000000000000000000000000000000000000000\n      dup2\n      mstore\n      0x04\n      add\n      tag_95\n      swap1\n      tag_96\n      jump\t// in\n    tag_95:\n      mload(0x40)\n      dup1\n      swap2\n      sub\n      swap1\n      revert\n    tag_94:\n        /* \"BookChainNova/BookChainNova.sol\":1392:1401  bookCount */\n      0x02\n      0x00\n        /* \"BookChainNova/BookChainNova.sol\":1392:1403  bookCount++ */\n      dup2\n      sload\n      dup1\n      swap3\n      swap2\n      swap1\n      tag_97\n      swap1\n      tag_98\n      jump\t// in\n    tag_97:\n      swap2\n      swap1\n      pop\n      sstore\n      pop\n        /* \"BookChainNova/BookChainNova.sol\":1433:1502  Book(_title, _author, _genre, _imageUrl, _purchaseLink, _price, true) */\n      mload(0x40)\n      dup1\n      0xe0\n      add\n      0x40\n      mstore\n      dup1\n        /* \"BookChainNova/BookChainNova.sol\":1438:1444  _title */\n      dup8\n        /* \"BookChainNova/BookChainNova.sol\":1433:1502  Book(_title, _author, _genre, _imageUrl, _purchaseLink, _price, true) */\n      dup2\n      mstore\n      0x20\n      add\n        /* \"BookChainNova/BookChainNova.sol\":1446:1453  _author */\n      dup7\n        /* \"BookChainNova/BookChainNova.sol\":1433:1502  Book(_title, _author, _genre, _imageUrl, _purchaseLink, _price, true) */\n      dup2\n      mstore\n      0x20\n      add\n        /* \"BookChainNova/BookChainNova.sol\":1455:1461  _genre */\n      dup6\n        /* \"BookChainNova/BookChainNova.sol\":1433:1502  Book(_title, _author, _genre, _imageUrl, _purchaseLink, _price, true) */\n      dup2\n      mstore\n      0x20\n      add\n        /* \"BookChainNova/BookChainNova.sol\":1463:1472  _imageUrl */\n      dup5\n        /* \"BookChainNova/BookChainNova.sol\":1433:1502  Book(_title, _author, _genre, _imageUrl, _purchaseLink, _price, true) */\n      dup2\n      mstore\n      0x20\n      add\n        /* \"BookChainNova/BookChainNova.sol\":1474:1487  _purchaseLink */\n      dup4\n        /* \"BookChainNova/BookChainNova.sol\":1433:1502  Book(_title, _author, _genre, _imageUrl, _purchaseLink, _price, true) */\n      dup2\n      mstore\n      0x20\n      add\n        /* \"BookChainNova/BookChainNova.sol\":1489:1495  _price */\n      dup3\n        /* \"BookChainNova/BookChainNova.sol\":1433:1502  Book(_title, _author, _genre, _imageUrl, _purchaseLink, _price, true) */\n      dup2\n      mstore\n      0x20\n      add\n        /* \"BookChainNova/BookChainNova.sol\":1497:1501  true */\n      0x01\n        /* \"BookChainNova/BookChainNova.sol\":1433:1502  Book(_title, _author, _genre, _imageUrl, _purchaseLink, _price, true) */\n      iszero\n      iszero\n      dup2\n      mstore\n      pop\n        /* \"BookChainNova/BookChainNova.sol\":1414:1419  books */\n      0x01\n        /* \"BookChainNova/BookChainNova.sol\":1414:1430  books[bookCount] */\n      0x00\n        /* \"BookChainNova/BookChainNova.sol\":1420:1429  bookCount */\n      sload(0x02)\n        /* \"BookChainNova/BookChainNova.sol\":1414:1430  books[bookCount] */\n      dup2\n      mstore\n      0x20\n      add\n      swap1\n      dup2\n      mstore\n      0x20\n      add\n      0x00\n      keccak256\n        /* \"BookChainNova/BookChainNova.sol\":1414:1502  books[bookCount] = Book(_title, _author, _genre, _imageUrl, _purchaseLink, _price, true) */\n      0x00\n      dup3\n      add\n      mload\n      dup2\n      0x00\n      add\n      swap1\n      dup2\n      tag_99\n      swap2\n      swap1\n      tag_50\n      jump\t// in\n    tag_99:\n      pop\n      0x20\n      dup3\n      add\n      mload\n      dup2\n      0x01\n      add\n      swap1\n      dup2\n      tag_100\n      swap2\n      swap1\n      tag_50\n      jump\t// in\n    tag_100:\n      pop\n      0x40\n      dup3\n      add\n      mload\n      dup2\n      0x02\n      add\n      swap1\n      dup2\n      tag_101\n      swap2\n      swap1\n      tag_50\n      jump\t// in\n    tag_101:\n      pop\n      0x60\n      dup3\n      add\n      mload\n      dup2\n      0x03\n      add\n      swap1\n      dup2\n      tag_102\n      swap2\n      swap1\n      tag_50\n      jump\t// in\n    tag_102:\n      pop\n      0x80\n      dup3\n      add\n      mload\n      dup2\n      0x04\n      add\n      swap1\n      dup2\n      tag_103\n      swap2\n      swap1\n      tag_50\n      jump\t// in\n    tag_103:\n      pop\n      0xa0\n      dup3\n      add\n      mload\n      dup2\n      0x05\n      add\n      sstore\n      0xc0\n      dup3\n      add\n      mload\n      dup2\n      0x06\n      add\n      exp(0x0100, 0x00)\n      dup2\n      sload\n      dup2\n      0xff\n      mul\n      not\n      and\n      swap1\n      dup4\n      iszero\n      iszero\n      mul\n      or\n      swap1\n      sstore\n      pop\n      swap1\n      pop\n      pop\n        /* \"BookChainNova/BookChainNova.sol\":1528:1537  bookCount */\n      sload(0x02)\n        /* \"BookChainNova/BookChainNova.sol\":1518:1555  BookAdded(bookCount, _title, _author) */\n      0xf3af718913a5a546501afa100bc90d209d682ade91b77ac38ed42c6849230c3c\n        /* \"BookChainNova/BookChainNova.sol\":1539:1545  _title */\n      dup8\n        /* \"BookChainNova/BookChainNova.sol\":1547:1554  _author */\n      dup8\n        /* \"BookChainNova/BookChainNova.sol\":1518:1555  BookAdded(bookCount, _title, _author) */\n      mload(0x40)\n      tag_104\n      swap3\n      swap2\n      swap1\n      tag_53\n      jump\t// in\n    tag_104:\n      mload(0x40)\n      dup1\n      swap2\n      sub\n      swap1\n      log2\n        /* \"BookChainNova/BookChainNova.sol\":1068:1563  function addBook(... */\n      pop\n      pop\n      pop\n      pop\n      pop\n      pop\n      jump\t// out\n        /* \"BookChainNova/BookChainNova.sol\":447:484  mapping(address => User) public users */\n    tag_33:\n      mstore(0x20, 0x00)\n      dup1\n      0x00\n      mstore\n      keccak256(0x00, 0x40)\n      0x00\n      swap2\n      pop\n      swap1\n      pop\n      dup1\n      0x00\n      add\n      0x00\n      swap1\n      sload\n      swap1\n      0x0100\n      exp\n      swap1\n      div\n      0xffffffffffffffffffffffffffffffffffffffff\n      and\n      swap1\n      dup1\n      0x01\n      add\n      dup1\n      sload\n      tag_105\n      swap1\n      tag_55\n      jump\t// in\n    tag_105:\n      dup1\n      0x1f\n      add\n      0x20\n      dup1\n      swap2\n      div\n      mul\n      0x20\n      add\n      mload(0x40)\n      swap1\n      dup2\n      add\n      0x40\n      mstore\n      dup1\n      swap3\n      swap2\n      swap1\n      dup2\n      dup2\n      mstore\n      0x20\n      add\n      dup3\n      dup1\n      sload\n      tag_106\n      swap1\n      tag_55\n      jump\t// in\n    tag_106:\n      dup1\n      iszero\n      tag_107\n      jumpi\n      dup1\n      0x1f\n      lt\n      tag_108\n      jumpi\n      0x0100\n      dup1\n      dup4\n      sload\n      div\n      mul\n      dup4\n      mstore\n      swap2\n      0x20\n      add\n      swap2\n      jump(tag_107)\n    tag_108:\n      dup3\n      add\n      swap2\n      swap1\n      0x00\n      mstore\n      keccak256(0x00, 0x20)\n      swap1\n    tag_109:\n      dup2\n      sload\n      dup2\n      mstore\n      swap1\n      0x01\n      add\n      swap1\n      0x20\n      add\n      dup1\n      dup4\n      gt\n      tag_109\n      jumpi\n      dup3\n      swap1\n      sub\n      0x1f\n      and\n      dup3\n      add\n      swap2\n    tag_107:\n      pop\n      pop\n      pop\n      pop\n      pop\n      swap1\n      dup1\n      0x02\n      add\n      0x00\n      swap1\n      sload\n      swap1\n      0x0100\n      exp\n      swap1\n      div\n      0xff\n      and\n      swap1\n      dup1\n      0x03\n      add\n      dup1\n      sload\n      tag_110\n      swap1\n      tag_55\n      jump\t// in\n    tag_110:\n      dup1\n      0x1f\n      add\n      0x20\n      dup1\n      swap2\n      div\n      mul\n      0x20\n      add\n      mload(0x40)\n      swap1\n      dup2\n      add\n      0x40\n      mstore\n      dup1\n      swap3\n      swap2\n      swap1\n      dup2\n      dup2\n      mstore\n      0x20\n      add\n      dup3\n      dup1\n      sload\n      tag_111\n      swap1\n      tag_55\n      jump\t// in\n    tag_111:\n      dup1\n      iszero\n      tag_112\n      jumpi\n      dup1\n      0x1f\n      lt\n      tag_113\n      jumpi\n      0x0100\n      dup1\n      dup4\n      sload\n      div\n      mul\n      dup4\n      mstore\n      swap2\n      0x20\n      add\n      swap2\n      jump(tag_112)\n    tag_113:\n      dup3\n      add\n      swap2\n      swap1\n      0x00\n      mstore\n      keccak256(0x00, 0x20)\n      swap1\n    tag_114:\n      dup2\n      sload\n      dup2\n      mstore\n      swap1\n      0x01\n      add\n      swap1\n      0x20\n      add\n      dup1\n      dup4\n      gt\n      tag_114\n      jumpi\n      dup3\n      swap1\n      sub\n      0x1f\n      and\n      dup3\n      add\n      swap2\n    tag_112:\n      pop\n      pop\n      pop\n      pop\n      pop\n      swap1\n      pop\n      dup5\n      jump\t// out\n        /* \"BookChainNova/BookChainNova.sol\":535:559  uint256 public bookCount */\n    tag_37:\n      sload(0x02)\n      dup2\n      jump\t// out\n        /* \"BookChainNova/BookChainNova.sol\":1596:1768  function getBook(uint256 _bookId) public view returns (Book memory) {... */\n    tag_42:\n        /* \"BookChainNova/BookChainNova.sol\":1651:1662  Book memory */\n      tag_115\n      tag_116\n      jump\t// in\n    tag_115:\n        /* \"BookChainNova/BookChainNova.sol\":1683:1688  books */\n      0x01\n        /* \"BookChainNova/BookChainNova.sol\":1683:1697  books[_bookId] */\n      0x00\n        /* \"BookChainNova/BookChainNova.sol\":1689:1696  _bookId */\n      dup4\n        /* \"BookChainNova/BookChainNova.sol\":1683:1697  books[_bookId] */\n      dup2\n      mstore\n      0x20\n      add\n      swap1\n      dup2\n      mstore\n      0x20\n      add\n      0x00\n      keccak256\n        /* \"BookChainNova/BookChainNova.sol\":1683:1704  books[_bookId].exists */\n      0x06\n      add\n      0x00\n      swap1\n      sload\n      swap1\n      0x0100\n      exp\n      swap1\n      div\n      0xff\n      and\n        /* \"BookChainNova/BookChainNova.sol\":1675:1728  require(books[_bookId].exists, \"Book does not exist\") */\n      tag_118\n      jumpi\n      mload(0x40)\n      0x08c379a000000000000000000000000000000000000000000000000000000000\n      dup2\n      mstore\n      0x04\n      add\n      tag_119\n      swap1\n      tag_120\n      jump\t// in\n    tag_119:\n      mload(0x40)\n      dup1\n      swap2\n      sub\n      swap1\n      revert\n    tag_118:\n        /* \"BookChainNova/BookChainNova.sol\":1746:1751  books */\n      0x01\n        /* \"BookChainNova/BookChainNova.sol\":1746:1760  books[_bookId] */\n      0x00\n        /* \"BookChainNova/BookChainNova.sol\":1752:1759  _bookId */\n      dup4\n        /* \"BookChainNova/BookChainNova.sol\":1746:1760  books[_bookId] */\n      dup2\n      mstore\n      0x20\n      add\n      swap1\n      dup2\n      mstore\n      0x20\n      add\n      0x00\n      keccak256\n        /* \"BookChainNova/BookChainNova.sol\":1739:1760  return books[_bookId] */\n      mload(0x40)\n      dup1\n      0xe0\n      add\n      0x40\n      mstore\n      swap1\n      dup2\n      0x00\n      dup3\n      add\n      dup1\n      sload\n      tag_121\n      swap1\n      tag_55\n      jump\t// in\n    tag_121:\n      dup1\n      0x1f\n      add\n      0x20\n      dup1\n      swap2\n      div\n      mul\n      0x20\n      add\n      mload(0x40)\n      swap1\n      dup2\n      add\n      0x40\n      mstore\n      dup1\n      swap3\n      swap2\n      swap1\n      dup2\n      dup2\n      mstore\n      0x20\n      add\n      dup3\n      dup1\n      sload\n      tag_122\n      swap1\n      tag_55\n      jump\t// in\n    tag_122:\n      dup1\n      iszero\n      tag_123\n      jumpi\n      dup1\n      0x1f\n      lt\n      tag_124\n      jumpi\n      0x0100\n      dup1\n      dup4\n      sload\n      div\n      mul\n      dup4\n      mstore\n      swap2\n      0x20\n      add\n      swap2\n      jump(tag_123)\n    tag_124:\n      dup3\n      add\n      swap2\n      swap1\n      0x00\n      mstore\n      keccak256(0x00, 0x20)\n      swap1\n    tag_125:\n      dup2\n      sload\n      dup2\n      mstore\n      swap1\n      0x01\n      add\n      swap1\n      0x20\n      add\n      dup1\n      dup4\n      gt\n      tag_125\n      jumpi\n      dup3\n      swap1\n      sub\n      0x1f\n      and\n      dup3\n      add\n      swap2\n    tag_123:\n      pop\n      pop\n      pop\n      pop\n      pop\n      dup2\n      mstore\n      0x20\n      add\n      0x01\n      dup3\n      add\n      dup1\n      sload\n      tag_126\n      swap1\n      tag_55\n      jump\t// in\n    tag_126:\n      dup1\n      0x1f\n      add\n      0x20\n      dup1\n      swap2\n      div\n      mul\n      0x20\n      add\n      mload(0x40)\n      swap1\n      dup2\n      add\n      0x40\n      mstore\n      dup1\n      swap3\n      swap2\n      swap1\n      dup2\n      dup2\n      mstore\n      0x20\n      add\n      dup3\n      dup1\n      sload\n      tag_127\n      swap1\n      tag_55\n      jump\t// in\n    tag_127:\n      dup1\n      iszero\n      tag_128\n      jumpi\n      dup1\n      0x1f\n      lt\n      tag_129\n      jumpi\n      0x0100\n      dup1\n      dup4\n      sload\n      div\n      mul\n      dup4\n      mstore\n      swap2\n      0x20\n      add\n      swap2\n      jump(tag_128)\n    tag_129:\n      dup3\n      add\n      swap2\n      swap1\n      0x00\n      mstore\n      keccak256(0x00, 0x20)\n      swap1\n    tag_130:\n      dup2\n      sload\n      dup2\n      mstore\n      swap1\n      0x01\n      add\n      swap1\n      0x20\n      add\n      dup1\n      dup4\n      gt\n      tag_130\n      jumpi\n      dup3\n      swap1\n      sub\n      0x1f\n      and\n      dup3\n      add\n      swap2\n    tag_128:\n      pop\n      pop\n      pop\n      pop\n      pop\n      dup2\n      mstore\n      0x20\n      add\n      0x02\n      dup3\n      add\n      dup1\n      sload\n      tag_131\n      swap1\n      tag_55\n      jump\t// in\n    tag_131:\n      dup1\n      0x1f\n      add\n      0x20\n      dup1\n      swap2\n      div\n      mul\n      0x20\n      add\n      mload(0x40)\n      swap1\n      dup2\n      add\n      0x40\n      mstore\n      dup1\n      swap3\n      swap2\n      swap1\n      dup2\n      dup2\n      mstore\n      0x20\n      add\n      dup3\n      dup1\n      sload\n      tag_132\n      swap1\n      tag_55\n      jump\t// in\n    tag_132:\n      dup1\n      iszero\n      tag_133\n      jumpi\n      dup1\n      0x1f\n      lt\n      tag_134\n      jumpi\n      0x0100\n      dup1\n      dup4\n      sload\n      div\n      mul\n      dup4\n      mstore\n      swap2\n      0x20\n      add\n      swap2\n      jump(tag_133)\n    tag_134:\n      dup3\n      add\n      swap2\n      swap1\n      0x00\n      mstore\n      keccak256(0x00, 0x20)\n      swap1\n    tag_135:\n      dup2\n      sload\n      dup2\n      mstore\n      swap1\n      0x01\n      add\n      swap1\n      0x20\n      add\n      dup1\n      dup4\n      gt\n      tag_135\n      jumpi\n      dup3\n      swap1\n      sub\n      0x1f\n      and\n      dup3\n      add\n      swap2\n    tag_133:\n      pop\n      pop\n      pop\n      pop\n      pop\n      dup2\n      mstore\n      0x20\n      add\n      0x03\n      dup3\n      add\n      dup1\n      sload\n      tag_136\n      swap1\n      tag_55\n      jump\t// in\n    tag_136:\n      dup1\n      0x1f\n      add\n      0x20\n      dup1\n      swap2\n      div\n      mul\n      0x20\n      add\n      mload(0x40)\n      swap1\n      dup2\n      add\n      0x40\n      mstore\n      dup1\n      swap3\n      swap2\n      swap1\n      dup2\n      dup2\n      mstore\n      0x20\n      add\n      dup3\n      dup1\n      sload\n      tag_137\n      swap1\n      tag_55\n      jump\t// in\n    tag_137:\n      dup1\n      iszero\n      tag_138\n      jumpi\n      dup1\n      0x1f\n      lt\n      tag_139\n      jumpi\n      0x0100\n      dup1\n      dup4\n      sload\n      div\n      mul\n      dup4\n      mstore\n      swap2\n      0x20\n      add\n      swap2\n      jump(tag_138)\n    tag_139:\n      dup3\n      add\n      swap2\n      swap1\n      0x00\n      mstore\n      keccak256(0x00, 0x20)\n      swap1\n    tag_140:\n      dup2\n      sload\n      dup2\n      mstore\n      swap1\n      0x01\n      add\n      swap1\n      0x20\n      add\n      dup1\n      dup4\n      gt\n      tag_140\n      jumpi\n      dup3\n      swap1\n      sub\n      0x1f\n      and\n      dup3\n      add\n      swap2\n    tag_138:\n      pop\n      pop\n      pop\n      pop\n      pop\n      dup2\n      mstore\n      0x20\n      add\n      0x04\n      dup3\n      add\n      dup1\n      sload\n      tag_141\n      swap1\n      tag_55\n      jump\t// in\n    tag_141:\n      dup1\n      0x1f\n      add\n      0x20\n      dup1\n      swap2\n      div\n      mul\n      0x20\n      add\n      mload(0x40)\n      swap1\n      dup2\n      add\n      0x40\n      mstore\n      dup1\n      swap3\n      swap2\n      swap1\n      dup2\n      dup2\n      mstore\n      0x20\n      add\n      dup3\n      dup1\n      sload\n      tag_142\n      swap1\n      tag_55\n      jump\t// in\n    tag_142:\n      dup1\n      iszero\n      tag_143\n      jumpi\n      dup1\n      0x1f\n      lt\n      tag_144\n      jumpi\n      0x0100\n      dup1\n      dup4\n      sload\n      div\n      mul\n      dup4\n      mstore\n      swap2\n      0x20\n      add\n      swap2\n      jump(tag_143)\n    tag_144:\n      dup3\n      add\n      swap2\n      swap1\n      0x00\n      mstore\n      keccak256(0x00, 0x20)\n      swap1\n    tag_145:\n      dup2\n      sload\n      dup2\n      mstore\n      swap1\n      0x01\n      add\n      swap1\n      0x20\n      add\n      dup1\n      dup4\n      gt\n      tag_145\n      jumpi\n      dup3\n      swap1\n      sub\n      0x1f\n      and\n      dup3\n      add\n      swap2\n    tag_143:\n      pop\n      pop\n      pop\n      pop\n      pop\n      dup2\n      mstore\n      0x20\n      add\n      0x05\n      dup3\n      add\n      sload\n      dup2\n      mstore\n      0x20\n      add\n      0x06\n      dup3\n      add\n      0x00\n      swap1\n      sload\n      swap1\n      0x0100\n      exp\n      swap1\n      div\n      0xff\n      and\n      iszero\n      iszero\n      iszero\n      iszero\n      dup2\n      mstore\n      pop\n      pop\n      swap1\n      pop\n        /* \"BookChainNova/BookChainNova.sol\":1596:1768  function getBook(uint256 _bookId) public view returns (Book memory) {... */\n      swap2\n      swap1\n      pop\n      jump\t// out\n    tag_81:\n      mload(0x40)\n      dup1\n      0x80\n      add\n      0x40\n      mstore\n      dup1\n      and(0xffffffffffffffffffffffffffffffffffffffff, 0x00)\n      dup2\n      mstore\n      0x20\n      add\n      0x60\n      dup2\n      mstore\n      0x20\n      add\n      iszero(iszero(0x00))\n      dup2\n      mstore\n      0x20\n      add\n      0x60\n      dup2\n      mstore\n      pop\n      swap1\n      jump\t// out\n    tag_116:\n      mload(0x40)\n      dup1\n      0xe0\n      add\n      0x40\n      mstore\n      dup1\n      0x60\n      dup2\n      mstore\n      0x20\n      add\n      0x60\n      dup2\n      mstore\n      0x20\n      add\n      0x60\n      dup2\n      mstore\n      0x20\n      add\n      0x60\n      dup2\n      mstore\n      0x20\n      add\n      0x60\n      dup2\n      mstore\n      0x20\n      add\n      0x00\n      dup2\n      mstore\n      0x20\n      add\n      iszero(iszero(0x00))\n      dup2\n      mstore\n      pop\n      swap1\n      jump\t// out\n        /* \"#utility.yul\":7:82   */\n    tag_146:\n        /* \"#utility.yul\":40:46   */\n      0x00\n        /* \"#utility.yul\":73:75   */\n      0x40\n        /* \"#utility.yul\":67:76   */\n      mload\n        /* \"#utility.yul\":57:76   */\n      swap1\n      pop\n        /* \"#utility.yul\":7:82   */\n      swap1\n      jump\t// out\n        /* \"#utility.yul\":88:205   */\n    tag_147:\n        /* \"#utility.yul\":197:198   */\n      0x00\n        /* \"#utility.yul\":194:195   */\n      dup1\n        /* \"#utility.yul\":187:199   */\n      revert\n        /* \"#utility.yul\":211:328   */\n    tag_148:\n        /* \"#utility.yul\":320:321   */\n      0x00\n        /* \"#utility.yul\":317:318   */\n      dup1\n        /* \"#utility.yul\":310:322   */\n      revert\n        /* \"#utility.yul\":334:451   */\n    tag_149:\n        /* \"#utility.yul\":443:444   */\n      0x00\n        /* \"#utility.yul\":440:441   */\n      dup1\n        /* \"#utility.yul\":433:445   */\n      revert\n        /* \"#utility.yul\":457:574   */\n    tag_150:\n        /* \"#utility.yul\":566:567   */\n      0x00\n        /* \"#utility.yul\":563:564   */\n      dup1\n        /* \"#utility.yul\":556:568   */\n      revert\n        /* \"#utility.yul\":580:682   */\n    tag_151:\n        /* \"#utility.yul\":621:627   */\n      0x00\n        /* \"#utility.yul\":672:674   */\n      0x1f\n        /* \"#utility.yul\":668:675   */\n      not\n        /* \"#utility.yul\":663:665   */\n      0x1f\n        /* \"#utility.yul\":656:661   */\n      dup4\n        /* \"#utility.yul\":652:666   */\n      add\n        /* \"#utility.yul\":648:676   */\n      and\n        /* \"#utility.yul\":638:676   */\n      swap1\n      pop\n        /* \"#utility.yul\":580:682   */\n      swap2\n      swap1\n      pop\n      jump\t// out\n        /* \"#utility.yul\":688:868   */\n    tag_152:\n        /* \"#utility.yul\":736:813   */\n      0x4e487b7100000000000000000000000000000000000000000000000000000000\n        /* \"#utility.yul\":733:734   */\n      0x00\n        /* \"#utility.yul\":726:814   */\n      mstore\n        /* \"#utility.yul\":833:837   */\n      0x41\n        /* \"#utility.yul\":830:831   */\n      0x04\n        /* \"#utility.yul\":823:838   */\n      mstore\n        /* \"#utility.yul\":857:861   */\n      0x24\n        /* \"#utility.yul\":854:855   */\n      0x00\n        /* \"#utility.yul\":847:862   */\n      revert\n        /* \"#utility.yul\":874:1155   */\n    tag_153:\n        /* \"#utility.yul\":957:984   */\n      tag_213\n        /* \"#utility.yul\":979:983   */\n      dup3\n        /* \"#utility.yul\":957:984   */\n      tag_151\n      jump\t// in\n    tag_213:\n        /* \"#utility.yul\":949:955   */\n      dup2\n        /* \"#utility.yul\":945:985   */\n      add\n        /* \"#utility.yul\":1087:1093   */\n      dup2\n        /* \"#utility.yul\":1075:1085   */\n      dup2\n        /* \"#utility.yul\":1072:1094   */\n      lt\n        /* \"#utility.yul\":1051:1069   */\n      0xffffffffffffffff\n        /* \"#utility.yul\":1039:1049   */\n      dup3\n        /* \"#utility.yul\":1036:1070   */\n      gt\n        /* \"#utility.yul\":1033:1095   */\n      or\n        /* \"#utility.yul\":1030:1118   */\n      iszero\n      tag_214\n      jumpi\n        /* \"#utility.yul\":1098:1116   */\n      tag_215\n      tag_152\n      jump\t// in\n    tag_215:\n        /* \"#utility.yul\":1030:1118   */\n    tag_214:\n        /* \"#utility.yul\":1138:1148   */\n      dup1\n        /* \"#utility.yul\":1134:1136   */\n      0x40\n        /* \"#utility.yul\":1127:1149   */\n      mstore\n        /* \"#utility.yul\":917:1155   */\n      pop\n        /* \"#utility.yul\":874:1155   */\n      pop\n      pop\n      jump\t// out\n        /* \"#utility.yul\":1161:1290   */\n    tag_154:\n        /* \"#utility.yul\":1195:1201   */\n      0x00\n        /* \"#utility.yul\":1222:1242   */\n      tag_217\n      tag_146\n      jump\t// in\n    tag_217:\n        /* \"#utility.yul\":1212:1242   */\n      swap1\n      pop\n        /* \"#utility.yul\":1251:1284   */\n      tag_218\n        /* \"#utility.yul\":1279:1283   */\n      dup3\n        /* \"#utility.yul\":1271:1277   */\n      dup3\n        /* \"#utility.yul\":1251:1284   */\n      tag_153\n      jump\t// in\n    tag_218:\n        /* \"#utility.yul\":1161:1290   */\n      swap2\n      swap1\n      pop\n      jump\t// out\n        /* \"#utility.yul\":1296:1604   */\n    tag_155:\n        /* \"#utility.yul\":1358:1362   */\n      0x00\n        /* \"#utility.yul\":1448:1466   */\n      0xffffffffffffffff\n        /* \"#utility.yul\":1440:1446   */\n      dup3\n        /* \"#utility.yul\":1437:1467   */\n      gt\n        /* \"#utility.yul\":1434:1490   */\n      iszero\n      tag_220\n      jumpi\n        /* \"#utility.yul\":1470:1488   */\n      tag_221\n      tag_152\n      jump\t// in\n    tag_221:\n        /* \"#utility.yul\":1434:1490   */\n    tag_220:\n        /* \"#utility.yul\":1508:1537   */\n      tag_222\n        /* \"#utility.yul\":1530:1536   */\n      dup3\n        /* \"#utility.yul\":1508:1537   */\n      tag_151\n      jump\t// in\n    tag_222:\n        /* \"#utility.yul\":1500:1537   */\n      swap1\n      pop\n        /* \"#utility.yul\":1592:1596   */\n      0x20\n        /* \"#utility.yul\":1586:1590   */\n      dup2\n        /* \"#utility.yul\":1582:1597   */\n      add\n        /* \"#utility.yul\":1574:1597   */\n      swap1\n      pop\n        /* \"#utility.yul\":1296:1604   */\n      swap2\n      swap1\n      pop\n      jump\t// out\n        /* \"#utility.yul\":1610:1758   */\n    tag_156:\n        /* \"#utility.yul\":1708:1714   */\n      dup3\n        /* \"#utility.yul\":1703:1706   */\n      dup2\n        /* \"#utility.yul\":1698:1701   */\n      dup4\n        /* \"#utility.yul\":1685:1715   */\n      calldatacopy\n        /* \"#utility.yul\":1749:1750   */\n      0x00\n        /* \"#utility.yul\":1740:1746   */\n      dup4\n        /* \"#utility.yul\":1735:1738   */\n      dup4\n        /* \"#utility.yul\":1731:1747   */\n      add\n        /* \"#utility.yul\":1724:1751   */\n      mstore\n        /* \"#utility.yul\":1610:1758   */\n      pop\n      pop\n      pop\n      jump\t// out\n        /* \"#utility.yul\":1764:2189   */\n    tag_157:\n        /* \"#utility.yul\":1842:1847   */\n      0x00\n        /* \"#utility.yul\":1867:1933   */\n      tag_225\n        /* \"#utility.yul\":1883:1932   */\n      tag_226\n        /* \"#utility.yul\":1925:1931   */\n      dup5\n        /* \"#utility.yul\":1883:1932   */\n      tag_155\n      jump\t// in\n    tag_226:\n        /* \"#utility.yul\":1867:1933   */\n      tag_154\n      jump\t// in\n    tag_225:\n        /* \"#utility.yul\":1858:1933   */\n      swap1\n      pop\n        /* \"#utility.yul\":1956:1962   */\n      dup3\n        /* \"#utility.yul\":1949:1954   */\n      dup2\n        /* \"#utility.yul\":1942:1963   */\n      mstore\n        /* \"#utility.yul\":1994:1998   */\n      0x20\n        /* \"#utility.yul\":1987:1992   */\n      dup2\n        /* \"#utility.yul\":1983:1999   */\n      add\n        /* \"#utility.yul\":2032:2035   */\n      dup5\n        /* \"#utility.yul\":2023:2029   */\n      dup5\n        /* \"#utility.yul\":2018:2021   */\n      dup5\n        /* \"#utility.yul\":2014:2030   */\n      add\n        /* \"#utility.yul\":2011:2036   */\n      gt\n        /* \"#utility.yul\":2008:2120   */\n      iszero\n      tag_227\n      jumpi\n        /* \"#utility.yul\":2039:2118   */\n      tag_228\n      tag_150\n      jump\t// in\n    tag_228:\n        /* \"#utility.yul\":2008:2120   */\n    tag_227:\n        /* \"#utility.yul\":2129:2183   */\n      tag_229\n        /* \"#utility.yul\":2176:2182   */\n      dup5\n        /* \"#utility.yul\":2171:2174   */\n      dup3\n        /* \"#utility.yul\":2166:2169   */\n      dup6\n        /* \"#utility.yul\":2129:2183   */\n      tag_156\n      jump\t// in\n    tag_229:\n        /* \"#utility.yul\":1848:2189   */\n      pop\n        /* \"#utility.yul\":1764:2189   */\n      swap4\n      swap3\n      pop\n      pop\n      pop\n      jump\t// out\n        /* \"#utility.yul\":2209:2549   */\n    tag_158:\n        /* \"#utility.yul\":2265:2270   */\n      0x00\n        /* \"#utility.yul\":2314:2317   */\n      dup3\n        /* \"#utility.yul\":2307:2311   */\n      0x1f\n        /* \"#utility.yul\":2299:2305   */\n      dup4\n        /* \"#utility.yul\":2295:2312   */\n      add\n        /* \"#utility.yul\":2291:2318   */\n      slt\n        /* \"#utility.yul\":2281:2403   */\n      tag_231\n      jumpi\n        /* \"#utility.yul\":2322:2401   */\n      tag_232\n      tag_149\n      jump\t// in\n    tag_232:\n        /* \"#utility.yul\":2281:2403   */\n    tag_231:\n        /* \"#utility.yul\":2439:2445   */\n      dup2\n        /* \"#utility.yul\":2426:2446   */\n      calldataload\n        /* \"#utility.yul\":2464:2543   */\n      tag_233\n        /* \"#utility.yul\":2539:2542   */\n      dup5\n        /* \"#utility.yul\":2531:2537   */\n      dup3\n        /* \"#utility.yul\":2524:2528   */\n      0x20\n        /* \"#utility.yul\":2516:2522   */\n      dup7\n        /* \"#utility.yul\":2512:2529   */\n      add\n        /* \"#utility.yul\":2464:2543   */\n      tag_157\n      jump\t// in\n    tag_233:\n        /* \"#utility.yul\":2455:2543   */\n      swap2\n      pop\n        /* \"#utility.yul\":2271:2549   */\n      pop\n        /* \"#utility.yul\":2209:2549   */\n      swap3\n      swap2\n      pop\n      pop\n      jump\t// out\n        /* \"#utility.yul\":2555:3389   */\n    tag_13:\n        /* \"#utility.yul\":2643:2649   */\n      0x00\n        /* \"#utility.yul\":2651:2657   */\n      dup1\n        /* \"#utility.yul\":2700:2702   */\n      0x40\n        /* \"#utility.yul\":2688:2697   */\n      dup4\n        /* \"#utility.yul\":2679:2686   */\n      dup6\n        /* \"#utility.yul\":2675:2698   */\n      sub\n        /* \"#utility.yul\":2671:2703   */\n      slt\n        /* \"#utility.yul\":2668:2787   */\n      iszero\n      tag_235\n      jumpi\n        /* \"#utility.yul\":2706:2785   */\n      tag_236\n      tag_147\n      jump\t// in\n    tag_236:\n        /* \"#utility.yul\":2668:2787   */\n    tag_235:\n        /* \"#utility.yul\":2854:2855   */\n      0x00\n        /* \"#utility.yul\":2843:2852   */\n      dup4\n        /* \"#utility.yul\":2839:2856   */\n      add\n        /* \"#utility.yul\":2826:2857   */\n      calldataload\n        /* \"#utility.yul\":2884:2902   */\n      0xffffffffffffffff\n        /* \"#utility.yul\":2876:2882   */\n      dup2\n        /* \"#utility.yul\":2873:2903   */\n      gt\n        /* \"#utility.yul\":2870:2987   */\n      iszero\n      tag_237\n      jumpi\n        /* \"#utility.yul\":2906:2985   */\n      tag_238\n      tag_148\n      jump\t// in\n    tag_238:\n        /* \"#utility.yul\":2870:2987   */\n    tag_237:\n        /* \"#utility.yul\":3011:3074   */\n      tag_239\n        /* \"#utility.yul\":3066:3073   */\n      dup6\n        /* \"#utility.yul\":3057:3063   */\n      dup3\n        /* \"#utility.yul\":3046:3055   */\n      dup7\n        /* \"#utility.yul\":3042:3064   */\n      add\n        /* \"#utility.yul\":3011:3074   */\n      tag_158\n      jump\t// in\n    tag_239:\n        /* \"#utility.yul\":3001:3074   */\n      swap3\n      pop\n        /* \"#utility.yul\":2797:3084   */\n      pop\n        /* \"#utility.yul\":3151:3153   */\n      0x20\n        /* \"#utility.yul\":3140:3149   */\n      dup4\n        /* \"#utility.yul\":3136:3154   */\n      add\n        /* \"#utility.yul\":3123:3155   */\n      calldataload\n        /* \"#utility.yul\":3182:3200   */\n      0xffffffffffffffff\n        /* \"#utility.yul\":3174:3180   */\n      dup2\n        /* \"#utility.yul\":3171:3201   */\n      gt\n        /* \"#utility.yul\":3168:3285   */\n      iszero\n      tag_240\n      jumpi\n        /* \"#utility.yul\":3204:3283   */\n      tag_241\n      tag_148\n      jump\t// in\n    tag_241:\n        /* \"#utility.yul\":3168:3285   */\n    tag_240:\n        /* \"#utility.yul\":3309:3372   */\n      tag_242\n        /* \"#utility.yul\":3364:3371   */\n      dup6\n        /* \"#utility.yul\":3355:3361   */\n      dup3\n        /* \"#utility.yul\":3344:3353   */\n      dup7\n        /* \"#utility.yul\":3340:3362   */\n      add\n        /* \"#utility.yul\":3309:3372   */\n      tag_158\n      jump\t// in\n    tag_242:\n        /* \"#utility.yul\":3299:3372   */\n      swap2\n      pop\n        /* \"#utility.yul\":3094:3382   */\n      pop\n        /* \"#utility.yul\":2555:3389   */\n      swap3\n      pop\n      swap3\n      swap1\n      pop\n      jump\t// out\n        /* \"#utility.yul\":3395:3472   */\n    tag_159:\n        /* \"#utility.yul\":3432:3439   */\n      0x00\n        /* \"#utility.yul\":3461:3466   */\n      dup2\n        /* \"#utility.yul\":3450:3466   */\n      swap1\n      pop\n        /* \"#utility.yul\":3395:3472   */\n      swap2\n      swap1\n      pop\n      jump\t// out\n        /* \"#utility.yul\":3478:3600   */\n    tag_160:\n        /* \"#utility.yul\":3551:3575   */\n      tag_245\n        /* \"#utility.yul\":3569:3574   */\n      dup2\n        /* \"#utility.yul\":3551:3575   */\n      tag_159\n      jump\t// in\n    tag_245:\n        /* \"#utility.yul\":3544:3549   */\n      dup2\n        /* \"#utility.yul\":3541:3576   */\n      eq\n        /* \"#utility.yul\":3531:3594   */\n      tag_246\n      jumpi\n        /* \"#utility.yul\":3590:3591   */\n      0x00\n        /* \"#utility.yul\":3587:3588   */\n      dup1\n        /* \"#utility.yul\":3580:3592   */\n      revert\n        /* \"#utility.yul\":3531:3594   */\n    tag_246:\n        /* \"#utility.yul\":3478:3600   */\n      pop\n      jump\t// out\n        /* \"#utility.yul\":3606:3745   */\n    tag_161:\n        /* \"#utility.yul\":3652:3657   */\n      0x00\n        /* \"#utility.yul\":3690:3696   */\n      dup2\n        /* \"#utility.yul\":3677:3697   */\n      calldataload\n        /* \"#utility.yul\":3668:3697   */\n      swap1\n      pop\n        /* \"#utility.yul\":3706:3739   */\n      tag_248\n        /* \"#utility.yul\":3733:3738   */\n      dup2\n        /* \"#utility.yul\":3706:3739   */\n      tag_160\n      jump\t// in\n    tag_248:\n        /* \"#utility.yul\":3606:3745   */\n      swap3\n      swap2\n      pop\n      pop\n      jump\t// out\n        /* \"#utility.yul\":3751:4080   */\n    tag_17:\n        /* \"#utility.yul\":3810:3816   */\n      0x00\n        /* \"#utility.yul\":3859:3861   */\n      0x20\n        /* \"#utility.yul\":3847:3856   */\n      dup3\n        /* \"#utility.yul\":3838:3845   */\n      dup5\n        /* \"#utility.yul\":3834:3857   */\n      sub\n        /* \"#utility.yul\":3830:3862   */\n      slt\n        /* \"#utility.yul\":3827:3946   */\n      iszero\n      tag_250\n      jumpi\n        /* \"#utility.yul\":3865:3944   */\n      tag_251\n      tag_147\n      jump\t// in\n    tag_251:\n        /* \"#utility.yul\":3827:3946   */\n    tag_250:\n        /* \"#utility.yul\":3985:3986   */\n      0x00\n        /* \"#utility.yul\":4010:4063   */\n      tag_252\n        /* \"#utility.yul\":4055:4062   */\n      dup5\n        /* \"#utility.yul\":4046:4052   */\n      dup3\n        /* \"#utility.yul\":4035:4044   */\n      dup6\n        /* \"#utility.yul\":4031:4053   */\n      add\n        /* \"#utility.yul\":4010:4063   */\n      tag_161\n      jump\t// in\n    tag_252:\n        /* \"#utility.yul\":4000:4063   */\n      swap2\n      pop\n        /* \"#utility.yul\":3956:4073   */\n      pop\n        /* \"#utility.yul\":3751:4080   */\n      swap3\n      swap2\n      pop\n      pop\n      jump\t// out\n        /* \"#utility.yul\":4086:4185   */\n    tag_162:\n        /* \"#utility.yul\":4138:4144   */\n      0x00\n        /* \"#utility.yul\":4172:4177   */\n      dup2\n        /* \"#utility.yul\":4166:4178   */\n      mload\n        /* \"#utility.yul\":4156:4178   */\n      swap1\n      pop\n        /* \"#utility.yul\":4086:4185   */\n      swap2\n      swap1\n      pop\n      jump\t// out\n        /* \"#utility.yul\":4191:4360   */\n    tag_163:\n        /* \"#utility.yul\":4275:4286   */\n      0x00\n        /* \"#utility.yul\":4309:4315   */\n      dup3\n        /* \"#utility.yul\":4304:4307   */\n      dup3\n        /* \"#utility.yul\":4297:4316   */\n      mstore\n        /* \"#utility.yul\":4349:4353   */\n      0x20\n        /* \"#utility.yul\":4344:4347   */\n      dup3\n        /* \"#utility.yul\":4340:4354   */\n      add\n        /* \"#utility.yul\":4325:4354   */\n      swap1\n      pop\n        /* \"#utility.yul\":4191:4360   */\n      swap3\n      swap2\n      pop\n      pop\n      jump\t// out\n        /* \"#utility.yul\":4366:4505   */\n    tag_164:\n        /* \"#utility.yul\":4455:4461   */\n      dup3\n        /* \"#utility.yul\":4450:4453   */\n      dup2\n        /* \"#utility.yul\":4445:4448   */\n      dup4\n        /* \"#utility.yul\":4439:4462   */\n      mcopy\n        /* \"#utility.yul\":4496:4497   */\n      0x00\n        /* \"#utility.yul\":4487:4493   */\n      dup4\n        /* \"#utility.yul\":4482:4485   */\n      dup4\n        /* \"#utility.yul\":4478:4494   */\n      add\n        /* \"#utility.yul\":4471:4498   */\n      mstore\n        /* \"#utility.yul\":4366:4505   */\n      pop\n      pop\n      pop\n      jump\t// out\n        /* \"#utility.yul\":4511:4888   */\n    tag_165:\n        /* \"#utility.yul\":4599:4602   */\n      0x00\n        /* \"#utility.yul\":4627:4666   */\n      tag_257\n        /* \"#utility.yul\":4660:4665   */\n      dup3\n        /* \"#utility.yul\":4627:4666   */\n      tag_162\n      jump\t// in\n    tag_257:\n        /* \"#utility.yul\":4682:4753   */\n      tag_258\n        /* \"#utility.yul\":4746:4752   */\n      dup2\n        /* \"#utility.yul\":4741:4744   */\n      dup6\n        /* \"#utility.yul\":4682:4753   */\n      tag_163\n      jump\t// in\n    tag_258:\n        /* \"#utility.yul\":4675:4753   */\n      swap4\n      pop\n        /* \"#utility.yul\":4762:4827   */\n      tag_259\n        /* \"#utility.yul\":4820:4826   */\n      dup2\n        /* \"#utility.yul\":4815:4818   */\n      dup6\n        /* \"#utility.yul\":4808:4812   */\n      0x20\n        /* \"#utility.yul\":4801:4806   */\n      dup7\n        /* \"#utility.yul\":4797:4813   */\n      add\n        /* \"#utility.yul\":4762:4827   */\n      tag_164\n      jump\t// in\n    tag_259:\n        /* \"#utility.yul\":4852:4881   */\n      tag_260\n        /* \"#utility.yul\":4874:4880   */\n      dup2\n        /* \"#utility.yul\":4852:4881   */\n      tag_151\n      jump\t// in\n    tag_260:\n        /* \"#utility.yul\":4847:4850   */\n      dup5\n        /* \"#utility.yul\":4843:4882   */\n      add\n        /* \"#utility.yul\":4836:4882   */\n      swap2\n      pop\n        /* \"#utility.yul\":4603:4888   */\n      pop\n        /* \"#utility.yul\":4511:4888   */\n      swap3\n      swap2\n      pop\n      pop\n      jump\t// out\n        /* \"#utility.yul\":4894:5012   */\n    tag_166:\n        /* \"#utility.yul\":4981:5005   */\n      tag_262\n        /* \"#utility.yul\":4999:5004   */\n      dup2\n        /* \"#utility.yul\":4981:5005   */\n      tag_159\n      jump\t// in\n    tag_262:\n        /* \"#utility.yul\":4976:4979   */\n      dup3\n        /* \"#utility.yul\":4969:5006   */\n      mstore\n        /* \"#utility.yul\":4894:5012   */\n      pop\n      pop\n      jump\t// out\n        /* \"#utility.yul\":5018:5108   */\n    tag_167:\n        /* \"#utility.yul\":5052:5059   */\n      0x00\n        /* \"#utility.yul\":5095:5100   */\n      dup2\n        /* \"#utility.yul\":5088:5101   */\n      iszero\n        /* \"#utility.yul\":5081:5102   */\n      iszero\n        /* \"#utility.yul\":5070:5102   */\n      swap1\n      pop\n        /* \"#utility.yul\":5018:5108   */\n      swap2\n      swap1\n      pop\n      jump\t// out\n        /* \"#utility.yul\":5114:5223   */\n    tag_168:\n        /* \"#utility.yul\":5195:5216   */\n      tag_265\n        /* \"#utility.yul\":5210:5215   */\n      dup2\n        /* \"#utility.yul\":5195:5216   */\n      tag_167\n      jump\t// in\n    tag_265:\n        /* \"#utility.yul\":5190:5193   */\n      dup3\n        /* \"#utility.yul\":5183:5217   */\n      mstore\n        /* \"#utility.yul\":5114:5223   */\n      pop\n      pop\n      jump\t// out\n        /* \"#utility.yul\":5229:6558   */\n    tag_20:\n        /* \"#utility.yul\":5584:5588   */\n      0x00\n        /* \"#utility.yul\":5622:5625   */\n      0xe0\n        /* \"#utility.yul\":5611:5620   */\n      dup3\n        /* \"#utility.yul\":5607:5626   */\n      add\n        /* \"#utility.yul\":5599:5626   */\n      swap1\n      pop\n        /* \"#utility.yul\":5672:5681   */\n      dup2\n        /* \"#utility.yul\":5666:5670   */\n      dup2\n        /* \"#utility.yul\":5662:5682   */\n      sub\n        /* \"#utility.yul\":5658:5659   */\n      0x00\n        /* \"#utility.yul\":5647:5656   */\n      dup4\n        /* \"#utility.yul\":5643:5660   */\n      add\n        /* \"#utility.yul\":5636:5683   */\n      mstore\n        /* \"#utility.yul\":5700:5778   */\n      tag_267\n        /* \"#utility.yul\":5773:5777   */\n      dup2\n        /* \"#utility.yul\":5764:5770   */\n      dup11\n        /* \"#utility.yul\":5700:5778   */\n      tag_165\n      jump\t// in\n    tag_267:\n        /* \"#utility.yul\":5692:5778   */\n      swap1\n      pop\n        /* \"#utility.yul\":5825:5834   */\n      dup2\n        /* \"#utility.yul\":5819:5823   */\n      dup2\n        /* \"#utility.yul\":5815:5835   */\n      sub\n        /* \"#utility.yul\":5810:5812   */\n      0x20\n        /* \"#utility.yul\":5799:5808   */\n      dup4\n        /* \"#utility.yul\":5795:5813   */\n      add\n        /* \"#utility.yul\":5788:5836   */\n      mstore\n        /* \"#utility.yul\":5853:5931   */\n      tag_268\n        /* \"#utility.yul\":5926:5930   */\n      dup2\n        /* \"#utility.yul\":5917:5923   */\n      dup10\n        /* \"#utility.yul\":5853:5931   */\n      tag_165\n      jump\t// in\n    tag_268:\n        /* \"#utility.yul\":5845:5931   */\n      swap1\n      pop\n        /* \"#utility.yul\":5978:5987   */\n      dup2\n        /* \"#utility.yul\":5972:5976   */\n      dup2\n        /* \"#utility.yul\":5968:5988   */\n      sub\n        /* \"#utility.yul\":5963:5965   */\n      0x40\n        /* \"#utility.yul\":5952:5961   */\n      dup4\n        /* \"#utility.yul\":5948:5966   */\n      add\n        /* \"#utility.yul\":5941:5989   */\n      mstore\n        /* \"#utility.yul\":6006:6084   */\n      tag_269\n        /* \"#utility.yul\":6079:6083   */\n      dup2\n        /* \"#utility.yul\":6070:6076   */\n      dup9\n        /* \"#utility.yul\":6006:6084   */\n      tag_165\n      jump\t// in\n    tag_269:\n        /* \"#utility.yul\":5998:6084   */\n      swap1\n      pop\n        /* \"#utility.yul\":6131:6140   */\n      dup2\n        /* \"#utility.yul\":6125:6129   */\n      dup2\n        /* \"#utility.yul\":6121:6141   */\n      sub\n        /* \"#utility.yul\":6116:6118   */\n      0x60\n        /* \"#utility.yul\":6105:6114   */\n      dup4\n        /* \"#utility.yul\":6101:6119   */\n      add\n        /* \"#utility.yul\":6094:6142   */\n      mstore\n        /* \"#utility.yul\":6159:6237   */\n      tag_270\n        /* \"#utility.yul\":6232:6236   */\n      dup2\n        /* \"#utility.yul\":6223:6229   */\n      dup8\n        /* \"#utility.yul\":6159:6237   */\n      tag_165\n      jump\t// in\n    tag_270:\n        /* \"#utility.yul\":6151:6237   */\n      swap1\n      pop\n        /* \"#utility.yul\":6285:6294   */\n      dup2\n        /* \"#utility.yul\":6279:6283   */\n      dup2\n        /* \"#utility.yul\":6275:6295   */\n      sub\n        /* \"#utility.yul\":6269:6272   */\n      0x80\n        /* \"#utility.yul\":6258:6267   */\n      dup4\n        /* \"#utility.yul\":6254:6273   */\n      add\n        /* \"#utility.yul\":6247:6296   */\n      mstore\n        /* \"#utility.yul\":6313:6391   */\n      tag_271\n        /* \"#utility.yul\":6386:6390   */\n      dup2\n        /* \"#utility.yul\":6377:6383   */\n      dup7\n        /* \"#utility.yul\":6313:6391   */\n      tag_165\n      jump\t// in\n    tag_271:\n        /* \"#utility.yul\":6305:6391   */\n      swap1\n      pop\n        /* \"#utility.yul\":6401:6474   */\n      tag_272\n        /* \"#utility.yul\":6469:6472   */\n      0xa0\n        /* \"#utility.yul\":6458:6467   */\n      dup4\n        /* \"#utility.yul\":6454:6473   */\n      add\n        /* \"#utility.yul\":6445:6451   */\n      dup6\n        /* \"#utility.yul\":6401:6474   */\n      tag_166\n      jump\t// in\n    tag_272:\n        /* \"#utility.yul\":6484:6551   */\n      tag_273\n        /* \"#utility.yul\":6546:6549   */\n      0xc0\n        /* \"#utility.yul\":6535:6544   */\n      dup4\n        /* \"#utility.yul\":6531:6550   */\n      add\n        /* \"#utility.yul\":6522:6528   */\n      dup5\n        /* \"#utility.yul\":6484:6551   */\n      tag_168\n      jump\t// in\n    tag_273:\n        /* \"#utility.yul\":5229:6558   */\n      swap9\n      swap8\n      pop\n      pop\n      pop\n      pop\n      pop\n      pop\n      pop\n      pop\n      jump\t// out\n        /* \"#utility.yul\":6564:6690   */\n    tag_169:\n        /* \"#utility.yul\":6601:6608   */\n      0x00\n        /* \"#utility.yul\":6641:6683   */\n      0xffffffffffffffffffffffffffffffffffffffff\n        /* \"#utility.yul\":6634:6639   */\n      dup3\n        /* \"#utility.yul\":6630:6684   */\n      and\n        /* \"#utility.yul\":6619:6684   */\n      swap1\n      pop\n        /* \"#utility.yul\":6564:6690   */\n      swap2\n      swap1\n      pop\n      jump\t// out\n        /* \"#utility.yul\":6696:6792   */\n    tag_170:\n        /* \"#utility.yul\":6733:6740   */\n      0x00\n        /* \"#utility.yul\":6762:6786   */\n      tag_276\n        /* \"#utility.yul\":6780:6785   */\n      dup3\n        /* \"#utility.yul\":6762:6786   */\n      tag_169\n      jump\t// in\n    tag_276:\n        /* \"#utility.yul\":6751:6786   */\n      swap1\n      pop\n        /* \"#utility.yul\":6696:6792   */\n      swap2\n      swap1\n      pop\n      jump\t// out\n        /* \"#utility.yul\":6798:6920   */\n    tag_171:\n        /* \"#utility.yul\":6871:6895   */\n      tag_278\n        /* \"#utility.yul\":6889:6894   */\n      dup2\n        /* \"#utility.yul\":6871:6895   */\n      tag_170\n      jump\t// in\n    tag_278:\n        /* \"#utility.yul\":6864:6869   */\n      dup2\n        /* \"#utility.yul\":6861:6896   */\n      eq\n        /* \"#utility.yul\":6851:6914   */\n      tag_279\n      jumpi\n        /* \"#utility.yul\":6910:6911   */\n      0x00\n        /* \"#utility.yul\":6907:6908   */\n      dup1\n        /* \"#utility.yul\":6900:6912   */\n      revert\n        /* \"#utility.yul\":6851:6914   */\n    tag_279:\n        /* \"#utility.yul\":6798:6920   */\n      pop\n      jump\t// out\n        /* \"#utility.yul\":6926:7065   */\n    tag_172:\n        /* \"#utility.yul\":6972:6977   */\n      0x00\n        /* \"#utility.yul\":7010:7016   */\n      dup2\n        /* \"#utility.yul\":6997:7017   */\n      calldataload\n        /* \"#utility.yul\":6988:7017   */\n      swap1\n      pop\n        /* \"#utility.yul\":7026:7059   */\n      tag_281\n        /* \"#utility.yul\":7053:7058   */\n      dup2\n        /* \"#utility.yul\":7026:7059   */\n      tag_171\n      jump\t// in\n    tag_281:\n        /* \"#utility.yul\":6926:7065   */\n      swap3\n      swap2\n      pop\n      pop\n      jump\t// out\n        /* \"#utility.yul\":7071:7400   */\n    tag_23:\n        /* \"#utility.yul\":7130:7136   */\n      0x00\n        /* \"#utility.yul\":7179:7181   */\n      0x20\n        /* \"#utility.yul\":7167:7176   */\n      dup3\n        /* \"#utility.yul\":7158:7165   */\n      dup5\n        /* \"#utility.yul\":7154:7177   */\n      sub\n        /* \"#utility.yul\":7150:7182   */\n      slt\n        /* \"#utility.yul\":7147:7266   */\n      iszero\n      tag_283\n      jumpi\n        /* \"#utility.yul\":7185:7264   */\n      tag_284\n      tag_147\n      jump\t// in\n    tag_284:\n        /* \"#utility.yul\":7147:7266   */\n    tag_283:\n        /* \"#utility.yul\":7305:7306   */\n      0x00\n        /* \"#utility.yul\":7330:7383   */\n      tag_285\n        /* \"#utility.yul\":7375:7382   */\n      dup5\n        /* \"#utility.yul\":7366:7372   */\n      dup3\n        /* \"#utility.yul\":7355:7364   */\n      dup6\n        /* \"#utility.yul\":7351:7373   */\n      add\n        /* \"#utility.yul\":7330:7383   */\n      tag_172\n      jump\t// in\n    tag_285:\n        /* \"#utility.yul\":7320:7383   */\n      swap2\n      pop\n        /* \"#utility.yul\":7276:7393   */\n      pop\n        /* \"#utility.yul\":7071:7400   */\n      swap3\n      swap2\n      pop\n      pop\n      jump\t// out\n        /* \"#utility.yul\":7406:7514   */\n    tag_173:\n        /* \"#utility.yul\":7483:7507   */\n      tag_287\n        /* \"#utility.yul\":7501:7506   */\n      dup2\n        /* \"#utility.yul\":7483:7507   */\n      tag_170\n      jump\t// in\n    tag_287:\n        /* \"#utility.yul\":7478:7481   */\n      dup3\n        /* \"#utility.yul\":7471:7508   */\n      mstore\n        /* \"#utility.yul\":7406:7514   */\n      pop\n      pop\n      jump\t// out\n        /* \"#utility.yul\":7520:7679   */\n    tag_174:\n        /* \"#utility.yul\":7594:7605   */\n      0x00\n        /* \"#utility.yul\":7628:7634   */\n      dup3\n        /* \"#utility.yul\":7623:7626   */\n      dup3\n        /* \"#utility.yul\":7616:7635   */\n      mstore\n        /* \"#utility.yul\":7668:7672   */\n      0x20\n        /* \"#utility.yul\":7663:7666   */\n      dup3\n        /* \"#utility.yul\":7659:7673   */\n      add\n        /* \"#utility.yul\":7644:7673   */\n      swap1\n      pop\n        /* \"#utility.yul\":7520:7679   */\n      swap3\n      swap2\n      pop\n      pop\n      jump\t// out\n        /* \"#utility.yul\":7685:8042   */\n    tag_175:\n        /* \"#utility.yul\":7763:7766   */\n      0x00\n        /* \"#utility.yul\":7791:7830   */\n      tag_290\n        /* \"#utility.yul\":7824:7829   */\n      dup3\n        /* \"#utility.yul\":7791:7830   */\n      tag_162\n      jump\t// in\n    tag_290:\n        /* \"#utility.yul\":7846:7907   */\n      tag_291\n        /* \"#utility.yul\":7900:7906   */\n      dup2\n        /* \"#utility.yul\":7895:7898   */\n      dup6\n        /* \"#utility.yul\":7846:7907   */\n      tag_174\n      jump\t// in\n    tag_291:\n        /* \"#utility.yul\":7839:7907   */\n      swap4\n      pop\n        /* \"#utility.yul\":7916:7981   */\n      tag_292\n        /* \"#utility.yul\":7974:7980   */\n      dup2\n        /* \"#utility.yul\":7969:7972   */\n      dup6\n        /* \"#utility.yul\":7962:7966   */\n      0x20\n        /* \"#utility.yul\":7955:7960   */\n      dup7\n        /* \"#utility.yul\":7951:7967   */\n      add\n        /* \"#utility.yul\":7916:7981   */\n      tag_164\n      jump\t// in\n    tag_292:\n        /* \"#utility.yul\":8006:8035   */\n      tag_293\n        /* \"#utility.yul\":8028:8034   */\n      dup2\n        /* \"#utility.yul\":8006:8035   */\n      tag_151\n      jump\t// in\n    tag_293:\n        /* \"#utility.yul\":8001:8004   */\n      dup5\n        /* \"#utility.yul\":7997:8036   */\n      add\n        /* \"#utility.yul\":7990:8036   */\n      swap2\n      pop\n        /* \"#utility.yul\":7767:8042   */\n      pop\n        /* \"#utility.yul\":7685:8042   */\n      swap3\n      swap2\n      pop\n      pop\n      jump\t// out\n        /* \"#utility.yul\":8048:8147   */\n    tag_176:\n        /* \"#utility.yul\":8119:8140   */\n      tag_295\n        /* \"#utility.yul\":8134:8139   */\n      dup2\n        /* \"#utility.yul\":8119:8140   */\n      tag_167\n      jump\t// in\n    tag_295:\n        /* \"#utility.yul\":8114:8117   */\n      dup3\n        /* \"#utility.yul\":8107:8141   */\n      mstore\n        /* \"#utility.yul\":8048:8147   */\n      pop\n      pop\n      jump\t// out\n        /* \"#utility.yul\":8215:9239   */\n    tag_177:\n        /* \"#utility.yul\":8324:8327   */\n      0x00\n        /* \"#utility.yul\":8360:8364   */\n      0x80\n        /* \"#utility.yul\":8355:8358   */\n      dup4\n        /* \"#utility.yul\":8351:8365   */\n      add\n        /* \"#utility.yul\":8454:8458   */\n      0x00\n        /* \"#utility.yul\":8447:8452   */\n      dup4\n        /* \"#utility.yul\":8443:8459   */\n      add\n        /* \"#utility.yul\":8437:8460   */\n      mload\n        /* \"#utility.yul\":8473:8536   */\n      tag_297\n        /* \"#utility.yul\":8530:8534   */\n      0x00\n        /* \"#utility.yul\":8525:8528   */\n      dup7\n        /* \"#utility.yul\":8521:8535   */\n      add\n        /* \"#utility.yul\":8507:8519   */\n      dup3\n        /* \"#utility.yul\":8473:8536   */\n      tag_173\n      jump\t// in\n    tag_297:\n        /* \"#utility.yul\":8375:8546   */\n      pop\n        /* \"#utility.yul\":8628:8632   */\n      0x20\n        /* \"#utility.yul\":8621:8626   */\n      dup4\n        /* \"#utility.yul\":8617:8633   */\n      add\n        /* \"#utility.yul\":8611:8634   */\n      mload\n        /* \"#utility.yul\":8681:8684   */\n      dup5\n        /* \"#utility.yul\":8675:8679   */\n      dup3\n        /* \"#utility.yul\":8671:8685   */\n      sub\n        /* \"#utility.yul\":8664:8668   */\n      0x20\n        /* \"#utility.yul\":8659:8662   */\n      dup7\n        /* \"#utility.yul\":8655:8669   */\n      add\n        /* \"#utility.yul\":8648:8686   */\n      mstore\n        /* \"#utility.yul\":8707:8780   */\n      tag_298\n        /* \"#utility.yul\":8775:8779   */\n      dup3\n        /* \"#utility.yul\":8761:8773   */\n      dup3\n        /* \"#utility.yul\":8707:8780   */\n      tag_175\n      jump\t// in\n    tag_298:\n        /* \"#utility.yul\":8699:8780   */\n      swap2\n      pop\n        /* \"#utility.yul\":8556:8791   */\n      pop\n        /* \"#utility.yul\":8881:8885   */\n      0x40\n        /* \"#utility.yul\":8874:8879   */\n      dup4\n        /* \"#utility.yul\":8870:8886   */\n      add\n        /* \"#utility.yul\":8864:8887   */\n      mload\n        /* \"#utility.yul\":8900:8957   */\n      tag_299\n        /* \"#utility.yul\":8951:8955   */\n      0x40\n        /* \"#utility.yul\":8946:8949   */\n      dup7\n        /* \"#utility.yul\":8942:8956   */\n      add\n        /* \"#utility.yul\":8928:8940   */\n      dup3\n        /* \"#utility.yul\":8900:8957   */\n      tag_176\n      jump\t// in\n    tag_299:\n        /* \"#utility.yul\":8801:8967   */\n      pop\n        /* \"#utility.yul\":9049:9053   */\n      0x60\n        /* \"#utility.yul\":9042:9047   */\n      dup4\n        /* \"#utility.yul\":9038:9054   */\n      add\n        /* \"#utility.yul\":9032:9055   */\n      mload\n        /* \"#utility.yul\":9102:9105   */\n      dup5\n        /* \"#utility.yul\":9096:9100   */\n      dup3\n        /* \"#utility.yul\":9092:9106   */\n      sub\n        /* \"#utility.yul\":9085:9089   */\n      0x60\n        /* \"#utility.yul\":9080:9083   */\n      dup7\n        /* \"#utility.yul\":9076:9090   */\n      add\n        /* \"#utility.yul\":9069:9107   */\n      mstore\n        /* \"#utility.yul\":9128:9201   */\n      tag_300\n        /* \"#utility.yul\":9196:9200   */\n      dup3\n        /* \"#utility.yul\":9182:9194   */\n      dup3\n        /* \"#utility.yul\":9128:9201   */\n      tag_175\n      jump\t// in\n    tag_300:\n        /* \"#utility.yul\":9120:9201   */\n      swap2\n      pop\n        /* \"#utility.yul\":8977:9212   */\n      pop\n        /* \"#utility.yul\":9229:9233   */\n      dup1\n        /* \"#utility.yul\":9222:9233   */\n      swap2\n      pop\n        /* \"#utility.yul\":8329:9239   */\n      pop\n        /* \"#utility.yul\":8215:9239   */\n      swap3\n      swap2\n      pop\n      pop\n      jump\t// out\n        /* \"#utility.yul\":9245:9598   */\n    tag_26:\n        /* \"#utility.yul\":9378:9382   */\n      0x00\n        /* \"#utility.yul\":9416:9418   */\n      0x20\n        /* \"#utility.yul\":9405:9414   */\n      dup3\n        /* \"#utility.yul\":9401:9419   */\n      add\n        /* \"#utility.yul\":9393:9419   */\n      swap1\n      pop\n        /* \"#utility.yul\":9465:9474   */\n      dup2\n        /* \"#utility.yul\":9459:9463   */\n      dup2\n        /* \"#utility.yul\":9455:9475   */\n      sub\n        /* \"#utility.yul\":9451:9452   */\n      0x00\n        /* \"#utility.yul\":9440:9449   */\n      dup4\n        /* \"#utility.yul\":9436:9453   */\n      add\n        /* \"#utility.yul\":9429:9476   */\n      mstore\n        /* \"#utility.yul\":9493:9591   */\n      tag_302\n        /* \"#utility.yul\":9586:9590   */\n      dup2\n        /* \"#utility.yul\":9577:9583   */\n      dup5\n        /* \"#utility.yul\":9493:9591   */\n      tag_177\n      jump\t// in\n    tag_302:\n        /* \"#utility.yul\":9485:9591   */\n      swap1\n      pop\n        /* \"#utility.yul\":9245:9598   */\n      swap3\n      swap2\n      pop\n      pop\n      jump\t// out\n        /* \"#utility.yul\":9604:11561   */\n    tag_29:\n        /* \"#utility.yul\":9758:9764   */\n      0x00\n        /* \"#utility.yul\":9766:9772   */\n      dup1\n        /* \"#utility.yul\":9774:9780   */\n      0x00\n        /* \"#utility.yul\":9782:9788   */\n      dup1\n        /* \"#utility.yul\":9790:9796   */\n      0x00\n        /* \"#utility.yul\":9798:9804   */\n      dup1\n        /* \"#utility.yul\":9847:9850   */\n      0xc0\n        /* \"#utility.yul\":9835:9844   */\n      dup8\n        /* \"#utility.yul\":9826:9833   */\n      dup10\n        /* \"#utility.yul\":9822:9845   */\n      sub\n        /* \"#utility.yul\":9818:9851   */\n      slt\n        /* \"#utility.yul\":9815:9935   */\n      iszero\n      tag_304\n      jumpi\n        /* \"#utility.yul\":9854:9933   */\n      tag_305\n      tag_147\n      jump\t// in\n    tag_305:\n        /* \"#utility.yul\":9815:9935   */\n    tag_304:\n        /* \"#utility.yul\":10002:10003   */\n      0x00\n        /* \"#utility.yul\":9991:10000   */\n      dup8\n        /* \"#utility.yul\":9987:10004   */\n      add\n        /* \"#utility.yul\":9974:10005   */\n      calldataload\n        /* \"#utility.yul\":10032:10050   */\n      0xffffffffffffffff\n        /* \"#utility.yul\":10024:10030   */\n      dup2\n        /* \"#utility.yul\":10021:10051   */\n      gt\n        /* \"#utility.yul\":10018:10135   */\n      iszero\n      tag_306\n      jumpi\n        /* \"#utility.yul\":10054:10133   */\n      tag_307\n      tag_148\n      jump\t// in\n    tag_307:\n        /* \"#utility.yul\":10018:10135   */\n    tag_306:\n        /* \"#utility.yul\":10159:10222   */\n      tag_308\n        /* \"#utility.yul\":10214:10221   */\n      dup10\n        /* \"#utility.yul\":10205:10211   */\n      dup3\n        /* \"#utility.yul\":10194:10203   */\n      dup11\n        /* \"#utility.yul\":10190:10212   */\n      add\n        /* \"#utility.yul\":10159:10222   */\n      tag_158\n      jump\t// in\n    tag_308:\n        /* \"#utility.yul\":10149:10222   */\n      swap7\n      pop\n        /* \"#utility.yul\":9945:10232   */\n      pop\n        /* \"#utility.yul\":10299:10301   */\n      0x20\n        /* \"#utility.yul\":10288:10297   */\n      dup8\n        /* \"#utility.yul\":10284:10302   */\n      add\n        /* \"#utility.yul\":10271:10303   */\n      calldataload\n        /* \"#utility.yul\":10330:10348   */\n      0xffffffffffffffff\n        /* \"#utility.yul\":10322:10328   */\n      dup2\n        /* \"#utility.yul\":10319:10349   */\n      gt\n        /* \"#utility.yul\":10316:10433   */\n      iszero\n      tag_309\n      jumpi\n        /* \"#utility.yul\":10352:10431   */\n      tag_310\n      tag_148\n      jump\t// in\n    tag_310:\n        /* \"#utility.yul\":10316:10433   */\n    tag_309:\n        /* \"#utility.yul\":10457:10520   */\n      tag_311\n        /* \"#utility.yul\":10512:10519   */\n      dup10\n        /* \"#utility.yul\":10503:10509   */\n      dup3\n        /* \"#utility.yul\":10492:10501   */\n      dup11\n        /* \"#utility.yul\":10488:10510   */\n      add\n        /* \"#utility.yul\":10457:10520   */\n      tag_158\n      jump\t// in\n    tag_311:\n        /* \"#utility.yul\":10447:10520   */\n      swap6\n      pop\n        /* \"#utility.yul\":10242:10530   */\n      pop\n        /* \"#utility.yul\":10597:10599   */\n      0x40\n        /* \"#utility.yul\":10586:10595   */\n      dup8\n        /* \"#utility.yul\":10582:10600   */\n      add\n        /* \"#utility.yul\":10569:10601   */\n      calldataload\n        /* \"#utility.yul\":10628:10646   */\n      0xffffffffffffffff\n        /* \"#utility.yul\":10620:10626   */\n      dup2\n        /* \"#utility.yul\":10617:10647   */\n      gt\n        /* \"#utility.yul\":10614:10731   */\n      iszero\n      tag_312\n      jumpi\n        /* \"#utility.yul\":10650:10729   */\n      tag_313\n      tag_148\n      jump\t// in\n    tag_313:\n        /* \"#utility.yul\":10614:10731   */\n    tag_312:\n        /* \"#utility.yul\":10755:10818   */\n      tag_314\n        /* \"#utility.yul\":10810:10817   */\n      dup10\n        /* \"#utility.yul\":10801:10807   */\n      dup3\n        /* \"#utility.yul\":10790:10799   */\n      dup11\n        /* \"#utility.yul\":10786:10808   */\n      add\n        /* \"#utility.yul\":10755:10818   */\n      tag_158\n      jump\t// in\n    tag_314:\n        /* \"#utility.yul\":10745:10818   */\n      swap5\n      pop\n        /* \"#utility.yul\":10540:10828   */\n      pop\n        /* \"#utility.yul\":10895:10897   */\n      0x60\n        /* \"#utility.yul\":10884:10893   */\n      dup8\n        /* \"#utility.yul\":10880:10898   */\n      add\n        /* \"#utility.yul\":10867:10899   */\n      calldataload\n        /* \"#utility.yul\":10926:10944   */\n      0xffffffffffffffff\n        /* \"#utility.yul\":10918:10924   */\n      dup2\n        /* \"#utility.yul\":10915:10945   */\n      gt\n        /* \"#utility.yul\":10912:11029   */\n      iszero\n      tag_315\n      jumpi\n        /* \"#utility.yul\":10948:11027   */\n      tag_316\n      tag_148\n      jump\t// in\n    tag_316:\n        /* \"#utility.yul\":10912:11029   */\n    tag_315:\n        /* \"#utility.yul\":11053:11116   */\n      tag_317\n        /* \"#utility.yul\":11108:11115   */\n      dup10\n        /* \"#utility.yul\":11099:11105   */\n      dup3\n        /* \"#utility.yul\":11088:11097   */\n      dup11\n        /* \"#utility.yul\":11084:11106   */\n      add\n        /* \"#utility.yul\":11053:11116   */\n      tag_158\n      jump\t// in\n    tag_317:\n        /* \"#utility.yul\":11043:11116   */\n      swap4\n      pop\n        /* \"#utility.yul\":10838:11126   */\n      pop\n        /* \"#utility.yul\":11193:11196   */\n      0x80\n        /* \"#utility.yul\":11182:11191   */\n      dup8\n        /* \"#utility.yul\":11178:11197   */\n      add\n        /* \"#utility.yul\":11165:11198   */\n      calldataload\n        /* \"#utility.yul\":11225:11243   */\n      0xffffffffffffffff\n        /* \"#utility.yul\":11217:11223   */\n      dup2\n        /* \"#utility.yul\":11214:11244   */\n      gt\n        /* \"#utility.yul\":11211:11328   */\n      iszero\n      tag_318\n      jumpi\n        /* \"#utility.yul\":11247:11326   */\n      tag_319\n      tag_148\n      jump\t// in\n    tag_319:\n        /* \"#utility.yul\":11211:11328   */\n    tag_318:\n        /* \"#utility.yul\":11352:11415   */\n      tag_320\n        /* \"#utility.yul\":11407:11414   */\n      dup10\n        /* \"#utility.yul\":11398:11404   */\n      dup3\n        /* \"#utility.yul\":11387:11396   */\n      dup11\n        /* \"#utility.yul\":11383:11405   */\n      add\n        /* \"#utility.yul\":11352:11415   */\n      tag_158\n      jump\t// in\n    tag_320:\n        /* \"#utility.yul\":11342:11415   */\n      swap3\n      pop\n        /* \"#utility.yul\":11136:11425   */\n      pop\n        /* \"#utility.yul\":11464:11467   */\n      0xa0\n        /* \"#utility.yul\":11491:11544   */\n      tag_321\n        /* \"#utility.yul\":11536:11543   */\n      dup10\n        /* \"#utility.yul\":11527:11533   */\n      dup3\n        /* \"#utility.yul\":11516:11525   */\n      dup11\n        /* \"#utility.yul\":11512:11534   */\n      add\n        /* \"#utility.yul\":11491:11544   */\n      tag_161\n      jump\t// in\n    tag_321:\n        /* \"#utility.yul\":11481:11544   */\n      swap2\n      pop\n        /* \"#utility.yul\":11435:11554   */\n      pop\n        /* \"#utility.yul\":9604:11561   */\n      swap3\n      swap6\n      pop\n      swap3\n      swap6\n      pop\n      swap3\n      swap6\n      jump\t// out\n        /* \"#utility.yul\":11567:11685   */\n    tag_178:\n        /* \"#utility.yul\":11654:11678   */\n      tag_323\n        /* \"#utility.yul\":11672:11677   */\n      dup2\n        /* \"#utility.yul\":11654:11678   */\n      tag_170\n      jump\t// in\n    tag_323:\n        /* \"#utility.yul\":11649:11652   */\n      dup3\n        /* \"#utility.yul\":11642:11679   */\n      mstore\n        /* \"#utility.yul\":11567:11685   */\n      pop\n      pop\n      jump\t// out\n        /* \"#utility.yul\":11691:12414   */\n    tag_35:\n        /* \"#utility.yul\":11902:11906   */\n      0x00\n        /* \"#utility.yul\":11940:11943   */\n      0x80\n        /* \"#utility.yul\":11929:11938   */\n      dup3\n        /* \"#utility.yul\":11925:11944   */\n      add\n        /* \"#utility.yul\":11917:11944   */\n      swap1\n      pop\n        /* \"#utility.yul\":11954:12025   */\n      tag_325\n        /* \"#utility.yul\":12022:12023   */\n      0x00\n        /* \"#utility.yul\":12011:12020   */\n      dup4\n        /* \"#utility.yul\":12007:12024   */\n      add\n        /* \"#utility.yul\":11998:12004   */\n      dup8\n        /* \"#utility.yul\":11954:12025   */\n      tag_178\n      jump\t// in\n    tag_325:\n        /* \"#utility.yul\":12072:12081   */\n      dup2\n        /* \"#utility.yul\":12066:12070   */\n      dup2\n        /* \"#utility.yul\":12062:12082   */\n      sub\n        /* \"#utility.yul\":12057:12059   */\n      0x20\n        /* \"#utility.yul\":12046:12055   */\n      dup4\n        /* \"#utility.yul\":12042:12060   */\n      add\n        /* \"#utility.yul\":12035:12083   */\n      mstore\n        /* \"#utility.yul\":12100:12178   */\n      tag_326\n        /* \"#utility.yul\":12173:12177   */\n      dup2\n        /* \"#utility.yul\":12164:12170   */\n      dup7\n        /* \"#utility.yul\":12100:12178   */\n      tag_165\n      jump\t// in\n    tag_326:\n        /* \"#utility.yul\":12092:12178   */\n      swap1\n      pop\n        /* \"#utility.yul\":12188:12254   */\n      tag_327\n        /* \"#utility.yul\":12250:12252   */\n      0x40\n        /* \"#utility.yul\":12239:12248   */\n      dup4\n        /* \"#utility.yul\":12235:12253   */\n      add\n        /* \"#utility.yul\":12226:12232   */\n      dup6\n        /* \"#utility.yul\":12188:12254   */\n      tag_168\n      jump\t// in\n    tag_327:\n        /* \"#utility.yul\":12301:12310   */\n      dup2\n        /* \"#utility.yul\":12295:12299   */\n      dup2\n        /* \"#utility.yul\":12291:12311   */\n      sub\n        /* \"#utility.yul\":12286:12288   */\n      0x60\n        /* \"#utility.yul\":12275:12284   */\n      dup4\n        /* \"#utility.yul\":12271:12289   */\n      add\n        /* \"#utility.yul\":12264:12312   */\n      mstore\n        /* \"#utility.yul\":12329:12407   */\n      tag_328\n        /* \"#utility.yul\":12402:12406   */\n      dup2\n        /* \"#utility.yul\":12393:12399   */\n      dup5\n        /* \"#utility.yul\":12329:12407   */\n      tag_165\n      jump\t// in\n    tag_328:\n        /* \"#utility.yul\":12321:12407   */\n      swap1\n      pop\n        /* \"#utility.yul\":11691:12414   */\n      swap6\n      swap5\n      pop\n      pop\n      pop\n      pop\n      pop\n      jump\t// out\n        /* \"#utility.yul\":12420:12642   */\n    tag_39:\n        /* \"#utility.yul\":12513:12517   */\n      0x00\n        /* \"#utility.yul\":12551:12553   */\n      0x20\n        /* \"#utility.yul\":12540:12549   */\n      dup3\n        /* \"#utility.yul\":12536:12554   */\n      add\n        /* \"#utility.yul\":12528:12554   */\n      swap1\n      pop\n        /* \"#utility.yul\":12564:12635   */\n      tag_330\n        /* \"#utility.yul\":12632:12633   */\n      0x00\n        /* \"#utility.yul\":12621:12630   */\n      dup4\n        /* \"#utility.yul\":12617:12634   */\n      add\n        /* \"#utility.yul\":12608:12614   */\n      dup5\n        /* \"#utility.yul\":12564:12635   */\n      tag_166\n      jump\t// in\n    tag_330:\n        /* \"#utility.yul\":12420:12642   */\n      swap3\n      swap2\n      pop\n      pop\n      jump\t// out\n        /* \"#utility.yul\":12648:12756   */\n    tag_179:\n        /* \"#utility.yul\":12725:12749   */\n      tag_332\n        /* \"#utility.yul\":12743:12748   */\n      dup2\n        /* \"#utility.yul\":12725:12749   */\n      tag_159\n      jump\t// in\n    tag_332:\n        /* \"#utility.yul\":12720:12723   */\n      dup3\n        /* \"#utility.yul\":12713:12750   */\n      mstore\n        /* \"#utility.yul\":12648:12756   */\n      pop\n      pop\n      jump\t// out\n        /* \"#utility.yul\":12824:14587   */\n    tag_180:\n        /* \"#utility.yul\":12933:12936   */\n      0x00\n        /* \"#utility.yul\":12969:12973   */\n      0xe0\n        /* \"#utility.yul\":12964:12967   */\n      dup4\n        /* \"#utility.yul\":12960:12974   */\n      add\n        /* \"#utility.yul\":13057:13061   */\n      0x00\n        /* \"#utility.yul\":13050:13055   */\n      dup4\n        /* \"#utility.yul\":13046:13062   */\n      add\n        /* \"#utility.yul\":13040:13063   */\n      mload\n        /* \"#utility.yul\":13110:13113   */\n      dup5\n        /* \"#utility.yul\":13104:13108   */\n      dup3\n        /* \"#utility.yul\":13100:13114   */\n      sub\n        /* \"#utility.yul\":13093:13097   */\n      0x00\n        /* \"#utility.yul\":13088:13091   */\n      dup7\n        /* \"#utility.yul\":13084:13098   */\n      add\n        /* \"#utility.yul\":13077:13115   */\n      mstore\n        /* \"#utility.yul\":13136:13209   */\n      tag_334\n        /* \"#utility.yul\":13204:13208   */\n      dup3\n        /* \"#utility.yul\":13190:13202   */\n      dup3\n        /* \"#utility.yul\":13136:13209   */\n      tag_175\n      jump\t// in\n    tag_334:\n        /* \"#utility.yul\":13128:13209   */\n      swap2\n      pop\n        /* \"#utility.yul\":12984:13220   */\n      pop\n        /* \"#utility.yul\":13304:13308   */\n      0x20\n        /* \"#utility.yul\":13297:13302   */\n      dup4\n        /* \"#utility.yul\":13293:13309   */\n      add\n        /* \"#utility.yul\":13287:13310   */\n      mload\n        /* \"#utility.yul\":13357:13360   */\n      dup5\n        /* \"#utility.yul\":13351:13355   */\n      dup3\n        /* \"#utility.yul\":13347:13361   */\n      sub\n        /* \"#utility.yul\":13340:13344   */\n      0x20\n        /* \"#utility.yul\":13335:13338   */\n      dup7\n        /* \"#utility.yul\":13331:13345   */\n      add\n        /* \"#utility.yul\":13324:13362   */\n      mstore\n        /* \"#utility.yul\":13383:13456   */\n      tag_335\n        /* \"#utility.yul\":13451:13455   */\n      dup3\n        /* \"#utility.yul\":13437:13449   */\n      dup3\n        /* \"#utility.yul\":13383:13456   */\n      tag_175\n      jump\t// in\n    tag_335:\n        /* \"#utility.yul\":13375:13456   */\n      swap2\n      pop\n        /* \"#utility.yul\":13230:13467   */\n      pop\n        /* \"#utility.yul\":13550:13554   */\n      0x40\n        /* \"#utility.yul\":13543:13548   */\n      dup4\n        /* \"#utility.yul\":13539:13555   */\n      add\n        /* \"#utility.yul\":13533:13556   */\n      mload\n        /* \"#utility.yul\":13603:13606   */\n      dup5\n        /* \"#utility.yul\":13597:13601   */\n      dup3\n        /* \"#utility.yul\":13593:13607   */\n      sub\n        /* \"#utility.yul\":13586:13590   */\n      0x40\n        /* \"#utility.yul\":13581:13584   */\n      dup7\n        /* \"#utility.yul\":13577:13591   */\n      add\n        /* \"#utility.yul\":13570:13608   */\n      mstore\n        /* \"#utility.yul\":13629:13702   */\n      tag_336\n        /* \"#utility.yul\":13697:13701   */\n      dup3\n        /* \"#utility.yul\":13683:13695   */\n      dup3\n        /* \"#utility.yul\":13629:13702   */\n      tag_175\n      jump\t// in\n    tag_336:\n        /* \"#utility.yul\":13621:13702   */\n      swap2\n      pop\n        /* \"#utility.yul\":13477:13713   */\n      pop\n        /* \"#utility.yul\":13799:13803   */\n      0x60\n        /* \"#utility.yul\":13792:13797   */\n      dup4\n        /* \"#utility.yul\":13788:13804   */\n      add\n        /* \"#utility.yul\":13782:13805   */\n      mload\n        /* \"#utility.yul\":13852:13855   */\n      dup5\n        /* \"#utility.yul\":13846:13850   */\n      dup3\n        /* \"#utility.yul\":13842:13856   */\n      sub\n        /* \"#utility.yul\":13835:13839   */\n      0x60\n        /* \"#utility.yul\":13830:13833   */\n      dup7\n        /* \"#utility.yul\":13826:13840   */\n      add\n        /* \"#utility.yul\":13819:13857   */\n      mstore\n        /* \"#utility.yul\":13878:13951   */\n      tag_337\n        /* \"#utility.yul\":13946:13950   */\n      dup3\n        /* \"#utility.yul\":13932:13944   */\n      dup3\n        /* \"#utility.yul\":13878:13951   */\n      tag_175\n      jump\t// in\n    tag_337:\n        /* \"#utility.yul\":13870:13951   */\n      swap2\n      pop\n        /* \"#utility.yul\":13723:13962   */\n      pop\n        /* \"#utility.yul\":14052:14056   */\n      0x80\n        /* \"#utility.yul\":14045:14050   */\n      dup4\n        /* \"#utility.yul\":14041:14057   */\n      add\n        /* \"#utility.yul\":14035:14058   */\n      mload\n        /* \"#utility.yul\":14105:14108   */\n      dup5\n        /* \"#utility.yul\":14099:14103   */\n      dup3\n        /* \"#utility.yul\":14095:14109   */\n      sub\n        /* \"#utility.yul\":14088:14092   */\n      0x80\n        /* \"#utility.yul\":14083:14086   */\n      dup7\n        /* \"#utility.yul\":14079:14093   */\n      add\n        /* \"#utility.yul\":14072:14110   */\n      mstore\n        /* \"#utility.yul\":14131:14204   */\n      tag_338\n        /* \"#utility.yul\":14199:14203   */\n      dup3\n        /* \"#utility.yul\":14185:14197   */\n      dup3\n        /* \"#utility.yul\":14131:14204   */\n      tag_175\n      jump\t// in\n    tag_338:\n        /* \"#utility.yul\":14123:14204   */\n      swap2\n      pop\n        /* \"#utility.yul\":13972:14215   */\n      pop\n        /* \"#utility.yul\":14298:14302   */\n      0xa0\n        /* \"#utility.yul\":14291:14296   */\n      dup4\n        /* \"#utility.yul\":14287:14303   */\n      add\n        /* \"#utility.yul\":14281:14304   */\n      mload\n        /* \"#utility.yul\":14317:14380   */\n      tag_339\n        /* \"#utility.yul\":14374:14378   */\n      0xa0\n        /* \"#utility.yul\":14369:14372   */\n      dup7\n        /* \"#utility.yul\":14365:14379   */\n      add\n        /* \"#utility.yul\":14351:14363   */\n      dup3\n        /* \"#utility.yul\":14317:14380   */\n      tag_179\n      jump\t// in\n    tag_339:\n        /* \"#utility.yul\":14225:14390   */\n      pop\n        /* \"#utility.yul\":14474:14478   */\n      0xc0\n        /* \"#utility.yul\":14467:14472   */\n      dup4\n        /* \"#utility.yul\":14463:14479   */\n      add\n        /* \"#utility.yul\":14457:14480   */\n      mload\n        /* \"#utility.yul\":14493:14550   */\n      tag_340\n        /* \"#utility.yul\":14544:14548   */\n      0xc0\n        /* \"#utility.yul\":14539:14542   */\n      dup7\n        /* \"#utility.yul\":14535:14549   */\n      add\n        /* \"#utility.yul\":14521:14533   */\n      dup3\n        /* \"#utility.yul\":14493:14550   */\n      tag_176\n      jump\t// in\n    tag_340:\n        /* \"#utility.yul\":14400:14560   */\n      pop\n        /* \"#utility.yul\":14577:14581   */\n      dup1\n        /* \"#utility.yul\":14570:14581   */\n      swap2\n      pop\n        /* \"#utility.yul\":12938:14587   */\n      pop\n        /* \"#utility.yul\":12824:14587   */\n      swap3\n      swap2\n      pop\n      pop\n      jump\t// out\n        /* \"#utility.yul\":14593:14946   */\n    tag_44:\n        /* \"#utility.yul\":14726:14730   */\n      0x00\n        /* \"#utility.yul\":14764:14766   */\n      0x20\n        /* \"#utility.yul\":14753:14762   */\n      dup3\n        /* \"#utility.yul\":14749:14767   */\n      add\n        /* \"#utility.yul\":14741:14767   */\n      swap1\n      pop\n        /* \"#utility.yul\":14813:14822   */\n      dup2\n        /* \"#utility.yul\":14807:14811   */\n      dup2\n        /* \"#utility.yul\":14803:14823   */\n      sub\n        /* \"#utility.yul\":14799:14800   */\n      0x00\n        /* \"#utility.yul\":14788:14797   */\n      dup4\n        /* \"#utility.yul\":14784:14801   */\n      add\n        /* \"#utility.yul\":14777:14824   */\n      mstore\n        /* \"#utility.yul\":14841:14939   */\n      tag_342\n        /* \"#utility.yul\":14934:14938   */\n      dup2\n        /* \"#utility.yul\":14925:14931   */\n      dup5\n        /* \"#utility.yul\":14841:14939   */\n      tag_180\n      jump\t// in\n    tag_342:\n        /* \"#utility.yul\":14833:14939   */\n      swap1\n      pop\n        /* \"#utility.yul\":14593:14946   */\n      swap3\n      swap2\n      pop\n      pop\n      jump\t// out\n        /* \"#utility.yul\":14952:15125   */\n    tag_181:\n        /* \"#utility.yul\":15092:15117   */\n      0x5573657220616c72656164792072656769737465726564000000000000000000\n        /* \"#utility.yul\":15088:15089   */\n      0x00\n        /* \"#utility.yul\":15080:15086   */\n      dup3\n        /* \"#utility.yul\":15076:15090   */\n      add\n        /* \"#utility.yul\":15069:15118   */\n      mstore\n        /* \"#utility.yul\":14952:15125   */\n      pop\n      jump\t// out\n        /* \"#utility.yul\":15131:15497   */\n    tag_182:\n        /* \"#utility.yul\":15273:15276   */\n      0x00\n        /* \"#utility.yul\":15294:15361   */\n      tag_345\n        /* \"#utility.yul\":15358:15360   */\n      0x17\n        /* \"#utility.yul\":15353:15356   */\n      dup4\n        /* \"#utility.yul\":15294:15361   */\n      tag_163\n      jump\t// in\n    tag_345:\n        /* \"#utility.yul\":15287:15361   */\n      swap2\n      pop\n        /* \"#utility.yul\":15370:15463   */\n      tag_346\n        /* \"#utility.yul\":15459:15462   */\n      dup3\n        /* \"#utility.yul\":15370:15463   */\n      tag_181\n      jump\t// in\n    tag_346:\n        /* \"#utility.yul\":15488:15490   */\n      0x20\n        /* \"#utility.yul\":15483:15486   */\n      dup3\n        /* \"#utility.yul\":15479:15491   */\n      add\n        /* \"#utility.yul\":15472:15491   */\n      swap1\n      pop\n        /* \"#utility.yul\":15131:15497   */\n      swap2\n      swap1\n      pop\n      jump\t// out\n        /* \"#utility.yul\":15503:15922   */\n    tag_48:\n        /* \"#utility.yul\":15669:15673   */\n      0x00\n        /* \"#utility.yul\":15707:15709   */\n      0x20\n        /* \"#utility.yul\":15696:15705   */\n      dup3\n        /* \"#utility.yul\":15692:15710   */\n      add\n        /* \"#utility.yul\":15684:15710   */\n      swap1\n      pop\n        /* \"#utility.yul\":15756:15765   */\n      dup2\n        /* \"#utility.yul\":15750:15754   */\n      dup2\n        /* \"#utility.yul\":15746:15766   */\n      sub\n        /* \"#utility.yul\":15742:15743   */\n      0x00\n        /* \"#utility.yul\":15731:15740   */\n      dup4\n        /* \"#utility.yul\":15727:15744   */\n      add\n        /* \"#utility.yul\":15720:15767   */\n      mstore\n        /* \"#utility.yul\":15784:15915   */\n      tag_348\n        /* \"#utility.yul\":15910:15914   */\n      dup2\n        /* \"#utility.yul\":15784:15915   */\n      tag_182\n      jump\t// in\n    tag_348:\n        /* \"#utility.yul\":15776:15915   */\n      swap1\n      pop\n        /* \"#utility.yul\":15503:15922   */\n      swap2\n      swap1\n      pop\n      jump\t// out\n        /* \"#utility.yul\":15928:16108   */\n    tag_183:\n        /* \"#utility.yul\":15976:16053   */\n      0x4e487b7100000000000000000000000000000000000000000000000000000000\n        /* \"#utility.yul\":15973:15974   */\n      0x00\n        /* \"#utility.yul\":15966:16054   */\n      mstore\n        /* \"#utility.yul\":16073:16077   */\n      0x22\n        /* \"#utility.yul\":16070:16071   */\n      0x04\n        /* \"#utility.yul\":16063:16078   */\n      mstore\n        /* \"#utility.yul\":16097:16101   */\n      0x24\n        /* \"#utility.yul\":16094:16095   */\n      0x00\n        /* \"#utility.yul\":16087:16102   */\n      revert\n        /* \"#utility.yul\":16114:16434   */\n    tag_55:\n        /* \"#utility.yul\":16158:16164   */\n      0x00\n        /* \"#utility.yul\":16195:16196   */\n      0x02\n        /* \"#utility.yul\":16189:16193   */\n      dup3\n        /* \"#utility.yul\":16185:16197   */\n      div\n        /* \"#utility.yul\":16175:16197   */\n      swap1\n      pop\n        /* \"#utility.yul\":16242:16243   */\n      0x01\n        /* \"#utility.yul\":16236:16240   */\n      dup3\n        /* \"#utility.yul\":16232:16244   */\n      and\n        /* \"#utility.yul\":16263:16281   */\n      dup1\n        /* \"#utility.yul\":16253:16334   */\n      tag_351\n      jumpi\n        /* \"#utility.yul\":16319:16323   */\n      0x7f\n        /* \"#utility.yul\":16311:16317   */\n      dup3\n        /* \"#utility.yul\":16307:16324   */\n      and\n        /* \"#utility.yul\":16297:16324   */\n      swap2\n      pop\n        /* \"#utility.yul\":16253:16334   */\n    tag_351:\n        /* \"#utility.yul\":16381:16383   */\n      0x20\n        /* \"#utility.yul\":16373:16379   */\n      dup3\n        /* \"#utility.yul\":16370:16384   */\n      lt\n        /* \"#utility.yul\":16350:16368   */\n      dup2\n        /* \"#utility.yul\":16347:16385   */\n      sub\n        /* \"#utility.yul\":16344:16428   */\n      tag_352\n      jumpi\n        /* \"#utility.yul\":16400:16418   */\n      tag_353\n      tag_183\n      jump\t// in\n    tag_353:\n        /* \"#utility.yul\":16344:16428   */\n    tag_352:\n        /* \"#utility.yul\":16165:16434   */\n      pop\n        /* \"#utility.yul\":16114:16434   */\n      swap2\n      swap1\n      pop\n      jump\t// out\n        /* \"#utility.yul\":16440:16581   */\n    tag_184:\n        /* \"#utility.yul\":16489:16493   */\n      0x00\n        /* \"#utility.yul\":16512:16515   */\n      dup2\n        /* \"#utility.yul\":16504:16515   */\n      swap1\n      pop\n        /* \"#utility.yul\":16535:16538   */\n      dup2\n        /* \"#utility.yul\":16532:16533   */\n      0x00\n        /* \"#utility.yul\":16525:16539   */\n      mstore\n        /* \"#utility.yul\":16569:16573   */\n      0x20\n        /* \"#utility.yul\":16566:16567   */\n      0x00\n        /* \"#utility.yul\":16556:16574   */\n      keccak256\n        /* \"#utility.yul\":16548:16574   */\n      swap1\n      pop\n        /* \"#utility.yul\":16440:16581   */\n      swap2\n      swap1\n      pop\n      jump\t// out\n        /* \"#utility.yul\":16587:16680   */\n    tag_185:\n        /* \"#utility.yul\":16624:16630   */\n      0x00\n        /* \"#utility.yul\":16671:16673   */\n      0x20\n        /* \"#utility.yul\":16666:16668   */\n      0x1f\n        /* \"#utility.yul\":16659:16664   */\n      dup4\n        /* \"#utility.yul\":16655:16669   */\n      add\n        /* \"#utility.yul\":16651:16674   */\n      div\n        /* \"#utility.yul\":16641:16674   */\n      swap1\n      pop\n        /* \"#utility.yul\":16587:16680   */\n      swap2\n      swap1\n      pop\n      jump\t// out\n        /* \"#utility.yul\":16686:16793   */\n    tag_186:\n        /* \"#utility.yul\":16730:16738   */\n      0x00\n        /* \"#utility.yul\":16780:16785   */\n      dup3\n        /* \"#utility.yul\":16774:16778   */\n      dup3\n        /* \"#utility.yul\":16770:16786   */\n      shl\n        /* \"#utility.yul\":16749:16786   */\n      swap1\n      pop\n        /* \"#utility.yul\":16686:16793   */\n      swap3\n      swap2\n      pop\n      pop\n      jump\t// out\n        /* \"#utility.yul\":16799:17192   */\n    tag_187:\n        /* \"#utility.yul\":16868:16874   */\n      0x00\n        /* \"#utility.yul\":16918:16919   */\n      0x08\n        /* \"#utility.yul\":16906:16916   */\n      dup4\n        /* \"#utility.yul\":16902:16920   */\n      mul\n        /* \"#utility.yul\":16941:17038   */\n      tag_358\n        /* \"#utility.yul\":16971:17037   */\n      0xffffffffffffffffffffffffffffffffffffffffffffffffffffffffffffffff\n        /* \"#utility.yul\":16960:16969   */\n      dup3\n        /* \"#utility.yul\":16941:17038   */\n      tag_186\n      jump\t// in\n    tag_358:\n        /* \"#utility.yul\":17059:17098   */\n      tag_359\n        /* \"#utility.yul\":17089:17097   */\n      dup7\n        /* \"#utility.yul\":17078:17087   */\n      dup4\n        /* \"#utility.yul\":17059:17098   */\n      tag_186\n      jump\t// in\n    tag_359:\n        /* \"#utility.yul\":17047:17098   */\n      swap6\n      pop\n        /* \"#utility.yul\":17131:17135   */\n      dup1\n        /* \"#utility.yul\":17127:17136   */\n      not\n        /* \"#utility.yul\":17120:17125   */\n      dup5\n        /* \"#utility.yul\":17116:17137   */\n      and\n        /* \"#utility.yul\":17107:17137   */\n      swap4\n      pop\n        /* \"#utility.yul\":17180:17184   */\n      dup1\n        /* \"#utility.yul\":17170:17178   */\n      dup7\n        /* \"#utility.yul\":17166:17185   */\n      and\n        /* \"#utility.yul\":17159:17164   */\n      dup5\n        /* \"#utility.yul\":17156:17186   */\n      or\n        /* \"#utility.yul\":17146:17186   */\n      swap3\n      pop\n        /* \"#utility.yul\":16875:17192   */\n      pop\n      pop\n        /* \"#utility.yul\":16799:17192   */\n      swap4\n      swap3\n      pop\n      pop\n      pop\n      jump\t// out\n        /* \"#utility.yul\":17198:17258   */\n    tag_188:\n        /* \"#utility.yul\":17226:17229   */\n      0x00\n        /* \"#utility.yul\":17247:17252   */\n      dup2\n        /* \"#utility.yul\":17240:17252   */\n      swap1\n      pop\n        /* \"#utility.yul\":17198:17258   */\n      swap2\n      swap1\n      pop\n      jump\t// out\n        /* \"#utility.yul\":17264:17406   */\n    tag_189:\n        /* \"#utility.yul\":17314:17323   */\n      0x00\n        /* \"#utility.yul\":17347:17400   */\n      tag_362\n        /* \"#utility.yul\":17365:17399   */\n      tag_363\n        /* \"#utility.yul\":17374:17398   */\n      tag_364\n        /* \"#utility.yul\":17392:17397   */\n      dup5\n        /* \"#utility.yul\":17374:17398   */\n      tag_159\n      jump\t// in\n    tag_364:\n        /* \"#utility.yul\":17365:17399   */\n      tag_188\n      jump\t// in\n    tag_363:\n        /* \"#utility.yul\":17347:17400   */\n      tag_159\n      jump\t// in\n    tag_362:\n        /* \"#utility.yul\":17334:17400   */\n      swap1\n      pop\n        /* \"#utility.yul\":17264:17406   */\n      swap2\n      swap1\n      pop\n      jump\t// out\n        /* \"#utility.yul\":17412:17487   */\n    tag_190:\n        /* \"#utility.yul\":17455:17458   */\n      0x00\n        /* \"#utility.yul\":17476:17481   */\n      dup2\n        /* \"#utility.yul\":17469:17481   */\n      swap1\n      pop\n        /* \"#utility.yul\":17412:17487   */\n      swap2\n      swap1\n      pop\n      jump\t// out\n        /* \"#utility.yul\":17493:17762   */\n    tag_191:\n        /* \"#utility.yul\":17603:17642   */\n      tag_367\n        /* \"#utility.yul\":17634:17641   */\n      dup4\n        /* \"#utility.yul\":17603:17642   */\n      tag_189\n      jump\t// in\n    tag_367:\n        /* \"#utility.yul\":17664:17755   */\n      tag_368\n        /* \"#utility.yul\":17713:17754   */\n      tag_369\n        /* \"#utility.yul\":17737:17753   */\n      dup3\n        /* \"#utility.yul\":17713:17754   */\n      tag_190\n      jump\t// in\n    tag_369:\n        /* \"#utility.yul\":17705:17711   */\n      dup5\n        /* \"#utility.yul\":17698:17702   */\n      dup5\n        /* \"#utility.yul\":17692:17703   */\n      sload\n        /* \"#utility.yul\":17664:17755   */\n      tag_187\n      jump\t// in\n    tag_368:\n        /* \"#utility.yul\":17658:17662   */\n      dup3\n        /* \"#utility.yul\":17651:17756   */\n      sstore\n        /* \"#utility.yul\":17569:17762   */\n      pop\n        /* \"#utility.yul\":17493:17762   */\n      pop\n      pop\n      pop\n      jump\t// out\n        /* \"#utility.yul\":17768:17841   */\n    tag_192:\n        /* \"#utility.yul\":17813:17816   */\n      0x00\n        /* \"#utility.yul\":17768:17841   */\n      swap1\n      jump\t// out\n        /* \"#utility.yul\":17847:18036   */\n    tag_193:\n        /* \"#utility.yul\":17924:17956   */\n      tag_372\n      tag_192\n      jump\t// in\n    tag_372:\n        /* \"#utility.yul\":17965:18030   */\n      tag_373\n        /* \"#utility.yul\":18023:18029   */\n      dup2\n        /* \"#utility.yul\":18015:18021   */\n      dup5\n        /* \"#utility.yul\":18009:18013   */\n      dup5\n        /* \"#utility.yul\":17965:18030   */\n      tag_191\n      jump\t// in\n    tag_373:\n        /* \"#utility.yul\":17900:18036   */\n      pop\n        /* \"#utility.yul\":17847:18036   */\n      pop\n      pop\n      jump\t// out\n        /* \"#utility.yul\":18042:18228   */\n    tag_194:\n        /* \"#utility.yul\":18102:18222   */\n    tag_375:\n        /* \"#utility.yul\":18119:18122   */\n      dup2\n        /* \"#utility.yul\":18112:18117   */\n      dup2\n        /* \"#utility.yul\":18109:18123   */\n      lt\n        /* \"#utility.yul\":18102:18222   */\n      iszero\n      tag_377\n      jumpi\n        /* \"#utility.yul\":18173:18212   */\n      tag_378\n        /* \"#utility.yul\":18210:18211   */\n      0x00\n        /* \"#utility.yul\":18203:18208   */\n      dup3\n        /* \"#utility.yul\":18173:18212   */\n      tag_193\n      jump\t// in\n    tag_378:\n        /* \"#utility.yul\":18146:18147   */\n      0x01\n        /* \"#utility.yul\":18139:18144   */\n      dup2\n        /* \"#utility.yul\":18135:18148   */\n      add\n        /* \"#utility.yul\":18126:18148   */\n      swap1\n      pop\n        /* \"#utility.yul\":18102:18222   */\n      jump(tag_375)\n    tag_377:\n        /* \"#utility.yul\":18042:18228   */\n      pop\n      pop\n      jump\t// out\n        /* \"#utility.yul\":18234:18777   */\n    tag_195:\n        /* \"#utility.yul\":18335:18337   */\n      0x1f\n        /* \"#utility.yul\":18330:18333   */\n      dup3\n        /* \"#utility.yul\":18327:18338   */\n      gt\n        /* \"#utility.yul\":18324:18770   */\n      iszero\n      tag_380\n      jumpi\n        /* \"#utility.yul\":18369:18407   */\n      tag_381\n        /* \"#utility.yul\":18401:18406   */\n      dup2\n        /* \"#utility.yul\":18369:18407   */\n      tag_184\n      jump\t// in\n    tag_381:\n        /* \"#utility.yul\":18453:18482   */\n      tag_382\n        /* \"#utility.yul\":18471:18481   */\n      dup5\n        /* \"#utility.yul\":18453:18482   */\n      tag_185\n      jump\t// in\n    tag_382:\n        /* \"#utility.yul\":18443:18451   */\n      dup2\n        /* \"#utility.yul\":18439:18483   */\n      add\n        /* \"#utility.yul\":18636:18638   */\n      0x20\n        /* \"#utility.yul\":18624:18634   */\n      dup6\n        /* \"#utility.yul\":18621:18639   */\n      lt\n        /* \"#utility.yul\":18618:18667   */\n      iszero\n      tag_383\n      jumpi\n        /* \"#utility.yul\":18657:18665   */\n      dup2\n        /* \"#utility.yul\":18642:18665   */\n      swap1\n      pop\n        /* \"#utility.yul\":18618:18667   */\n    tag_383:\n        /* \"#utility.yul\":18680:18760   */\n      tag_384\n        /* \"#utility.yul\":18736:18758   */\n      tag_385\n        /* \"#utility.yul\":18754:18757   */\n      dup6\n        /* \"#utility.yul\":18736:18758   */\n      tag_185\n      jump\t// in\n    tag_385:\n        /* \"#utility.yul\":18726:18734   */\n      dup4\n        /* \"#utility.yul\":18722:18759   */\n      add\n        /* \"#utility.yul\":18709:18720   */\n      dup3\n        /* \"#utility.yul\":18680:18760   */\n      tag_194\n      jump\t// in\n    tag_384:\n        /* \"#utility.yul\":18339:18770   */\n      pop\n      pop\n        /* \"#utility.yul\":18324:18770   */\n    tag_380:\n        /* \"#utility.yul\":18234:18777   */\n      pop\n      pop\n      pop\n      jump\t// out\n        /* \"#utility.yul\":18783:18900   */\n    tag_196:\n        /* \"#utility.yul\":18837:18845   */\n      0x00\n        /* \"#utility.yul\":18887:18892   */\n      dup3\n        /* \"#utility.yul\":18881:18885   */\n      dup3\n        /* \"#utility.yul\":18877:18893   */\n      shr\n        /* \"#utility.yul\":18856:18893   */\n      swap1\n      pop\n        /* \"#utility.yul\":18783:18900   */\n      swap3\n      swap2\n      pop\n      pop\n      jump\t// out\n        /* \"#utility.yul\":18906:19075   */\n    tag_197:\n        /* \"#utility.yul\":18950:18956   */\n      0x00\n        /* \"#utility.yul\":18983:19034   */\n      tag_388\n        /* \"#utility.yul\":19031:19032   */\n      0x00\n        /* \"#utility.yul\":19027:19033   */\n      not\n        /* \"#utility.yul\":19019:19024   */\n      dup5\n        /* \"#utility.yul\":19016:19017   */\n      0x08\n        /* \"#utility.yul\":19012:19025   */\n      mul\n        /* \"#utility.yul\":18983:19034   */\n      tag_196\n      jump\t// in\n    tag_388:\n        /* \"#utility.yul\":18979:19035   */\n      not\n        /* \"#utility.yul\":19064:19068   */\n      dup1\n        /* \"#utility.yul\":19058:19062   */\n      dup4\n        /* \"#utility.yul\":19054:19069   */\n      and\n        /* \"#utility.yul\":19044:19069   */\n      swap2\n      pop\n        /* \"#utility.yul\":18957:19075   */\n      pop\n        /* \"#utility.yul\":18906:19075   */\n      swap3\n      swap2\n      pop\n      pop\n      jump\t// out\n        /* \"#utility.yul\":19080:19375   */\n    tag_198:\n        /* \"#utility.yul\":19156:19160   */\n      0x00\n        /* \"#utility.yul\":19302:19331   */\n      tag_390\n        /* \"#utility.yul\":19327:19330   */\n      dup4\n        /* \"#utility.yul\":19321:19325   */\n      dup4\n        /* \"#utility.yul\":19302:19331   */\n      tag_197\n      jump\t// in\n    tag_390:\n        /* \"#utility.yul\":19294:19331   */\n      swap2\n      pop\n        /* \"#utility.yul\":19364:19367   */\n      dup3\n        /* \"#utility.yul\":19361:19362   */\n      0x02\n        /* \"#utility.yul\":19357:19368   */\n      mul\n        /* \"#utility.yul\":19351:19355   */\n      dup3\n        /* \"#utility.yul\":19348:19369   */\n      or\n        /* \"#utility.yul\":19340:19369   */\n      swap1\n      pop\n        /* \"#utility.yul\":19080:19375   */\n      swap3\n      swap2\n      pop\n      pop\n      jump\t// out\n        /* \"#utility.yul\":19380:20775   */\n    tag_50:\n        /* \"#utility.yul\":19497:19534   */\n      tag_392\n        /* \"#utility.yul\":19530:19533   */\n      dup3\n        /* \"#utility.yul\":19497:19534   */\n      tag_162\n      jump\t// in\n    tag_392:\n        /* \"#utility.yul\":19599:19617   */\n      0xffffffffffffffff\n        /* \"#utility.yul\":19591:19597   */\n      dup2\n        /* \"#utility.yul\":19588:19618   */\n      gt\n        /* \"#utility.yul\":19585:19641   */\n      iszero\n      tag_393\n      jumpi\n        /* \"#utility.yul\":19621:19639   */\n      tag_394\n      tag_152\n      jump\t// in\n    tag_394:\n        /* \"#utility.yul\":19585:19641   */\n    tag_393:\n        /* \"#utility.yul\":19665:19703   */\n      tag_395\n        /* \"#utility.yul\":19697:19701   */\n      dup3\n        /* \"#utility.yul\":19691:19702   */\n      sload\n        /* \"#utility.yul\":19665:19703   */\n      tag_55\n      jump\t// in\n    tag_395:\n        /* \"#utility.yul\":19750:19817   */\n      tag_396\n        /* \"#utility.yul\":19810:19816   */\n      dup3\n        /* \"#utility.yul\":19802:19808   */\n      dup3\n        /* \"#utility.yul\":19796:19800   */\n      dup6\n        /* \"#utility.yul\":19750:19817   */\n      tag_195\n      jump\t// in\n    tag_396:\n        /* \"#utility.yul\":19844:19845   */\n      0x00\n        /* \"#utility.yul\":19868:19872   */\n      0x20\n        /* \"#utility.yul\":19855:19872   */\n      swap1\n      pop\n        /* \"#utility.yul\":19900:19902   */\n      0x1f\n        /* \"#utility.yul\":19892:19898   */\n      dup4\n        /* \"#utility.yul\":19889:19903   */\n      gt\n        /* \"#utility.yul\":19917:19918   */\n      0x01\n        /* \"#utility.yul\":19912:20530   */\n      dup2\n      eq\n      tag_398\n      jumpi\n        /* \"#utility.yul\":20574:20575   */\n      0x00\n        /* \"#utility.yul\":20591:20597   */\n      dup5\n        /* \"#utility.yul\":20588:20665   */\n      iszero\n      tag_399\n      jumpi\n        /* \"#utility.yul\":20640:20649   */\n      dup3\n        /* \"#utility.yul\":20635:20638   */\n      dup8\n        /* \"#utility.yul\":20631:20650   */\n      add\n        /* \"#utility.yul\":20625:20651   */\n      mload\n        /* \"#utility.yul\":20616:20651   */\n      swap1\n      pop\n        /* \"#utility.yul\":20588:20665   */\n    tag_399:\n        /* \"#utility.yul\":20691:20758   */\n      tag_400\n        /* \"#utility.yul\":20751:20757   */\n      dup6\n        /* \"#utility.yul\":20744:20749   */\n      dup3\n        /* \"#utility.yul\":20691:20758   */\n      tag_198\n      jump\t// in\n    tag_400:\n        /* \"#utility.yul\":20685:20689   */\n      dup7\n        /* \"#utility.yul\":20678:20759   */\n      sstore\n        /* \"#utility.yul\":20547:20769   */\n      pop\n        /* \"#utility.yul\":19882:20769   */\n      jump(tag_397)\n        /* \"#utility.yul\":19912:20530   */\n    tag_398:\n        /* \"#utility.yul\":19964:19968   */\n      0x1f\n        /* \"#utility.yul\":19960:19969   */\n      not\n        /* \"#utility.yul\":19952:19958   */\n      dup5\n        /* \"#utility.yul\":19948:19970   */\n      and\n        /* \"#utility.yul\":19998:20035   */\n      tag_401\n        /* \"#utility.yul\":20030:20034   */\n      dup7\n        /* \"#utility.yul\":19998:20035   */\n      tag_184\n      jump\t// in\n    tag_401:\n        /* \"#utility.yul\":20057:20058   */\n      0x00\n        /* \"#utility.yul\":20071:20279   */\n    tag_402:\n        /* \"#utility.yul\":20085:20092   */\n      dup3\n        /* \"#utility.yul\":20082:20083   */\n      dup2\n        /* \"#utility.yul\":20079:20093   */\n      lt\n        /* \"#utility.yul\":20071:20279   */\n      iszero\n      tag_404\n      jumpi\n        /* \"#utility.yul\":20164:20173   */\n      dup5\n        /* \"#utility.yul\":20159:20162   */\n      dup10\n        /* \"#utility.yul\":20155:20174   */\n      add\n        /* \"#utility.yul\":20149:20175   */\n      mload\n        /* \"#utility.yul\":20141:20147   */\n      dup3\n        /* \"#utility.yul\":20134:20176   */\n      sstore\n        /* \"#utility.yul\":20215:20216   */\n      0x01\n        /* \"#utility.yul\":20207:20213   */\n      dup3\n        /* \"#utility.yul\":20203:20217   */\n      add\n        /* \"#utility.yul\":20193:20217   */\n      swap2\n      pop\n        /* \"#utility.yul\":20262:20264   */\n      0x20\n        /* \"#utility.yul\":20251:20260   */\n      dup6\n        /* \"#utility.yul\":20247:20265   */\n      add\n        /* \"#utility.yul\":20234:20265   */\n      swap5\n      pop\n        /* \"#utility.yul\":20108:20112   */\n      0x20\n        /* \"#utility.yul\":20105:20106   */\n      dup2\n        /* \"#utility.yul\":20101:20113   */\n      add\n        /* \"#utility.yul\":20096:20113   */\n      swap1\n      pop\n        /* \"#utility.yul\":20071:20279   */\n      jump(tag_402)\n    tag_404:\n        /* \"#utility.yul\":20307:20313   */\n      dup7\n        /* \"#utility.yul\":20298:20305   */\n      dup4\n        /* \"#utility.yul\":20295:20314   */\n      lt\n        /* \"#utility.yul\":20292:20471   */\n      iszero\n      tag_405\n      jumpi\n        /* \"#utility.yul\":20365:20374   */\n      dup5\n        /* \"#utility.yul\":20360:20363   */\n      dup10\n        /* \"#utility.yul\":20356:20375   */\n      add\n        /* \"#utility.yul\":20350:20376   */\n      mload\n        /* \"#utility.yul\":20408:20456   */\n      tag_406\n        /* \"#utility.yul\":20450:20454   */\n      0x1f\n        /* \"#utility.yul\":20442:20448   */\n      dup10\n        /* \"#utility.yul\":20438:20455   */\n      and\n        /* \"#utility.yul\":20427:20436   */\n      dup3\n        /* \"#utility.yul\":20408:20456   */\n      tag_197\n      jump\t// in\n    tag_406:\n        /* \"#utility.yul\":20400:20406   */\n      dup4\n        /* \"#utility.yul\":20393:20457   */\n      sstore\n        /* \"#utility.yul\":20315:20471   */\n      pop\n        /* \"#utility.yul\":20292:20471   */\n    tag_405:\n        /* \"#utility.yul\":20517:20518   */\n      0x01\n        /* \"#utility.yul\":20513:20514   */\n      0x02\n        /* \"#utility.yul\":20505:20511   */\n      dup9\n        /* \"#utility.yul\":20501:20515   */\n      mul\n        /* \"#utility.yul\":20497:20519   */\n      add\n        /* \"#utility.yul\":20491:20495   */\n      dup9\n        /* \"#utility.yul\":20484:20520   */\n      sstore\n        /* \"#utility.yul\":19919:20530   */\n      pop\n      pop\n      pop\n        /* \"#utility.yul\":19882:20769   */\n    tag_397:\n      pop\n        /* \"#utility.yul\":19472:20775   */\n      pop\n      pop\n      pop\n        /* \"#utility.yul\":19380:20775   */\n      pop\n      pop\n      jump\t// out\n        /* \"#utility.yul\":20781:21295   */\n    tag_53:\n        /* \"#utility.yul\":20942:20946   */\n      0x00\n        /* \"#utility.yul\":20980:20982   */\n      0x40\n        /* \"#utility.yul\":20969:20978   */\n      dup3\n        /* \"#utility.yul\":20965:20983   */\n      add\n        /* \"#utility.yul\":20957:20983   */\n      swap1\n      pop\n        /* \"#utility.yul\":21029:21038   */\n      dup2\n        /* \"#utility.yul\":21023:21027   */\n      dup2\n        /* \"#utility.yul\":21019:21039   */\n      sub\n        /* \"#utility.yul\":21015:21016   */\n      0x00\n        /* \"#utility.yul\":21004:21013   */\n      dup4\n        /* \"#utility.yul\":21000:21017   */\n      add\n        /* \"#utility.yul\":20993:21040   */\n      mstore\n        /* \"#utility.yul\":21057:21135   */\n      tag_408\n        /* \"#utility.yul\":21130:21134   */\n      dup2\n        /* \"#utility.yul\":21121:21127   */\n      dup6\n        /* \"#utility.yul\":21057:21135   */\n      tag_165\n      jump\t// in\n    tag_408:\n        /* \"#utility.yul\":21049:21135   */\n      swap1\n      pop\n        /* \"#utility.yul\":21182:21191   */\n      dup2\n        /* \"#utility.yul\":21176:21180   */\n      dup2\n        /* \"#utility.yul\":21172:21192   */\n      sub\n        /* \"#utility.yul\":21167:21169   */\n      0x20\n        /* \"#utility.yul\":21156:21165   */\n      dup4\n        /* \"#utility.yul\":21152:21170   */\n      add\n        /* \"#utility.yul\":21145:21193   */\n      mstore\n        /* \"#utility.yul\":21210:21288   */\n      tag_409\n        /* \"#utility.yul\":21283:21287   */\n      dup2\n        /* \"#utility.yul\":21274:21280   */\n      dup5\n        /* \"#utility.yul\":21210:21288   */\n      tag_165\n      jump\t// in\n    tag_409:\n        /* \"#utility.yul\":21202:21288   */\n      swap1\n      pop\n        /* \"#utility.yul\":20781:21295   */\n      swap4\n      swap3\n      pop\n      pop\n      pop\n      jump\t// out\n        /* \"#utility.yul\":21301:21523   */\n    tag_199:\n        /* \"#utility.yul\":21441:21475   */\n      0x4f6e6c7920726567697374657265642075736572732063616e2061646420626f\n        /* \"#utility.yul\":21437:21438   */\n      0x00\n        /* \"#utility.yul\":21429:21435   */\n      dup3\n        /* \"#utility.yul\":21425:21439   */\n      add\n        /* \"#utility.yul\":21418:21476   */\n      mstore\n        /* \"#utility.yul\":21510:21515   */\n      0x6f6b730000000000000000000000000000000000000000000000000000000000\n        /* \"#utility.yul\":21505:21507   */\n      0x20\n        /* \"#utility.yul\":21497:21503   */\n      dup3\n        /* \"#utility.yul\":21493:21508   */\n      add\n        /* \"#utility.yul\":21486:21516   */\n      mstore\n        /* \"#utility.yul\":21301:21523   */\n      pop\n      jump\t// out\n        /* \"#utility.yul\":21529:21895   */\n    tag_200:\n        /* \"#utility.yul\":21671:21674   */\n      0x00\n        /* \"#utility.yul\":21692:21759   */\n      tag_412\n        /* \"#utility.yul\":21756:21758   */\n      0x23\n        /* \"#utility.yul\":21751:21754   */\n      dup4\n        /* \"#utility.yul\":21692:21759   */\n      tag_163\n      jump\t// in\n    tag_412:\n        /* \"#utility.yul\":21685:21759   */\n      swap2\n      pop\n        /* \"#utility.yul\":21768:21861   */\n      tag_413\n        /* \"#utility.yul\":21857:21860   */\n      dup3\n        /* \"#utility.yul\":21768:21861   */\n      tag_199\n      jump\t// in\n    tag_413:\n        /* \"#utility.yul\":21886:21888   */\n      0x40\n        /* \"#utility.yul\":21881:21884   */\n      dup3\n        /* \"#utility.yul\":21877:21889   */\n      add\n        /* \"#utility.yul\":21870:21889   */\n      swap1\n      pop\n        /* \"#utility.yul\":21529:21895   */\n      swap2\n      swap1\n      pop\n      jump\t// out\n        /* \"#utility.yul\":21901:22320   */\n    tag_96:\n        /* \"#utility.yul\":22067:22071   */\n      0x00\n        /* \"#utility.yul\":22105:22107   */\n      0x20\n        /* \"#utility.yul\":22094:22103   */\n      dup3\n        /* \"#utility.yul\":22090:22108   */\n      add\n        /* \"#utility.yul\":22082:22108   */\n      swap1\n      pop\n        /* \"#utility.yul\":22154:22163   */\n      dup2\n        /* \"#utility.yul\":22148:22152   */\n      dup2\n        /* \"#utility.yul\":22144:22164   */\n      sub\n        /* \"#utility.yul\":22140:22141   */\n      0x00\n        /* \"#utility.yul\":22129:22138   */\n      dup4\n        /* \"#utility.yul\":22125:22142   */\n      add\n        /* \"#utility.yul\":22118:22165   */\n      mstore\n        /* \"#utility.yul\":22182:22313   */\n      tag_415\n        /* \"#utility.yul\":22308:22312   */\n      dup2\n        /* \"#utility.yul\":22182:22313   */\n      tag_200\n      jump\t// in\n    tag_415:\n        /* \"#utility.yul\":22174:22313   */\n      swap1\n      pop\n        /* \"#utility.yul\":21901:22320   */\n      swap2\n      swap1\n      pop\n      jump\t// out\n        /* \"#utility.yul\":22326:22506   */\n    tag_201:\n        /* \"#utility.yul\":22374:22451   */\n      0x4e487b7100000000000000000000000000000000000000000000000000000000\n        /* \"#utility.yul\":22371:22372   */\n      0x00\n        /* \"#utility.yul\":22364:22452   */\n      mstore\n        /* \"#utility.yul\":22471:22475   */\n      0x11\n        /* \"#utility.yul\":22468:22469   */\n      0x04\n        /* \"#utility.yul\":22461:22476   */\n      mstore\n        /* \"#utility.yul\":22495:22499   */\n      0x24\n        /* \"#utility.yul\":22492:22493   */\n      0x00\n        /* \"#utility.yul\":22485:22500   */\n      revert\n        /* \"#utility.yul\":22512:22745   */\n    tag_98:\n        /* \"#utility.yul\":22551:22554   */\n      0x00\n        /* \"#utility.yul\":22574:22598   */\n      tag_418\n        /* \"#utility.yul\":22592:22597   */\n      dup3\n        /* \"#utility.yul\":22574:22598   */\n      tag_159\n      jump\t// in\n    tag_418:\n        /* \"#utility.yul\":22565:22598   */\n      swap2\n      pop\n        /* \"#utility.yul\":22620:22686   */\n      0xffffffffffffffffffffffffffffffffffffffffffffffffffffffffffffffff\n        /* \"#utility.yul\":22613:22618   */\n      dup3\n        /* \"#utility.yul\":22610:22687   */\n      sub\n        /* \"#utility.yul\":22607:22710   */\n      tag_419\n      jumpi\n        /* \"#utility.yul\":22690:22708   */\n      tag_420\n      tag_201\n      jump\t// in\n    tag_420:\n        /* \"#utility.yul\":22607:22710   */\n    tag_419:\n        /* \"#utility.yul\":22737:22738   */\n      0x01\n        /* \"#utility.yul\":22730:22735   */\n      dup3\n        /* \"#utility.yul\":22726:22739   */\n      add\n        /* \"#utility.yul\":22719:22739   */\n      swap1\n      pop\n        /* \"#utility.yul\":22512:22745   */\n      swap2\n      swap1\n      pop\n      jump\t// out\n        /* \"#utility.yul\":22751:22920   */\n    tag_202:\n        /* \"#utility.yul\":22891:22912   */\n      0x426f6f6b20646f6573206e6f7420657869737400000000000000000000000000\n        /* \"#utility.yul\":22887:22888   */\n      0x00\n        /* \"#utility.yul\":22879:22885   */\n      dup3\n        /* \"#utility.yul\":22875:22889   */\n      add\n        /* \"#utility.yul\":22868:22913   */\n      mstore\n        /* \"#utility.yul\":22751:22920   */\n      pop\n      jump\t// out\n        /* \"#utility.yul\":22926:23292   */\n    tag_203:\n        /* \"#utility.yul\":23068:23071   */\n      0x00\n        /* \"#utility.yul\":23089:23156   */\n      tag_423\n        /* \"#utility.yul\":23153:23155   */\n      0x13\n        /* \"#utility.yul\":23148:23151   */\n      dup4\n        /* \"#utility.yul\":23089:23156   */\n      tag_163\n      jump\t// in\n    tag_423:\n        /* \"#utility.yul\":23082:23156   */\n      swap2\n      pop\n        /* \"#utility.yul\":23165:23258   */\n      tag_424\n        /* \"#utility.yul\":23254:23257   */\n      dup3\n        /* \"#utility.yul\":23165:23258   */\n      tag_202\n      jump\t// in\n    tag_424:\n        /* \"#utility.yul\":23283:23285   */\n      0x20\n        /* \"#utility.yul\":23278:23281   */\n      dup3\n        /* \"#utility.yul\":23274:23286   */\n      add\n        /* \"#utility.yul\":23267:23286   */\n      swap1\n      pop\n        /* \"#utility.yul\":22926:23292   */\n      swap2\n      swap1\n      pop\n      jump\t// out\n        /* \"#utility.yul\":23298:23717   */\n    tag_120:\n        /* \"#utility.yul\":23464:23468   */\n      0x00\n        /* \"#utility.yul\":23502:23504   */\n      0x20\n        /* \"#utility.yul\":23491:23500   */\n      dup3\n        /* \"#utility.yul\":23487:23505   */\n      add\n        /* \"#utility.yul\":23479:23505   */\n      swap1\n      pop\n        /* \"#utility.yul\":23551:23560   */\n      dup2\n        /* \"#utility.yul\":23545:23549   */\n      dup2\n        /* \"#utility.yul\":23541:23561   */\n      sub\n        /* \"#utility.yul\":23537:23538   */\n      0x00\n        /* \"#utility.yul\":23526:23535   */\n      dup4\n        /* \"#utility.yul\":23522:23539   */\n      add\n        /* \"#utility.yul\":23515:23562   */\n      mstore\n        /* \"#utility.yul\":23579:23710   */\n      tag_426\n        /* \"#utility.yul\":23705:23709   */\n      dup2\n        /* \"#utility.yul\":23579:23710   */\n      tag_203\n      jump\t// in\n    tag_426:\n        /* \"#utility.yul\":23571:23710   */\n      swap1\n      pop\n        /* \"#utility.yul\":23298:23717   */\n      swap2\n      swap1\n      pop\n      jump\t// out\n\n    auxdata: 0xa26469706673582212206c373670b58dfb6e374a9e2a4ca13252381415457493a16fced9fc5aead519fc64736f6c634300081a0033\n}\n",
				"bytecode": {
					"linkReferences": {},
					"object": "6080604052348015600e575f80fd5b50611b9e8061001c5f395ff3fe608060405234801561000f575f80fd5b506004361061007b575f3560e01c806384cba8d81161005957806384cba8d814610101578063a87430ba1461011d578063b905ad7814610150578063e0ff5b8b1461016e5761007b565b80631d2e4afd1461007f578063687440461461009b5780636f77926b146100d1575b5f80fd5b610099600480360381019061009491906110c7565b61019e565b005b6100b560048036038101906100b09190611170565b610386565b6040516100c89796959493929190611224565b60405180910390f35b6100eb60048036038101906100e6919061130e565b61066e565b6040516100f89190611406565b60405180910390f35b61011b60048036038101906101169190611426565b610852565b005b6101376004803603810190610132919061130e565b610a19565b604051610147949392919061154a565b60405180910390f35b610158610b7b565b604051610165919061159b565b60405180910390f35b61018860048036038101906101839190611170565b610b81565b6040516101959190611678565b60405180910390f35b5f803373ffffffffffffffffffffffffffffffffffffffff1673ffffffffffffffffffffffffffffffffffffffff1681526020019081526020015f206002015f9054906101000a900460ff161561022a576040517f08c379a0000000000000000000000000000000000000000000000000000000008152600401610221906116e2565b60405180910390fd5b60405180608001604052803373ffffffffffffffffffffffffffffffffffffffff168152602001838152602001600115158152602001828152505f803373ffffffffffffffffffffffffffffffffffffffff1673ffffffffffffffffffffffffffffffffffffffff1681526020019081526020015f205f820151815f015f6101000a81548173ffffffffffffffffffffffffffffffffffffffff021916908373ffffffffffffffffffffffffffffffffffffffff16021790555060208201518160010190816102f991906118fa565b506040820151816002015f6101000a81548160ff021916908315150217905550606082015181600301908161032e91906118fa565b509050503373ffffffffffffffffffffffffffffffffffffffff167f92822564bab8864c3a47b34e8d23fbce5c46234eb5da261f94087b995ac0f33b838360405161037a9291906119c9565b60405180910390a25050565b6001602052805f5260405f205f91509050805f0180546103a59061172d565b80601f01602080910402602001604051908101604052809291908181526020018280546103d19061172d565b801561041c5780601f106103f35761010080835404028352916020019161041c565b820191905f5260205f20905b8154815290600101906020018083116103ff57829003601f168201915b5050505050908060010180546104319061172d565b80601f016020809104026020016040519081016040528092919081815260200182805461045d9061172d565b80156104a85780601f1061047f576101008083540402835291602001916104a8565b820191905f5260205f20905b81548152906001019060200180831161048b57829003601f168201915b5050505050908060020180546104bd9061172d565b80601f01602080910402602001604051908101604052809291908181526020018280546104e99061172d565b80156105345780601f1061050b57610100808354040283529160200191610534565b820191905f5260205f20905b81548152906001019060200180831161051757829003601f168201915b5050505050908060030180546105499061172d565b80601f01602080910402602001604051908101604052809291908181526020018280546105759061172d565b80156105c05780601f10610597576101008083540402835291602001916105c0565b820191905f5260205f20905b8154815290600101906020018083116105a357829003601f168201915b5050505050908060040180546105d59061172d565b80601f01602080910402602001604051908101604052809291908181526020018280546106019061172d565b801561064c5780601f106106235761010080835404028352916020019161064c565b820191905f5260205f20905b81548152906001019060200180831161062f57829003601f168201915b505050505090806005015490806006015f9054906101000a900460ff16905087565b610676610eff565b5f808373ffffffffffffffffffffffffffffffffffffffff1673ffffffffffffffffffffffffffffffffffffffff1681526020019081526020015f206040518060800160405290815f82015f9054906101000a900473ffffffffffffffffffffffffffffffffffffffff1673ffffffffffffffffffffffffffffffffffffffff1673ffffffffffffffffffffffffffffffffffffffff1681526020016001820180546107219061172d565b80601f016020809104026020016040519081016040528092919081815260200182805461074d9061172d565b80156107985780601f1061076f57610100808354040283529160200191610798565b820191905f5260205f20905b81548152906001019060200180831161077b57829003601f168201915b50505050508152602001600282015f9054906101000a900460ff161515151581526020016003820180546107cb9061172d565b80601f01602080910402602001604051908101604052809291908181526020018280546107f79061172d565b80156108425780601f1061081957610100808354040283529160200191610842565b820191905f5260205f20905b81548152906001019060200180831161082557829003601f168201915b5050505050815250509050919050565b5f803373ffffffffffffffffffffffffffffffffffffffff1673ffffffffffffffffffffffffffffffffffffffff1681526020019081526020015f206002015f9054906101000a900460ff166108dd576040517f08c379a00000000000000000000000000000000000000000000000000000000081526004016108d490611a6e565b60405180910390fd5b60025f8154809291906108ef90611ab9565b91905055506040518060e001604052808781526020018681526020018581526020018481526020018381526020018281526020016001151581525060015f60025481526020019081526020015f205f820151815f01908161095091906118fa565b50602082015181600101908161096691906118fa565b50604082015181600201908161097c91906118fa565b50606082015181600301908161099291906118fa565b5060808201518160040190816109a891906118fa565b5060a0820151816005015560c0820151816006015f6101000a81548160ff0219169083151502179055509050506002547ff3af718913a5a546501afa100bc90d209d682ade91b77ac38ed42c6849230c3c8787604051610a099291906119c9565b60405180910390a2505050505050565b5f602052805f5260405f205f91509050805f015f9054906101000a900473ffffffffffffffffffffffffffffffffffffffff1690806001018054610a5c9061172d565b80601f0160208091040260200160405190810160405280929190818152602001828054610a889061172d565b8015610ad35780601f10610aaa57610100808354040283529160200191610ad3565b820191905f5260205f20905b815481529060010190602001808311610ab657829003601f168201915b505050505090806002015f9054906101000a900460ff1690806003018054610afa9061172d565b80601f0160208091040260200160405190810160405280929190818152602001828054610b269061172d565b8015610b715780601f10610b4857610100808354040283529160200191610b71565b820191905f5260205f20905b815481529060010190602001808311610b5457829003601f168201915b5050505050905084565b60025481565b610b89610f3d565b60015f8381526020019081526020015f206006015f9054906101000a900460ff16610be9576040517f08c379a0000000000000000000000000000000000000000000000000000000008152600401610be090611b4a565b60405180910390fd5b60015f8381526020019081526020015f206040518060e00160405290815f82018054610c149061172d565b80601f0160208091040260200160405190810160405280929190818152602001828054610c409061172d565b8015610c8b5780601f10610c6257610100808354040283529160200191610c8b565b820191905f5260205f20905b815481529060010190602001808311610c6e57829003601f168201915b50505050508152602001600182018054610ca49061172d565b80601f0160208091040260200160405190810160405280929190818152602001828054610cd09061172d565b8015610d1b5780601f10610cf257610100808354040283529160200191610d1b565b820191905f5260205f20905b815481529060010190602001808311610cfe57829003601f168201915b50505050508152602001600282018054610d349061172d565b80601f0160208091040260200160405190810160405280929190818152602001828054610d609061172d565b8015610dab5780601f10610d8257610100808354040283529160200191610dab565b820191905f5260205f20905b815481529060010190602001808311610d8e57829003601f168201915b50505050508152602001600382018054610dc49061172d565b80601f0160208091040260200160405190810160405280929190818152602001828054610df09061172d565b8015610e3b5780601f10610e1257610100808354040283529160200191610e3b565b820191905f5260205f20905b815481529060010190602001808311610e1e57829003601f168201915b50505050508152602001600482018054610e549061172d565b80601f0160208091040260200160405190810160405280929190818152602001828054610e809061172d565b8015610ecb5780601f10610ea257610100808354040283529160200191610ecb565b820191905f5260205f20905b815481529060010190602001808311610eae57829003601f168201915b5050505050815260200160058201548152602001600682015f9054906101000a900460ff1615151515815250509050919050565b60405180608001604052805f73ffffffffffffffffffffffffffffffffffffffff168152602001606081526020015f15158152602001606081525090565b6040518060e0016040528060608152602001606081526020016060815260200160608152602001606081526020015f81526020015f151581525090565b5f604051905090565b5f80fd5b5f80fd5b5f80fd5b5f80fd5b5f601f19601f8301169050919050565b7f4e487b71000000000000000000000000000000000000000000000000000000005f52604160045260245ffd5b610fd982610f93565b810181811067ffffffffffffffff82111715610ff857610ff7610fa3565b5b80604052505050565b5f61100a610f7a565b90506110168282610fd0565b919050565b5f67ffffffffffffffff82111561103557611034610fa3565b5b61103e82610f93565b9050602081019050919050565b828183375f83830152505050565b5f61106b6110668461101b565b611001565b90508281526020810184848401111561108757611086610f8f565b5b61109284828561104b565b509392505050565b5f82601f8301126110ae576110ad610f8b565b5b81356110be848260208601611059565b91505092915050565b5f80604083850312156110dd576110dc610f83565b5b5f83013567ffffffffffffffff8111156110fa576110f9610f87565b5b6111068582860161109a565b925050602083013567ffffffffffffffff81111561112757611126610f87565b5b6111338582860161109a565b9150509250929050565b5f819050919050565b61114f8161113d565b8114611159575f80fd5b50565b5f8135905061116a81611146565b92915050565b5f6020828403121561118557611184610f83565b5b5f6111928482850161115c565b91505092915050565b5f81519050919050565b5f82825260208201905092915050565b8281835e5f83830152505050565b5f6111cd8261119b565b6111d781856111a5565b93506111e78185602086016111b5565b6111f081610f93565b840191505092915050565b6112048161113d565b82525050565b5f8115159050919050565b61121e8161120a565b82525050565b5f60e0820190508181035f83015261123c818a6111c3565b9050818103602083015261125081896111c3565b9050818103604083015261126481886111c3565b9050818103606083015261127881876111c3565b9050818103608083015261128c81866111c3565b905061129b60a08301856111fb565b6112a860c0830184611215565b98975050505050505050565b5f73ffffffffffffffffffffffffffffffffffffffff82169050919050565b5f6112dd826112b4565b9050919050565b6112ed816112d3565b81146112f7575f80fd5b50565b5f81359050611308816112e4565b92915050565b5f6020828403121561132357611322610f83565b5b5f611330848285016112fa565b91505092915050565b611342816112d3565b82525050565b5f82825260208201905092915050565b5f6113628261119b565b61136c8185611348565b935061137c8185602086016111b5565b61138581610f93565b840191505092915050565b6113998161120a565b82525050565b5f608083015f8301516113b45f860182611339565b50602083015184820360208601526113cc8282611358565b91505060408301516113e16040860182611390565b50606083015184820360608601526113f98282611358565b9150508091505092915050565b5f6020820190508181035f83015261141e818461139f565b905092915050565b5f805f805f8060c087890312156114405761143f610f83565b5b5f87013567ffffffffffffffff81111561145d5761145c610f87565b5b61146989828a0161109a565b965050602087013567ffffffffffffffff81111561148a57611489610f87565b5b61149689828a0161109a565b955050604087013567ffffffffffffffff8111156114b7576114b6610f87565b5b6114c389828a0161109a565b945050606087013567ffffffffffffffff8111156114e4576114e3610f87565b5b6114f089828a0161109a565b935050608087013567ffffffffffffffff81111561151157611510610f87565b5b61151d89828a0161109a565b92505060a061152e89828a0161115c565b9150509295509295509295565b611544816112d3565b82525050565b5f60808201905061155d5f83018761153b565b818103602083015261156f81866111c3565b905061157e6040830185611215565b818103606083015261159081846111c3565b905095945050505050565b5f6020820190506115ae5f8301846111fb565b92915050565b6115bd8161113d565b82525050565b5f60e083015f8301518482035f8601526115dd8282611358565b915050602083015184820360208601526115f78282611358565b915050604083015184820360408601526116118282611358565b9150506060830151848203606086015261162b8282611358565b915050608083015184820360808601526116458282611358565b91505060a083015161165a60a08601826115b4565b5060c083015161166d60c0860182611390565b508091505092915050565b5f6020820190508181035f83015261169081846115c3565b905092915050565b7f5573657220616c726561647920726567697374657265640000000000000000005f82015250565b5f6116cc6017836111a5565b91506116d782611698565b602082019050919050565b5f6020820190508181035f8301526116f9816116c0565b9050919050565b7f4e487b71000000000000000000000000000000000000000000000000000000005f52602260045260245ffd5b5f600282049050600182168061174457607f821691505b60208210810361175757611756611700565b5b50919050565b5f819050815f5260205f209050919050565b5f6020601f8301049050919050565b5f82821b905092915050565b5f600883026117b97fffffffffffffffffffffffffffffffffffffffffffffffffffffffffffffffff8261177e565b6117c3868361177e565b95508019841693508086168417925050509392505050565b5f819050919050565b5f6117fe6117f96117f48461113d565b6117db565b61113d565b9050919050565b5f819050919050565b611817836117e4565b61182b61182382611805565b84845461178a565b825550505050565b5f90565b61183f611833565b61184a81848461180e565b505050565b5b8181101561186d576118625f82611837565b600181019050611850565b5050565b601f8211156118b2576118838161175d565b61188c8461176f565b8101602085101561189b578190505b6118af6118a78561176f565b83018261184f565b50505b505050565b5f82821c905092915050565b5f6118d25f19846008026118b7565b1980831691505092915050565b5f6118ea83836118c3565b9150826002028217905092915050565b6119038261119b565b67ffffffffffffffff81111561191c5761191b610fa3565b5b611926825461172d565b611931828285611871565b5f60209050601f831160018114611962575f8415611950578287015190505b61195a85826118df565b8655506119c1565b601f1984166119708661175d565b5f5b8281101561199757848901518255600182019150602085019450602081019050611972565b868310156119b457848901516119b0601f8916826118c3565b8355505b6001600288020188555050505b505050505050565b5f6040820190508181035f8301526119e181856111c3565b905081810360208301526119f581846111c3565b90509392505050565b7f4f6e6c7920726567697374657265642075736572732063616e2061646420626f5f8201527f6f6b730000000000000000000000000000000000000000000000000000000000602082015250565b5f611a586023836111a5565b9150611a63826119fe565b604082019050919050565b5f6020820190508181035f830152611a8581611a4c565b9050919050565b7f4e487b71000000000000000000000000000000000000000000000000000000005f52601160045260245ffd5b5f611ac38261113d565b91507fffffffffffffffffffffffffffffffffffffffffffffffffffffffffffffffff8203611af557611af4611a8c565b5b600182019050919050565b7f426f6f6b20646f6573206e6f74206578697374000000000000000000000000005f82015250565b5f611b346013836111a5565b9150611b3f82611b00565b602082019050919050565b5f6020820190508181035f830152611b6181611b28565b905091905056fea26469706673582212206c373670b58dfb6e374a9e2a4ca13252381415457493a16fced9fc5aead519fc64736f6c634300081a0033",
					"opcodes": "PUSH1 0x80 PUSH1 0x40 MSTORE CALLVALUE DUP1 ISZERO PUSH1 0xE JUMPI PUSH0 DUP1 REVERT JUMPDEST POP PUSH2 0x1B9E DUP1 PUSH2 0x1C PUSH0 CODECOPY PUSH0 RETURN INVALID PUSH1 0x80 PUSH1 0x40 MSTORE CALLVALUE DUP1 ISZERO PUSH2 0xF JUMPI PUSH0 DUP1 REVERT JUMPDEST POP PUSH1 0x4 CALLDATASIZE LT PUSH2 0x7B JUMPI PUSH0 CALLDATALOAD PUSH1 0xE0 SHR DUP1 PUSH4 0x84CBA8D8 GT PUSH2 0x59 JUMPI DUP1 PUSH4 0x84CBA8D8 EQ PUSH2 0x101 JUMPI DUP1 PUSH4 0xA87430BA EQ PUSH2 0x11D JUMPI DUP1 PUSH4 0xB905AD78 EQ PUSH2 0x150 JUMPI DUP1 PUSH4 0xE0FF5B8B EQ PUSH2 0x16E JUMPI PUSH2 0x7B JUMP JUMPDEST DUP1 PUSH4 0x1D2E4AFD EQ PUSH2 0x7F JUMPI DUP1 PUSH4 0x68744046 EQ PUSH2 0x9B JUMPI DUP1 PUSH4 0x6F77926B EQ PUSH2 0xD1 JUMPI JUMPDEST PUSH0 DUP1 REVERT JUMPDEST PUSH2 0x99 PUSH1 0x4 DUP1 CALLDATASIZE SUB DUP2 ADD SWAP1 PUSH2 0x94 SWAP2 SWAP1 PUSH2 0x10C7 JUMP JUMPDEST PUSH2 0x19E JUMP JUMPDEST STOP JUMPDEST PUSH2 0xB5 PUSH1 0x4 DUP1 CALLDATASIZE SUB DUP2 ADD SWAP1 PUSH2 0xB0 SWAP2 SWAP1 PUSH2 0x1170 JUMP JUMPDEST PUSH2 0x386 JUMP JUMPDEST PUSH1 0x40 MLOAD PUSH2 0xC8 SWAP8 SWAP7 SWAP6 SWAP5 SWAP4 SWAP3 SWAP2 SWAP1 PUSH2 0x1224 JUMP JUMPDEST PUSH1 0x40 MLOAD DUP1 SWAP2 SUB SWAP1 RETURN JUMPDEST PUSH2 0xEB PUSH1 0x4 DUP1 CALLDATASIZE SUB DUP2 ADD SWAP1 PUSH2 0xE6 SWAP2 SWAP1 PUSH2 0x130E JUMP JUMPDEST PUSH2 0x66E JUMP JUMPDEST PUSH1 0x40 MLOAD PUSH2 0xF8 SWAP2 SWAP1 PUSH2 0x1406 JUMP JUMPDEST PUSH1 0x40 MLOAD DUP1 SWAP2 SUB SWAP1 RETURN JUMPDEST PUSH2 0x11B PUSH1 0x4 DUP1 CALLDATASIZE SUB DUP2 ADD SWAP1 PUSH2 0x116 SWAP2 SWAP1 PUSH2 0x1426 JUMP JUMPDEST PUSH2 0x852 JUMP JUMPDEST STOP JUMPDEST PUSH2 0x137 PUSH1 0x4 DUP1 CALLDATASIZE SUB DUP2 ADD SWAP1 PUSH2 0x132 SWAP2 SWAP1 PUSH2 0x130E JUMP JUMPDEST PUSH2 0xA19 JUMP JUMPDEST PUSH1 0x40 MLOAD PUSH2 0x147 SWAP5 SWAP4 SWAP3 SWAP2 SWAP1 PUSH2 0x154A JUMP JUMPDEST PUSH1 0x40 MLOAD DUP1 SWAP2 SUB SWAP1 RETURN JUMPDEST PUSH2 0x158 PUSH2 0xB7B JUMP JUMPDEST PUSH1 0x40 MLOAD PUSH2 0x165 SWAP2 SWAP1 PUSH2 0x159B JUMP JUMPDEST PUSH1 0x40 MLOAD DUP1 SWAP2 SUB SWAP1 RETURN JUMPDEST PUSH2 0x188 PUSH1 0x4 DUP1 CALLDATASIZE SUB DUP2 ADD SWAP1 PUSH2 0x183 SWAP2 SWAP1 PUSH2 0x1170 JUMP JUMPDEST PUSH2 0xB81 JUMP JUMPDEST PUSH1 0x40 MLOAD PUSH2 0x195 SWAP2 SWAP1 PUSH2 0x1678 JUMP JUMPDEST PUSH1 0x40 MLOAD DUP1 SWAP2 SUB SWAP1 RETURN JUMPDEST PUSH0 DUP1 CALLER PUSH20 0xFFFFFFFFFFFFFFFFFFFFFFFFFFFFFFFFFFFFFFFF AND PUSH20 0xFFFFFFFFFFFFFFFFFFFFFFFFFFFFFFFFFFFFFFFF AND DUP2 MSTORE PUSH1 0x20 ADD SWAP1 DUP2 MSTORE PUSH1 0x20 ADD PUSH0 KECCAK256 PUSH1 0x2 ADD PUSH0 SWAP1 SLOAD SWAP1 PUSH2 0x100 EXP SWAP1 DIV PUSH1 0xFF AND ISZERO PUSH2 0x22A JUMPI PUSH1 0x40 MLOAD PUSH32 0x8C379A000000000000000000000000000000000000000000000000000000000 DUP2 MSTORE PUSH1 0x4 ADD PUSH2 0x221 SWAP1 PUSH2 0x16E2 JUMP JUMPDEST PUSH1 0x40 MLOAD DUP1 SWAP2 SUB SWAP1 REVERT JUMPDEST PUSH1 0x40 MLOAD DUP1 PUSH1 0x80 ADD PUSH1 0x40 MSTORE DUP1 CALLER PUSH20 0xFFFFFFFFFFFFFFFFFFFFFFFFFFFFFFFFFFFFFFFF AND DUP2 MSTORE PUSH1 0x20 ADD DUP4 DUP2 MSTORE PUSH1 0x20 ADD PUSH1 0x1 ISZERO ISZERO DUP2 MSTORE PUSH1 0x20 ADD DUP3 DUP2 MSTORE POP PUSH0 DUP1 CALLER PUSH20 0xFFFFFFFFFFFFFFFFFFFFFFFFFFFFFFFFFFFFFFFF AND PUSH20 0xFFFFFFFFFFFFFFFFFFFFFFFFFFFFFFFFFFFFFFFF AND DUP2 MSTORE PUSH1 0x20 ADD SWAP1 DUP2 MSTORE PUSH1 0x20 ADD PUSH0 KECCAK256 PUSH0 DUP3 ADD MLOAD DUP2 PUSH0 ADD PUSH0 PUSH2 0x100 EXP DUP2 SLOAD DUP2 PUSH20 0xFFFFFFFFFFFFFFFFFFFFFFFFFFFFFFFFFFFFFFFF MUL NOT AND SWAP1 DUP4 PUSH20 0xFFFFFFFFFFFFFFFFFFFFFFFFFFFFFFFFFFFFFFFF AND MUL OR SWAP1 SSTORE POP PUSH1 0x20 DUP3 ADD MLOAD DUP2 PUSH1 0x1 ADD SWAP1 DUP2 PUSH2 0x2F9 SWAP2 SWAP1 PUSH2 0x18FA JUMP JUMPDEST POP PUSH1 0x40 DUP3 ADD MLOAD DUP2 PUSH1 0x2 ADD PUSH0 PUSH2 0x100 EXP DUP2 SLOAD DUP2 PUSH1 0xFF MUL NOT AND SWAP1 DUP4 ISZERO ISZERO MUL OR SWAP1 SSTORE POP PUSH1 0x60 DUP3 ADD MLOAD DUP2 PUSH1 0x3 ADD SWAP1 DUP2 PUSH2 0x32E SWAP2 SWAP1 PUSH2 0x18FA JUMP JUMPDEST POP SWAP1 POP POP CALLER PUSH20 0xFFFFFFFFFFFFFFFFFFFFFFFFFFFFFFFFFFFFFFFF AND PUSH32 0x92822564BAB8864C3A47B34E8D23FBCE5C46234EB5DA261F94087B995AC0F33B DUP4 DUP4 PUSH1 0x40 MLOAD PUSH2 0x37A SWAP3 SWAP2 SWAP1 PUSH2 0x19C9 JUMP JUMPDEST PUSH1 0x40 MLOAD DUP1 SWAP2 SUB SWAP1 LOG2 POP POP JUMP JUMPDEST PUSH1 0x1 PUSH1 0x20 MSTORE DUP1 PUSH0 MSTORE PUSH1 0x40 PUSH0 KECCAK256 PUSH0 SWAP2 POP SWAP1 POP DUP1 PUSH0 ADD DUP1 SLOAD PUSH2 0x3A5 SWAP1 PUSH2 0x172D JUMP JUMPDEST DUP1 PUSH1 0x1F ADD PUSH1 0x20 DUP1 SWAP2 DIV MUL PUSH1 0x20 ADD PUSH1 0x40 MLOAD SWAP1 DUP2 ADD PUSH1 0x40 MSTORE DUP1 SWAP3 SWAP2 SWAP1 DUP2 DUP2 MSTORE PUSH1 0x20 ADD DUP3 DUP1 SLOAD PUSH2 0x3D1 SWAP1 PUSH2 0x172D JUMP JUMPDEST DUP1 ISZERO PUSH2 0x41C JUMPI DUP1 PUSH1 0x1F LT PUSH2 0x3F3 JUMPI PUSH2 0x100 DUP1 DUP4 SLOAD DIV MUL DUP4 MSTORE SWAP2 PUSH1 0x20 ADD SWAP2 PUSH2 0x41C JUMP JUMPDEST DUP3 ADD SWAP2 SWAP1 PUSH0 MSTORE PUSH1 0x20 PUSH0 KECCAK256 SWAP1 JUMPDEST DUP2 SLOAD DUP2 MSTORE SWAP1 PUSH1 0x1 ADD SWAP1 PUSH1 0x20 ADD DUP1 DUP4 GT PUSH2 0x3FF JUMPI DUP3 SWAP1 SUB PUSH1 0x1F AND DUP3 ADD SWAP2 JUMPDEST POP POP POP POP POP SWAP1 DUP1 PUSH1 0x1 ADD DUP1 SLOAD PUSH2 0x431 SWAP1 PUSH2 0x172D JUMP JUMPDEST DUP1 PUSH1 0x1F ADD PUSH1 0x20 DUP1 SWAP2 DIV MUL PUSH1 0x20 ADD PUSH1 0x40 MLOAD SWAP1 DUP2 ADD PUSH1 0x40 MSTORE DUP1 SWAP3 SWAP2 SWAP1 DUP2 DUP2 MSTORE PUSH1 0x20 ADD DUP3 DUP1 SLOAD PUSH2 0x45D SWAP1 PUSH2 0x172D JUMP JUMPDEST DUP1 ISZERO PUSH2 0x4A8 JUMPI DUP1 PUSH1 0x1F LT PUSH2 0x47F JUMPI PUSH2 0x100 DUP1 DUP4 SLOAD DIV MUL DUP4 MSTORE SWAP2 PUSH1 0x20 ADD SWAP2 PUSH2 0x4A8 JUMP JUMPDEST DUP3 ADD SWAP2 SWAP1 PUSH0 MSTORE PUSH1 0x20 PUSH0 KECCAK256 SWAP1 JUMPDEST DUP2 SLOAD DUP2 MSTORE SWAP1 PUSH1 0x1 ADD SWAP1 PUSH1 0x20 ADD DUP1 DUP4 GT PUSH2 0x48B JUMPI DUP3 SWAP1 SUB PUSH1 0x1F AND DUP3 ADD SWAP2 JUMPDEST POP POP POP POP POP SWAP1 DUP1 PUSH1 0x2 ADD DUP1 SLOAD PUSH2 0x4BD SWAP1 PUSH2 0x172D JUMP JUMPDEST DUP1 PUSH1 0x1F ADD PUSH1 0x20 DUP1 SWAP2 DIV MUL PUSH1 0x20 ADD PUSH1 0x40 MLOAD SWAP1 DUP2 ADD PUSH1 0x40 MSTORE DUP1 SWAP3 SWAP2 SWAP1 DUP2 DUP2 MSTORE PUSH1 0x20 ADD DUP3 DUP1 SLOAD PUSH2 0x4E9 SWAP1 PUSH2 0x172D JUMP JUMPDEST DUP1 ISZERO PUSH2 0x534 JUMPI DUP1 PUSH1 0x1F LT PUSH2 0x50B JUMPI PUSH2 0x100 DUP1 DUP4 SLOAD DIV MUL DUP4 MSTORE SWAP2 PUSH1 0x20 ADD SWAP2 PUSH2 0x534 JUMP JUMPDEST DUP3 ADD SWAP2 SWAP1 PUSH0 MSTORE PUSH1 0x20 PUSH0 KECCAK256 SWAP1 JUMPDEST DUP2 SLOAD DUP2 MSTORE SWAP1 PUSH1 0x1 ADD SWAP1 PUSH1 0x20 ADD DUP1 DUP4 GT PUSH2 0x517 JUMPI DUP3 SWAP1 SUB PUSH1 0x1F AND DUP3 ADD SWAP2 JUMPDEST POP POP POP POP POP SWAP1 DUP1 PUSH1 0x3 ADD DUP1 SLOAD PUSH2 0x549 SWAP1 PUSH2 0x172D JUMP JUMPDEST DUP1 PUSH1 0x1F ADD PUSH1 0x20 DUP1 SWAP2 DIV MUL PUSH1 0x20 ADD PUSH1 0x40 MLOAD SWAP1 DUP2 ADD PUSH1 0x40 MSTORE DUP1 SWAP3 SWAP2 SWAP1 DUP2 DUP2 MSTORE PUSH1 0x20 ADD DUP3 DUP1 SLOAD PUSH2 0x575 SWAP1 PUSH2 0x172D JUMP JUMPDEST DUP1 ISZERO PUSH2 0x5C0 JUMPI DUP1 PUSH1 0x1F LT PUSH2 0x597 JUMPI PUSH2 0x100 DUP1 DUP4 SLOAD DIV MUL DUP4 MSTORE SWAP2 PUSH1 0x20 ADD SWAP2 PUSH2 0x5C0 JUMP JUMPDEST DUP3 ADD SWAP2 SWAP1 PUSH0 MSTORE PUSH1 0x20 PUSH0 KECCAK256 SWAP1 JUMPDEST DUP2 SLOAD DUP2 MSTORE SWAP1 PUSH1 0x1 ADD SWAP1 PUSH1 0x20 ADD DUP1 DUP4 GT PUSH2 0x5A3 JUMPI DUP3 SWAP1 SUB PUSH1 0x1F AND DUP3 ADD SWAP2 JUMPDEST POP POP POP POP POP SWAP1 DUP1 PUSH1 0x4 ADD DUP1 SLOAD PUSH2 0x5D5 SWAP1 PUSH2 0x172D JUMP JUMPDEST DUP1 PUSH1 0x1F ADD PUSH1 0x20 DUP1 SWAP2 DIV MUL PUSH1 0x20 ADD PUSH1 0x40 MLOAD SWAP1 DUP2 ADD PUSH1 0x40 MSTORE DUP1 SWAP3 SWAP2 SWAP1 DUP2 DUP2 MSTORE PUSH1 0x20 ADD DUP3 DUP1 SLOAD PUSH2 0x601 SWAP1 PUSH2 0x172D JUMP JUMPDEST DUP1 ISZERO PUSH2 0x64C JUMPI DUP1 PUSH1 0x1F LT PUSH2 0x623 JUMPI PUSH2 0x100 DUP1 DUP4 SLOAD DIV MUL DUP4 MSTORE SWAP2 PUSH1 0x20 ADD SWAP2 PUSH2 0x64C JUMP JUMPDEST DUP3 ADD SWAP2 SWAP1 PUSH0 MSTORE PUSH1 0x20 PUSH0 KECCAK256 SWAP1 JUMPDEST DUP2 SLOAD DUP2 MSTORE SWAP1 PUSH1 0x1 ADD SWAP1 PUSH1 0x20 ADD DUP1 DUP4 GT PUSH2 0x62F JUMPI DUP3 SWAP1 SUB PUSH1 0x1F AND DUP3 ADD SWAP2 JUMPDEST POP POP POP POP POP SWAP1 DUP1 PUSH1 0x5 ADD SLOAD SWAP1 DUP1 PUSH1 0x6 ADD PUSH0 SWAP1 SLOAD SWAP1 PUSH2 0x100 EXP SWAP1 DIV PUSH1 0xFF AND SWAP1 POP DUP8 JUMP JUMPDEST PUSH2 0x676 PUSH2 0xEFF JUMP JUMPDEST PUSH0 DUP1 DUP4 PUSH20 0xFFFFFFFFFFFFFFFFFFFFFFFFFFFFFFFFFFFFFFFF AND PUSH20 0xFFFFFFFFFFFFFFFFFFFFFFFFFFFFFFFFFFFFFFFF AND DUP2 MSTORE PUSH1 0x20 ADD SWAP1 DUP2 MSTORE PUSH1 0x20 ADD PUSH0 KECCAK256 PUSH1 0x40 MLOAD DUP1 PUSH1 0x80 ADD PUSH1 0x40 MSTORE SWAP1 DUP2 PUSH0 DUP3 ADD PUSH0 SWAP1 SLOAD SWAP1 PUSH2 0x100 EXP SWAP1 DIV PUSH20 0xFFFFFFFFFFFFFFFFFFFFFFFFFFFFFFFFFFFFFFFF AND PUSH20 0xFFFFFFFFFFFFFFFFFFFFFFFFFFFFFFFFFFFFFFFF AND PUSH20 0xFFFFFFFFFFFFFFFFFFFFFFFFFFFFFFFFFFFFFFFF AND DUP2 MSTORE PUSH1 0x20 ADD PUSH1 0x1 DUP3 ADD DUP1 SLOAD PUSH2 0x721 SWAP1 PUSH2 0x172D JUMP JUMPDEST DUP1 PUSH1 0x1F ADD PUSH1 0x20 DUP1 SWAP2 DIV MUL PUSH1 0x20 ADD PUSH1 0x40 MLOAD SWAP1 DUP2 ADD PUSH1 0x40 MSTORE DUP1 SWAP3 SWAP2 SWAP1 DUP2 DUP2 MSTORE PUSH1 0x20 ADD DUP3 DUP1 SLOAD PUSH2 0x74D SWAP1 PUSH2 0x172D JUMP JUMPDEST DUP1 ISZERO PUSH2 0x798 JUMPI DUP1 PUSH1 0x1F LT PUSH2 0x76F JUMPI PUSH2 0x100 DUP1 DUP4 SLOAD DIV MUL DUP4 MSTORE SWAP2 PUSH1 0x20 ADD SWAP2 PUSH2 0x798 JUMP JUMPDEST DUP3 ADD SWAP2 SWAP1 PUSH0 MSTORE PUSH1 0x20 PUSH0 KECCAK256 SWAP1 JUMPDEST DUP2 SLOAD DUP2 MSTORE SWAP1 PUSH1 0x1 ADD SWAP1 PUSH1 0x20 ADD DUP1 DUP4 GT PUSH2 0x77B JUMPI DUP3 SWAP1 SUB PUSH1 0x1F AND DUP3 ADD SWAP2 JUMPDEST POP POP POP POP POP DUP2 MSTORE PUSH1 0x20 ADD PUSH1 0x2 DUP3 ADD PUSH0 SWAP1 SLOAD SWAP1 PUSH2 0x100 EXP SWAP1 DIV PUSH1 0xFF AND ISZERO ISZERO ISZERO ISZERO DUP2 MSTORE PUSH1 0x20 ADD PUSH1 0x3 DUP3 ADD DUP1 SLOAD PUSH2 0x7CB SWAP1 PUSH2 0x172D JUMP JUMPDEST DUP1 PUSH1 0x1F ADD PUSH1 0x20 DUP1 SWAP2 DIV MUL PUSH1 0x20 ADD PUSH1 0x40 MLOAD SWAP1 DUP2 ADD PUSH1 0x40 MSTORE DUP1 SWAP3 SWAP2 SWAP1 DUP2 DUP2 MSTORE PUSH1 0x20 ADD DUP3 DUP1 SLOAD PUSH2 0x7F7 SWAP1 PUSH2 0x172D JUMP JUMPDEST DUP1 ISZERO PUSH2 0x842 JUMPI DUP1 PUSH1 0x1F LT PUSH2 0x819 JUMPI PUSH2 0x100 DUP1 DUP4 SLOAD DIV MUL DUP4 MSTORE SWAP2 PUSH1 0x20 ADD SWAP2 PUSH2 0x842 JUMP JUMPDEST DUP3 ADD SWAP2 SWAP1 PUSH0 MSTORE PUSH1 0x20 PUSH0 KECCAK256 SWAP1 JUMPDEST DUP2 SLOAD DUP2 MSTORE SWAP1 PUSH1 0x1 ADD SWAP1 PUSH1 0x20 ADD DUP1 DUP4 GT PUSH2 0x825 JUMPI DUP3 SWAP1 SUB PUSH1 0x1F AND DUP3 ADD SWAP2 JUMPDEST POP POP POP POP POP DUP2 MSTORE POP POP SWAP1 POP SWAP2 SWAP1 POP JUMP JUMPDEST PUSH0 DUP1 CALLER PUSH20 0xFFFFFFFFFFFFFFFFFFFFFFFFFFFFFFFFFFFFFFFF AND PUSH20 0xFFFFFFFFFFFFFFFFFFFFFFFFFFFFFFFFFFFFFFFF AND DUP2 MSTORE PUSH1 0x20 ADD SWAP1 DUP2 MSTORE PUSH1 0x20 ADD PUSH0 KECCAK256 PUSH1 0x2 ADD PUSH0 SWAP1 SLOAD SWAP1 PUSH2 0x100 EXP SWAP1 DIV PUSH1 0xFF AND PUSH2 0x8DD JUMPI PUSH1 0x40 MLOAD PUSH32 0x8C379A000000000000000000000000000000000000000000000000000000000 DUP2 MSTORE PUSH1 0x4 ADD PUSH2 0x8D4 SWAP1 PUSH2 0x1A6E JUMP JUMPDEST PUSH1 0x40 MLOAD DUP1 SWAP2 SUB SWAP1 REVERT JUMPDEST PUSH1 0x2 PUSH0 DUP2 SLOAD DUP1 SWAP3 SWAP2 SWAP1 PUSH2 0x8EF SWAP1 PUSH2 0x1AB9 JUMP JUMPDEST SWAP2 SWAP1 POP SSTORE POP PUSH1 0x40 MLOAD DUP1 PUSH1 0xE0 ADD PUSH1 0x40 MSTORE DUP1 DUP8 DUP2 MSTORE PUSH1 0x20 ADD DUP7 DUP2 MSTORE PUSH1 0x20 ADD DUP6 DUP2 MSTORE PUSH1 0x20 ADD DUP5 DUP2 MSTORE PUSH1 0x20 ADD DUP4 DUP2 MSTORE PUSH1 0x20 ADD DUP3 DUP2 MSTORE PUSH1 0x20 ADD PUSH1 0x1 ISZERO ISZERO DUP2 MSTORE POP PUSH1 0x1 PUSH0 PUSH1 0x2 SLOAD DUP2 MSTORE PUSH1 0x20 ADD SWAP1 DUP2 MSTORE PUSH1 0x20 ADD PUSH0 KECCAK256 PUSH0 DUP3 ADD MLOAD DUP2 PUSH0 ADD SWAP1 DUP2 PUSH2 0x950 SWAP2 SWAP1 PUSH2 0x18FA JUMP JUMPDEST POP PUSH1 0x20 DUP3 ADD MLOAD DUP2 PUSH1 0x1 ADD SWAP1 DUP2 PUSH2 0x966 SWAP2 SWAP1 PUSH2 0x18FA JUMP JUMPDEST POP PUSH1 0x40 DUP3 ADD MLOAD DUP2 PUSH1 0x2 ADD SWAP1 DUP2 PUSH2 0x97C SWAP2 SWAP1 PUSH2 0x18FA JUMP JUMPDEST POP PUSH1 0x60 DUP3 ADD MLOAD DUP2 PUSH1 0x3 ADD SWAP1 DUP2 PUSH2 0x992 SWAP2 SWAP1 PUSH2 0x18FA JUMP JUMPDEST POP PUSH1 0x80 DUP3 ADD MLOAD DUP2 PUSH1 0x4 ADD SWAP1 DUP2 PUSH2 0x9A8 SWAP2 SWAP1 PUSH2 0x18FA JUMP JUMPDEST POP PUSH1 0xA0 DUP3 ADD MLOAD DUP2 PUSH1 0x5 ADD SSTORE PUSH1 0xC0 DUP3 ADD MLOAD DUP2 PUSH1 0x6 ADD PUSH0 PUSH2 0x100 EXP DUP2 SLOAD DUP2 PUSH1 0xFF MUL NOT AND SWAP1 DUP4 ISZERO ISZERO MUL OR SWAP1 SSTORE POP SWAP1 POP POP PUSH1 0x2 SLOAD PUSH32 0xF3AF718913A5A546501AFA100BC90D209D682ADE91B77AC38ED42C6849230C3C DUP8 DUP8 PUSH1 0x40 MLOAD PUSH2 0xA09 SWAP3 SWAP2 SWAP1 PUSH2 0x19C9 JUMP JUMPDEST PUSH1 0x40 MLOAD DUP1 SWAP2 SUB SWAP1 LOG2 POP POP POP POP POP POP JUMP JUMPDEST PUSH0 PUSH1 0x20 MSTORE DUP1 PUSH0 MSTORE PUSH1 0x40 PUSH0 KECCAK256 PUSH0 SWAP2 POP SWAP1 POP DUP1 PUSH0 ADD PUSH0 SWAP1 SLOAD SWAP1 PUSH2 0x100 EXP SWAP1 DIV PUSH20 0xFFFFFFFFFFFFFFFFFFFFFFFFFFFFFFFFFFFFFFFF AND SWAP1 DUP1 PUSH1 0x1 ADD DUP1 SLOAD PUSH2 0xA5C SWAP1 PUSH2 0x172D JUMP JUMPDEST DUP1 PUSH1 0x1F ADD PUSH1 0x20 DUP1 SWAP2 DIV MUL PUSH1 0x20 ADD PUSH1 0x40 MLOAD SWAP1 DUP2 ADD PUSH1 0x40 MSTORE DUP1 SWAP3 SWAP2 SWAP1 DUP2 DUP2 MSTORE PUSH1 0x20 ADD DUP3 DUP1 SLOAD PUSH2 0xA88 SWAP1 PUSH2 0x172D JUMP JUMPDEST DUP1 ISZERO PUSH2 0xAD3 JUMPI DUP1 PUSH1 0x1F LT PUSH2 0xAAA JUMPI PUSH2 0x100 DUP1 DUP4 SLOAD DIV MUL DUP4 MSTORE SWAP2 PUSH1 0x20 ADD SWAP2 PUSH2 0xAD3 JUMP JUMPDEST DUP3 ADD SWAP2 SWAP1 PUSH0 MSTORE PUSH1 0x20 PUSH0 KECCAK256 SWAP1 JUMPDEST DUP2 SLOAD DUP2 MSTORE SWAP1 PUSH1 0x1 ADD SWAP1 PUSH1 0x20 ADD DUP1 DUP4 GT PUSH2 0xAB6 JUMPI DUP3 SWAP1 SUB PUSH1 0x1F AND DUP3 ADD SWAP2 JUMPDEST POP POP POP POP POP SWAP1 DUP1 PUSH1 0x2 ADD PUSH0 SWAP1 SLOAD SWAP1 PUSH2 0x100 EXP SWAP1 DIV PUSH1 0xFF AND SWAP1 DUP1 PUSH1 0x3 ADD DUP1 SLOAD PUSH2 0xAFA SWAP1 PUSH2 0x172D JUMP JUMPDEST DUP1 PUSH1 0x1F ADD PUSH1 0x20 DUP1 SWAP2 DIV MUL PUSH1 0x20 ADD PUSH1 0x40 MLOAD SWAP1 DUP2 ADD PUSH1 0x40 MSTORE DUP1 SWAP3 SWAP2 SWAP1 DUP2 DUP2 MSTORE PUSH1 0x20 ADD DUP3 DUP1 SLOAD PUSH2 0xB26 SWAP1 PUSH2 0x172D JUMP JUMPDEST DUP1 ISZERO PUSH2 0xB71 JUMPI DUP1 PUSH1 0x1F LT PUSH2 0xB48 JUMPI PUSH2 0x100 DUP1 DUP4 SLOAD DIV MUL DUP4 MSTORE SWAP2 PUSH1 0x20 ADD SWAP2 PUSH2 0xB71 JUMP JUMPDEST DUP3 ADD SWAP2 SWAP1 PUSH0 MSTORE PUSH1 0x20 PUSH0 KECCAK256 SWAP1 JUMPDEST DUP2 SLOAD DUP2 MSTORE SWAP1 PUSH1 0x1 ADD SWAP1 PUSH1 0x20 ADD DUP1 DUP4 GT PUSH2 0xB54 JUMPI DUP3 SWAP1 SUB PUSH1 0x1F AND DUP3 ADD SWAP2 JUMPDEST POP POP POP POP POP SWAP1 POP DUP5 JUMP JUMPDEST PUSH1 0x2 SLOAD DUP2 JUMP JUMPDEST PUSH2 0xB89 PUSH2 0xF3D JUMP JUMPDEST PUSH1 0x1 PUSH0 DUP4 DUP2 MSTORE PUSH1 0x20 ADD SWAP1 DUP2 MSTORE PUSH1 0x20 ADD PUSH0 KECCAK256 PUSH1 0x6 ADD PUSH0 SWAP1 SLOAD SWAP1 PUSH2 0x100 EXP SWAP1 DIV PUSH1 0xFF AND PUSH2 0xBE9 JUMPI PUSH1 0x40 MLOAD PUSH32 0x8C379A000000000000000000000000000000000000000000000000000000000 DUP2 MSTORE PUSH1 0x4 ADD PUSH2 0xBE0 SWAP1 PUSH2 0x1B4A JUMP JUMPDEST PUSH1 0x40 MLOAD DUP1 SWAP2 SUB SWAP1 REVERT JUMPDEST PUSH1 0x1 PUSH0 DUP4 DUP2 MSTORE PUSH1 0x20 ADD SWAP1 DUP2 MSTORE PUSH1 0x20 ADD PUSH0 KECCAK256 PUSH1 0x40 MLOAD DUP1 PUSH1 0xE0 ADD PUSH1 0x40 MSTORE SWAP1 DUP2 PUSH0 DUP3 ADD DUP1 SLOAD PUSH2 0xC14 SWAP1 PUSH2 0x172D JUMP JUMPDEST DUP1 PUSH1 0x1F ADD PUSH1 0x20 DUP1 SWAP2 DIV MUL PUSH1 0x20 ADD PUSH1 0x40 MLOAD SWAP1 DUP2 ADD PUSH1 0x40 MSTORE DUP1 SWAP3 SWAP2 SWAP1 DUP2 DUP2 MSTORE PUSH1 0x20 ADD DUP3 DUP1 SLOAD PUSH2 0xC40 SWAP1 PUSH2 0x172D JUMP JUMPDEST DUP1 ISZERO PUSH2 0xC8B JUMPI DUP1 PUSH1 0x1F LT PUSH2 0xC62 JUMPI PUSH2 0x100 DUP1 DUP4 SLOAD DIV MUL DUP4 MSTORE SWAP2 PUSH1 0x20 ADD SWAP2 PUSH2 0xC8B JUMP JUMPDEST DUP3 ADD SWAP2 SWAP1 PUSH0 MSTORE PUSH1 0x20 PUSH0 KECCAK256 SWAP1 JUMPDEST DUP2 SLOAD DUP2 MSTORE SWAP1 PUSH1 0x1 ADD SWAP1 PUSH1 0x20 ADD DUP1 DUP4 GT PUSH2 0xC6E JUMPI DUP3 SWAP1 SUB PUSH1 0x1F AND DUP3 ADD SWAP2 JUMPDEST POP POP POP POP POP DUP2 MSTORE PUSH1 0x20 ADD PUSH1 0x1 DUP3 ADD DUP1 SLOAD PUSH2 0xCA4 SWAP1 PUSH2 0x172D JUMP JUMPDEST DUP1 PUSH1 0x1F ADD PUSH1 0x20 DUP1 SWAP2 DIV MUL PUSH1 0x20 ADD PUSH1 0x40 MLOAD SWAP1 DUP2 ADD PUSH1 0x40 MSTORE DUP1 SWAP3 SWAP2 SWAP1 DUP2 DUP2 MSTORE PUSH1 0x20 ADD DUP3 DUP1 SLOAD PUSH2 0xCD0 SWAP1 PUSH2 0x172D JUMP JUMPDEST DUP1 ISZERO PUSH2 0xD1B JUMPI DUP1 PUSH1 0x1F LT PUSH2 0xCF2 JUMPI PUSH2 0x100 DUP1 DUP4 SLOAD DIV MUL DUP4 MSTORE SWAP2 PUSH1 0x20 ADD SWAP2 PUSH2 0xD1B JUMP JUMPDEST DUP3 ADD SWAP2 SWAP1 PUSH0 MSTORE PUSH1 0x20 PUSH0 KECCAK256 SWAP1 JUMPDEST DUP2 SLOAD DUP2 MSTORE SWAP1 PUSH1 0x1 ADD SWAP1 PUSH1 0x20 ADD DUP1 DUP4 GT PUSH2 0xCFE JUMPI DUP3 SWAP1 SUB PUSH1 0x1F AND DUP3 ADD SWAP2 JUMPDEST POP POP POP POP POP DUP2 MSTORE PUSH1 0x20 ADD PUSH1 0x2 DUP3 ADD DUP1 SLOAD PUSH2 0xD34 SWAP1 PUSH2 0x172D JUMP JUMPDEST DUP1 PUSH1 0x1F ADD PUSH1 0x20 DUP1 SWAP2 DIV MUL PUSH1 0x20 ADD PUSH1 0x40 MLOAD SWAP1 DUP2 ADD PUSH1 0x40 MSTORE DUP1 SWAP3 SWAP2 SWAP1 DUP2 DUP2 MSTORE PUSH1 0x20 ADD DUP3 DUP1 SLOAD PUSH2 0xD60 SWAP1 PUSH2 0x172D JUMP JUMPDEST DUP1 ISZERO PUSH2 0xDAB JUMPI DUP1 PUSH1 0x1F LT PUSH2 0xD82 JUMPI PUSH2 0x100 DUP1 DUP4 SLOAD DIV MUL DUP4 MSTORE SWAP2 PUSH1 0x20 ADD SWAP2 PUSH2 0xDAB JUMP JUMPDEST DUP3 ADD SWAP2 SWAP1 PUSH0 MSTORE PUSH1 0x20 PUSH0 KECCAK256 SWAP1 JUMPDEST DUP2 SLOAD DUP2 MSTORE SWAP1 PUSH1 0x1 ADD SWAP1 PUSH1 0x20 ADD DUP1 DUP4 GT PUSH2 0xD8E JUMPI DUP3 SWAP1 SUB PUSH1 0x1F AND DUP3 ADD SWAP2 JUMPDEST POP POP POP POP POP DUP2 MSTORE PUSH1 0x20 ADD PUSH1 0x3 DUP3 ADD DUP1 SLOAD PUSH2 0xDC4 SWAP1 PUSH2 0x172D JUMP JUMPDEST DUP1 PUSH1 0x1F ADD PUSH1 0x20 DUP1 SWAP2 DIV MUL PUSH1 0x20 ADD PUSH1 0x40 MLOAD SWAP1 DUP2 ADD PUSH1 0x40 MSTORE DUP1 SWAP3 SWAP2 SWAP1 DUP2 DUP2 MSTORE PUSH1 0x20 ADD DUP3 DUP1 SLOAD PUSH2 0xDF0 SWAP1 PUSH2 0x172D JUMP JUMPDEST DUP1 ISZERO PUSH2 0xE3B JUMPI DUP1 PUSH1 0x1F LT PUSH2 0xE12 JUMPI PUSH2 0x100 DUP1 DUP4 SLOAD DIV MUL DUP4 MSTORE SWAP2 PUSH1 0x20 ADD SWAP2 PUSH2 0xE3B JUMP JUMPDEST DUP3 ADD SWAP2 SWAP1 PUSH0 MSTORE PUSH1 0x20 PUSH0 KECCAK256 SWAP1 JUMPDEST DUP2 SLOAD DUP2 MSTORE SWAP1 PUSH1 0x1 ADD SWAP1 PUSH1 0x20 ADD DUP1 DUP4 GT PUSH2 0xE1E JUMPI DUP3 SWAP1 SUB PUSH1 0x1F AND DUP3 ADD SWAP2 JUMPDEST POP POP POP POP POP DUP2 MSTORE PUSH1 0x20 ADD PUSH1 0x4 DUP3 ADD DUP1 SLOAD PUSH2 0xE54 SWAP1 PUSH2 0x172D JUMP JUMPDEST DUP1 PUSH1 0x1F ADD PUSH1 0x20 DUP1 SWAP2 DIV MUL PUSH1 0x20 ADD PUSH1 0x40 MLOAD SWAP1 DUP2 ADD PUSH1 0x40 MSTORE DUP1 SWAP3 SWAP2 SWAP1 DUP2 DUP2 MSTORE PUSH1 0x20 ADD DUP3 DUP1 SLOAD PUSH2 0xE80 SWAP1 PUSH2 0x172D JUMP JUMPDEST DUP1 ISZERO PUSH2 0xECB JUMPI DUP1 PUSH1 0x1F LT PUSH2 0xEA2 JUMPI PUSH2 0x100 DUP1 DUP4 SLOAD DIV MUL DUP4 MSTORE SWAP2 PUSH1 0x20 ADD SWAP2 PUSH2 0xECB JUMP JUMPDEST DUP3 ADD SWAP2 SWAP1 PUSH0 MSTORE PUSH1 0x20 PUSH0 KECCAK256 SWAP1 JUMPDEST DUP2 SLOAD DUP2 MSTORE SWAP1 PUSH1 0x1 ADD SWAP1 PUSH1 0x20 ADD DUP1 DUP4 GT PUSH2 0xEAE JUMPI DUP3 SWAP1 SUB PUSH1 0x1F AND DUP3 ADD SWAP2 JUMPDEST POP POP POP POP POP DUP2 MSTORE PUSH1 0x20 ADD PUSH1 0x5 DUP3 ADD SLOAD DUP2 MSTORE PUSH1 0x20 ADD PUSH1 0x6 DUP3 ADD PUSH0 SWAP1 SLOAD SWAP1 PUSH2 0x100 EXP SWAP1 DIV PUSH1 0xFF AND ISZERO ISZERO ISZERO ISZERO DUP2 MSTORE POP POP SWAP1 POP SWAP2 SWAP1 POP JUMP JUMPDEST PUSH1 0x40 MLOAD DUP1 PUSH1 0x80 ADD PUSH1 0x40 MSTORE DUP1 PUSH0 PUSH20 0xFFFFFFFFFFFFFFFFFFFFFFFFFFFFFFFFFFFFFFFF AND DUP2 MSTORE PUSH1 0x20 ADD PUSH1 0x60 DUP2 MSTORE PUSH1 0x20 ADD PUSH0 ISZERO ISZERO DUP2 MSTORE PUSH1 0x20 ADD PUSH1 0x60 DUP2 MSTORE POP SWAP1 JUMP JUMPDEST PUSH1 0x40 MLOAD DUP1 PUSH1 0xE0 ADD PUSH1 0x40 MSTORE DUP1 PUSH1 0x60 DUP2 MSTORE PUSH1 0x20 ADD PUSH1 0x60 DUP2 MSTORE PUSH1 0x20 ADD PUSH1 0x60 DUP2 MSTORE PUSH1 0x20 ADD PUSH1 0x60 DUP2 MSTORE PUSH1 0x20 ADD PUSH1 0x60 DUP2 MSTORE PUSH1 0x20 ADD PUSH0 DUP2 MSTORE PUSH1 0x20 ADD PUSH0 ISZERO ISZERO DUP2 MSTORE POP SWAP1 JUMP JUMPDEST PUSH0 PUSH1 0x40 MLOAD SWAP1 POP SWAP1 JUMP JUMPDEST PUSH0 DUP1 REVERT JUMPDEST PUSH0 DUP1 REVERT JUMPDEST PUSH0 DUP1 REVERT JUMPDEST PUSH0 DUP1 REVERT JUMPDEST PUSH0 PUSH1 0x1F NOT PUSH1 0x1F DUP4 ADD AND SWAP1 POP SWAP2 SWAP1 POP JUMP JUMPDEST PUSH32 0x4E487B7100000000000000000000000000000000000000000000000000000000 PUSH0 MSTORE PUSH1 0x41 PUSH1 0x4 MSTORE PUSH1 0x24 PUSH0 REVERT JUMPDEST PUSH2 0xFD9 DUP3 PUSH2 0xF93 JUMP JUMPDEST DUP2 ADD DUP2 DUP2 LT PUSH8 0xFFFFFFFFFFFFFFFF DUP3 GT OR ISZERO PUSH2 0xFF8 JUMPI PUSH2 0xFF7 PUSH2 0xFA3 JUMP JUMPDEST JUMPDEST DUP1 PUSH1 0x40 MSTORE POP POP POP JUMP JUMPDEST PUSH0 PUSH2 0x100A PUSH2 0xF7A JUMP JUMPDEST SWAP1 POP PUSH2 0x1016 DUP3 DUP3 PUSH2 0xFD0 JUMP JUMPDEST SWAP2 SWAP1 POP JUMP JUMPDEST PUSH0 PUSH8 0xFFFFFFFFFFFFFFFF DUP3 GT ISZERO PUSH2 0x1035 JUMPI PUSH2 0x1034 PUSH2 0xFA3 JUMP JUMPDEST JUMPDEST PUSH2 0x103E DUP3 PUSH2 0xF93 JUMP JUMPDEST SWAP1 POP PUSH1 0x20 DUP2 ADD SWAP1 POP SWAP2 SWAP1 POP JUMP JUMPDEST DUP3 DUP2 DUP4 CALLDATACOPY PUSH0 DUP4 DUP4 ADD MSTORE POP POP POP JUMP JUMPDEST PUSH0 PUSH2 0x106B PUSH2 0x1066 DUP5 PUSH2 0x101B JUMP JUMPDEST PUSH2 0x1001 JUMP JUMPDEST SWAP1 POP DUP3 DUP2 MSTORE PUSH1 0x20 DUP2 ADD DUP5 DUP5 DUP5 ADD GT ISZERO PUSH2 0x1087 JUMPI PUSH2 0x1086 PUSH2 0xF8F JUMP JUMPDEST JUMPDEST PUSH2 0x1092 DUP5 DUP3 DUP6 PUSH2 0x104B JUMP JUMPDEST POP SWAP4 SWAP3 POP POP POP JUMP JUMPDEST PUSH0 DUP3 PUSH1 0x1F DUP4 ADD SLT PUSH2 0x10AE JUMPI PUSH2 0x10AD PUSH2 0xF8B JUMP JUMPDEST JUMPDEST DUP2 CALLDATALOAD PUSH2 0x10BE DUP5 DUP3 PUSH1 0x20 DUP7 ADD PUSH2 0x1059 JUMP JUMPDEST SWAP2 POP POP SWAP3 SWAP2 POP POP JUMP JUMPDEST PUSH0 DUP1 PUSH1 0x40 DUP4 DUP6 SUB SLT ISZERO PUSH2 0x10DD JUMPI PUSH2 0x10DC PUSH2 0xF83 JUMP JUMPDEST JUMPDEST PUSH0 DUP4 ADD CALLDATALOAD PUSH8 0xFFFFFFFFFFFFFFFF DUP2 GT ISZERO PUSH2 0x10FA JUMPI PUSH2 0x10F9 PUSH2 0xF87 JUMP JUMPDEST JUMPDEST PUSH2 0x1106 DUP6 DUP3 DUP7 ADD PUSH2 0x109A JUMP JUMPDEST SWAP3 POP POP PUSH1 0x20 DUP4 ADD CALLDATALOAD PUSH8 0xFFFFFFFFFFFFFFFF DUP2 GT ISZERO PUSH2 0x1127 JUMPI PUSH2 0x1126 PUSH2 0xF87 JUMP JUMPDEST JUMPDEST PUSH2 0x1133 DUP6 DUP3 DUP7 ADD PUSH2 0x109A JUMP JUMPDEST SWAP2 POP POP SWAP3 POP SWAP3 SWAP1 POP JUMP JUMPDEST PUSH0 DUP2 SWAP1 POP SWAP2 SWAP1 POP JUMP JUMPDEST PUSH2 0x114F DUP2 PUSH2 0x113D JUMP JUMPDEST DUP2 EQ PUSH2 0x1159 JUMPI PUSH0 DUP1 REVERT JUMPDEST POP JUMP JUMPDEST PUSH0 DUP2 CALLDATALOAD SWAP1 POP PUSH2 0x116A DUP2 PUSH2 0x1146 JUMP JUMPDEST SWAP3 SWAP2 POP POP JUMP JUMPDEST PUSH0 PUSH1 0x20 DUP3 DUP5 SUB SLT ISZERO PUSH2 0x1185 JUMPI PUSH2 0x1184 PUSH2 0xF83 JUMP JUMPDEST JUMPDEST PUSH0 PUSH2 0x1192 DUP5 DUP3 DUP6 ADD PUSH2 0x115C JUMP JUMPDEST SWAP2 POP POP SWAP3 SWAP2 POP POP JUMP JUMPDEST PUSH0 DUP2 MLOAD SWAP1 POP SWAP2 SWAP1 POP JUMP JUMPDEST PUSH0 DUP3 DUP3 MSTORE PUSH1 0x20 DUP3 ADD SWAP1 POP SWAP3 SWAP2 POP POP JUMP JUMPDEST DUP3 DUP2 DUP4 MCOPY PUSH0 DUP4 DUP4 ADD MSTORE POP POP POP JUMP JUMPDEST PUSH0 PUSH2 0x11CD DUP3 PUSH2 0x119B JUMP JUMPDEST PUSH2 0x11D7 DUP2 DUP6 PUSH2 0x11A5 JUMP JUMPDEST SWAP4 POP PUSH2 0x11E7 DUP2 DUP6 PUSH1 0x20 DUP7 ADD PUSH2 0x11B5 JUMP JUMPDEST PUSH2 0x11F0 DUP2 PUSH2 0xF93 JUMP JUMPDEST DUP5 ADD SWAP2 POP POP SWAP3 SWAP2 POP POP JUMP JUMPDEST PUSH2 0x1204 DUP2 PUSH2 0x113D JUMP JUMPDEST DUP3 MSTORE POP POP JUMP JUMPDEST PUSH0 DUP2 ISZERO ISZERO SWAP1 POP SWAP2 SWAP1 POP JUMP JUMPDEST PUSH2 0x121E DUP2 PUSH2 0x120A JUMP JUMPDEST DUP3 MSTORE POP POP JUMP JUMPDEST PUSH0 PUSH1 0xE0 DUP3 ADD SWAP1 POP DUP2 DUP2 SUB PUSH0 DUP4 ADD MSTORE PUSH2 0x123C DUP2 DUP11 PUSH2 0x11C3 JUMP JUMPDEST SWAP1 POP DUP2 DUP2 SUB PUSH1 0x20 DUP4 ADD MSTORE PUSH2 0x1250 DUP2 DUP10 PUSH2 0x11C3 JUMP JUMPDEST SWAP1 POP DUP2 DUP2 SUB PUSH1 0x40 DUP4 ADD MSTORE PUSH2 0x1264 DUP2 DUP9 PUSH2 0x11C3 JUMP JUMPDEST SWAP1 POP DUP2 DUP2 SUB PUSH1 0x60 DUP4 ADD MSTORE PUSH2 0x1278 DUP2 DUP8 PUSH2 0x11C3 JUMP JUMPDEST SWAP1 POP DUP2 DUP2 SUB PUSH1 0x80 DUP4 ADD MSTORE PUSH2 0x128C DUP2 DUP7 PUSH2 0x11C3 JUMP JUMPDEST SWAP1 POP PUSH2 0x129B PUSH1 0xA0 DUP4 ADD DUP6 PUSH2 0x11FB JUMP JUMPDEST PUSH2 0x12A8 PUSH1 0xC0 DUP4 ADD DUP5 PUSH2 0x1215 JUMP JUMPDEST SWAP9 SWAP8 POP POP POP POP POP POP POP POP JUMP JUMPDEST PUSH0 PUSH20 0xFFFFFFFFFFFFFFFFFFFFFFFFFFFFFFFFFFFFFFFF DUP3 AND SWAP1 POP SWAP2 SWAP1 POP JUMP JUMPDEST PUSH0 PUSH2 0x12DD DUP3 PUSH2 0x12B4 JUMP JUMPDEST SWAP1 POP SWAP2 SWAP1 POP JUMP JUMPDEST PUSH2 0x12ED DUP2 PUSH2 0x12D3 JUMP JUMPDEST DUP2 EQ PUSH2 0x12F7 JUMPI PUSH0 DUP1 REVERT JUMPDEST POP JUMP JUMPDEST PUSH0 DUP2 CALLDATALOAD SWAP1 POP PUSH2 0x1308 DUP2 PUSH2 0x12E4 JUMP JUMPDEST SWAP3 SWAP2 POP POP JUMP JUMPDEST PUSH0 PUSH1 0x20 DUP3 DUP5 SUB SLT ISZERO PUSH2 0x1323 JUMPI PUSH2 0x1322 PUSH2 0xF83 JUMP JUMPDEST JUMPDEST PUSH0 PUSH2 0x1330 DUP5 DUP3 DUP6 ADD PUSH2 0x12FA JUMP JUMPDEST SWAP2 POP POP SWAP3 SWAP2 POP POP JUMP JUMPDEST PUSH2 0x1342 DUP2 PUSH2 0x12D3 JUMP JUMPDEST DUP3 MSTORE POP POP JUMP JUMPDEST PUSH0 DUP3 DUP3 MSTORE PUSH1 0x20 DUP3 ADD SWAP1 POP SWAP3 SWAP2 POP POP JUMP JUMPDEST PUSH0 PUSH2 0x1362 DUP3 PUSH2 0x119B JUMP JUMPDEST PUSH2 0x136C DUP2 DUP6 PUSH2 0x1348 JUMP JUMPDEST SWAP4 POP PUSH2 0x137C DUP2 DUP6 PUSH1 0x20 DUP7 ADD PUSH2 0x11B5 JUMP JUMPDEST PUSH2 0x1385 DUP2 PUSH2 0xF93 JUMP JUMPDEST DUP5 ADD SWAP2 POP POP SWAP3 SWAP2 POP POP JUMP JUMPDEST PUSH2 0x1399 DUP2 PUSH2 0x120A JUMP JUMPDEST DUP3 MSTORE POP POP JUMP JUMPDEST PUSH0 PUSH1 0x80 DUP4 ADD PUSH0 DUP4 ADD MLOAD PUSH2 0x13B4 PUSH0 DUP7 ADD DUP3 PUSH2 0x1339 JUMP JUMPDEST POP PUSH1 0x20 DUP4 ADD MLOAD DUP5 DUP3 SUB PUSH1 0x20 DUP7 ADD MSTORE PUSH2 0x13CC DUP3 DUP3 PUSH2 0x1358 JUMP JUMPDEST SWAP2 POP POP PUSH1 0x40 DUP4 ADD MLOAD PUSH2 0x13E1 PUSH1 0x40 DUP7 ADD DUP3 PUSH2 0x1390 JUMP JUMPDEST POP PUSH1 0x60 DUP4 ADD MLOAD DUP5 DUP3 SUB PUSH1 0x60 DUP7 ADD MSTORE PUSH2 0x13F9 DUP3 DUP3 PUSH2 0x1358 JUMP JUMPDEST SWAP2 POP POP DUP1 SWAP2 POP POP SWAP3 SWAP2 POP POP JUMP JUMPDEST PUSH0 PUSH1 0x20 DUP3 ADD SWAP1 POP DUP2 DUP2 SUB PUSH0 DUP4 ADD MSTORE PUSH2 0x141E DUP2 DUP5 PUSH2 0x139F JUMP JUMPDEST SWAP1 POP SWAP3 SWAP2 POP POP JUMP JUMPDEST PUSH0 DUP1 PUSH0 DUP1 PUSH0 DUP1 PUSH1 0xC0 DUP8 DUP10 SUB SLT ISZERO PUSH2 0x1440 JUMPI PUSH2 0x143F PUSH2 0xF83 JUMP JUMPDEST JUMPDEST PUSH0 DUP8 ADD CALLDATALOAD PUSH8 0xFFFFFFFFFFFFFFFF DUP2 GT ISZERO PUSH2 0x145D JUMPI PUSH2 0x145C PUSH2 0xF87 JUMP JUMPDEST JUMPDEST PUSH2 0x1469 DUP10 DUP3 DUP11 ADD PUSH2 0x109A JUMP JUMPDEST SWAP7 POP POP PUSH1 0x20 DUP8 ADD CALLDATALOAD PUSH8 0xFFFFFFFFFFFFFFFF DUP2 GT ISZERO PUSH2 0x148A JUMPI PUSH2 0x1489 PUSH2 0xF87 JUMP JUMPDEST JUMPDEST PUSH2 0x1496 DUP10 DUP3 DUP11 ADD PUSH2 0x109A JUMP JUMPDEST SWAP6 POP POP PUSH1 0x40 DUP8 ADD CALLDATALOAD PUSH8 0xFFFFFFFFFFFFFFFF DUP2 GT ISZERO PUSH2 0x14B7 JUMPI PUSH2 0x14B6 PUSH2 0xF87 JUMP JUMPDEST JUMPDEST PUSH2 0x14C3 DUP10 DUP3 DUP11 ADD PUSH2 0x109A JUMP JUMPDEST SWAP5 POP POP PUSH1 0x60 DUP8 ADD CALLDATALOAD PUSH8 0xFFFFFFFFFFFFFFFF DUP2 GT ISZERO PUSH2 0x14E4 JUMPI PUSH2 0x14E3 PUSH2 0xF87 JUMP JUMPDEST JUMPDEST PUSH2 0x14F0 DUP10 DUP3 DUP11 ADD PUSH2 0x109A JUMP JUMPDEST SWAP4 POP POP PUSH1 0x80 DUP8 ADD CALLDATALOAD PUSH8 0xFFFFFFFFFFFFFFFF DUP2 GT ISZERO PUSH2 0x1511 JUMPI PUSH2 0x1510 PUSH2 0xF87 JUMP JUMPDEST JUMPDEST PUSH2 0x151D DUP10 DUP3 DUP11 ADD PUSH2 0x109A JUMP JUMPDEST SWAP3 POP POP PUSH1 0xA0 PUSH2 0x152E DUP10 DUP3 DUP11 ADD PUSH2 0x115C JUMP JUMPDEST SWAP2 POP POP SWAP3 SWAP6 POP SWAP3 SWAP6 POP SWAP3 SWAP6 JUMP JUMPDEST PUSH2 0x1544 DUP2 PUSH2 0x12D3 JUMP JUMPDEST DUP3 MSTORE POP POP JUMP JUMPDEST PUSH0 PUSH1 0x80 DUP3 ADD SWAP1 POP PUSH2 0x155D PUSH0 DUP4 ADD DUP8 PUSH2 0x153B JUMP JUMPDEST DUP2 DUP2 SUB PUSH1 0x20 DUP4 ADD MSTORE PUSH2 0x156F DUP2 DUP7 PUSH2 0x11C3 JUMP JUMPDEST SWAP1 POP PUSH2 0x157E PUSH1 0x40 DUP4 ADD DUP6 PUSH2 0x1215 JUMP JUMPDEST DUP2 DUP2 SUB PUSH1 0x60 DUP4 ADD MSTORE PUSH2 0x1590 DUP2 DUP5 PUSH2 0x11C3 JUMP JUMPDEST SWAP1 POP SWAP6 SWAP5 POP POP POP POP POP JUMP JUMPDEST PUSH0 PUSH1 0x20 DUP3 ADD SWAP1 POP PUSH2 0x15AE PUSH0 DUP4 ADD DUP5 PUSH2 0x11FB JUMP JUMPDEST SWAP3 SWAP2 POP POP JUMP JUMPDEST PUSH2 0x15BD DUP2 PUSH2 0x113D JUMP JUMPDEST DUP3 MSTORE POP POP JUMP JUMPDEST PUSH0 PUSH1 0xE0 DUP4 ADD PUSH0 DUP4 ADD MLOAD DUP5 DUP3 SUB PUSH0 DUP7 ADD MSTORE PUSH2 0x15DD DUP3 DUP3 PUSH2 0x1358 JUMP JUMPDEST SWAP2 POP POP PUSH1 0x20 DUP4 ADD MLOAD DUP5 DUP3 SUB PUSH1 0x20 DUP7 ADD MSTORE PUSH2 0x15F7 DUP3 DUP3 PUSH2 0x1358 JUMP JUMPDEST SWAP2 POP POP PUSH1 0x40 DUP4 ADD MLOAD DUP5 DUP3 SUB PUSH1 0x40 DUP7 ADD MSTORE PUSH2 0x1611 DUP3 DUP3 PUSH2 0x1358 JUMP JUMPDEST SWAP2 POP POP PUSH1 0x60 DUP4 ADD MLOAD DUP5 DUP3 SUB PUSH1 0x60 DUP7 ADD MSTORE PUSH2 0x162B DUP3 DUP3 PUSH2 0x1358 JUMP JUMPDEST SWAP2 POP POP PUSH1 0x80 DUP4 ADD MLOAD DUP5 DUP3 SUB PUSH1 0x80 DUP7 ADD MSTORE PUSH2 0x1645 DUP3 DUP3 PUSH2 0x1358 JUMP JUMPDEST SWAP2 POP POP PUSH1 0xA0 DUP4 ADD MLOAD PUSH2 0x165A PUSH1 0xA0 DUP7 ADD DUP3 PUSH2 0x15B4 JUMP JUMPDEST POP PUSH1 0xC0 DUP4 ADD MLOAD PUSH2 0x166D PUSH1 0xC0 DUP7 ADD DUP3 PUSH2 0x1390 JUMP JUMPDEST POP DUP1 SWAP2 POP POP SWAP3 SWAP2 POP POP JUMP JUMPDEST PUSH0 PUSH1 0x20 DUP3 ADD SWAP1 POP DUP2 DUP2 SUB PUSH0 DUP4 ADD MSTORE PUSH2 0x1690 DUP2 DUP5 PUSH2 0x15C3 JUMP JUMPDEST SWAP1 POP SWAP3 SWAP2 POP POP JUMP JUMPDEST PUSH32 0x5573657220616C72656164792072656769737465726564000000000000000000 PUSH0 DUP3 ADD MSTORE POP JUMP JUMPDEST PUSH0 PUSH2 0x16CC PUSH1 0x17 DUP4 PUSH2 0x11A5 JUMP JUMPDEST SWAP2 POP PUSH2 0x16D7 DUP3 PUSH2 0x1698 JUMP JUMPDEST PUSH1 0x20 DUP3 ADD SWAP1 POP SWAP2 SWAP1 POP JUMP JUMPDEST PUSH0 PUSH1 0x20 DUP3 ADD SWAP1 POP DUP2 DUP2 SUB PUSH0 DUP4 ADD MSTORE PUSH2 0x16F9 DUP2 PUSH2 0x16C0 JUMP JUMPDEST SWAP1 POP SWAP2 SWAP1 POP JUMP JUMPDEST PUSH32 0x4E487B7100000000000000000000000000000000000000000000000000000000 PUSH0 MSTORE PUSH1 0x22 PUSH1 0x4 MSTORE PUSH1 0x24 PUSH0 REVERT JUMPDEST PUSH0 PUSH1 0x2 DUP3 DIV SWAP1 POP PUSH1 0x1 DUP3 AND DUP1 PUSH2 0x1744 JUMPI PUSH1 0x7F DUP3 AND SWAP2 POP JUMPDEST PUSH1 0x20 DUP3 LT DUP2 SUB PUSH2 0x1757 JUMPI PUSH2 0x1756 PUSH2 0x1700 JUMP JUMPDEST JUMPDEST POP SWAP2 SWAP1 POP JUMP JUMPDEST PUSH0 DUP2 SWAP1 POP DUP2 PUSH0 MSTORE PUSH1 0x20 PUSH0 KECCAK256 SWAP1 POP SWAP2 SWAP1 POP JUMP JUMPDEST PUSH0 PUSH1 0x20 PUSH1 0x1F DUP4 ADD DIV SWAP1 POP SWAP2 SWAP1 POP JUMP JUMPDEST PUSH0 DUP3 DUP3 SHL SWAP1 POP SWAP3 SWAP2 POP POP JUMP JUMPDEST PUSH0 PUSH1 0x8 DUP4 MUL PUSH2 0x17B9 PUSH32 0xFFFFFFFFFFFFFFFFFFFFFFFFFFFFFFFFFFFFFFFFFFFFFFFFFFFFFFFFFFFFFFFF DUP3 PUSH2 0x177E JUMP JUMPDEST PUSH2 0x17C3 DUP7 DUP4 PUSH2 0x177E JUMP JUMPDEST SWAP6 POP DUP1 NOT DUP5 AND SWAP4 POP DUP1 DUP7 AND DUP5 OR SWAP3 POP POP POP SWAP4 SWAP3 POP POP POP JUMP JUMPDEST PUSH0 DUP2 SWAP1 POP SWAP2 SWAP1 POP JUMP JUMPDEST PUSH0 PUSH2 0x17FE PUSH2 0x17F9 PUSH2 0x17F4 DUP5 PUSH2 0x113D JUMP JUMPDEST PUSH2 0x17DB JUMP JUMPDEST PUSH2 0x113D JUMP JUMPDEST SWAP1 POP SWAP2 SWAP1 POP JUMP JUMPDEST PUSH0 DUP2 SWAP1 POP SWAP2 SWAP1 POP JUMP JUMPDEST PUSH2 0x1817 DUP4 PUSH2 0x17E4 JUMP JUMPDEST PUSH2 0x182B PUSH2 0x1823 DUP3 PUSH2 0x1805 JUMP JUMPDEST DUP5 DUP5 SLOAD PUSH2 0x178A JUMP JUMPDEST DUP3 SSTORE POP POP POP POP JUMP JUMPDEST PUSH0 SWAP1 JUMP JUMPDEST PUSH2 0x183F PUSH2 0x1833 JUMP JUMPDEST PUSH2 0x184A DUP2 DUP5 DUP5 PUSH2 0x180E JUMP JUMPDEST POP POP POP JUMP JUMPDEST JUMPDEST DUP2 DUP2 LT ISZERO PUSH2 0x186D JUMPI PUSH2 0x1862 PUSH0 DUP3 PUSH2 0x1837 JUMP JUMPDEST PUSH1 0x1 DUP2 ADD SWAP1 POP PUSH2 0x1850 JUMP JUMPDEST POP POP JUMP JUMPDEST PUSH1 0x1F DUP3 GT ISZERO PUSH2 0x18B2 JUMPI PUSH2 0x1883 DUP2 PUSH2 0x175D JUMP JUMPDEST PUSH2 0x188C DUP5 PUSH2 0x176F JUMP JUMPDEST DUP2 ADD PUSH1 0x20 DUP6 LT ISZERO PUSH2 0x189B JUMPI DUP2 SWAP1 POP JUMPDEST PUSH2 0x18AF PUSH2 0x18A7 DUP6 PUSH2 0x176F JUMP JUMPDEST DUP4 ADD DUP3 PUSH2 0x184F JUMP JUMPDEST POP POP JUMPDEST POP POP POP JUMP JUMPDEST PUSH0 DUP3 DUP3 SHR SWAP1 POP SWAP3 SWAP2 POP POP JUMP JUMPDEST PUSH0 PUSH2 0x18D2 PUSH0 NOT DUP5 PUSH1 0x8 MUL PUSH2 0x18B7 JUMP JUMPDEST NOT DUP1 DUP4 AND SWAP2 POP POP SWAP3 SWAP2 POP POP JUMP JUMPDEST PUSH0 PUSH2 0x18EA DUP4 DUP4 PUSH2 0x18C3 JUMP JUMPDEST SWAP2 POP DUP3 PUSH1 0x2 MUL DUP3 OR SWAP1 POP SWAP3 SWAP2 POP POP JUMP JUMPDEST PUSH2 0x1903 DUP3 PUSH2 0x119B JUMP JUMPDEST PUSH8 0xFFFFFFFFFFFFFFFF DUP2 GT ISZERO PUSH2 0x191C JUMPI PUSH2 0x191B PUSH2 0xFA3 JUMP JUMPDEST JUMPDEST PUSH2 0x1926 DUP3 SLOAD PUSH2 0x172D JUMP JUMPDEST PUSH2 0x1931 DUP3 DUP3 DUP6 PUSH2 0x1871 JUMP JUMPDEST PUSH0 PUSH1 0x20 SWAP1 POP PUSH1 0x1F DUP4 GT PUSH1 0x1 DUP2 EQ PUSH2 0x1962 JUMPI PUSH0 DUP5 ISZERO PUSH2 0x1950 JUMPI DUP3 DUP8 ADD MLOAD SWAP1 POP JUMPDEST PUSH2 0x195A DUP6 DUP3 PUSH2 0x18DF JUMP JUMPDEST DUP7 SSTORE POP PUSH2 0x19C1 JUMP JUMPDEST PUSH1 0x1F NOT DUP5 AND PUSH2 0x1970 DUP7 PUSH2 0x175D JUMP JUMPDEST PUSH0 JUMPDEST DUP3 DUP2 LT ISZERO PUSH2 0x1997 JUMPI DUP5 DUP10 ADD MLOAD DUP3 SSTORE PUSH1 0x1 DUP3 ADD SWAP2 POP PUSH1 0x20 DUP6 ADD SWAP5 POP PUSH1 0x20 DUP2 ADD SWAP1 POP PUSH2 0x1972 JUMP JUMPDEST DUP7 DUP4 LT ISZERO PUSH2 0x19B4 JUMPI DUP5 DUP10 ADD MLOAD PUSH2 0x19B0 PUSH1 0x1F DUP10 AND DUP3 PUSH2 0x18C3 JUMP JUMPDEST DUP4 SSTORE POP JUMPDEST PUSH1 0x1 PUSH1 0x2 DUP9 MUL ADD DUP9 SSTORE POP POP POP JUMPDEST POP POP POP POP POP POP JUMP JUMPDEST PUSH0 PUSH1 0x40 DUP3 ADD SWAP1 POP DUP2 DUP2 SUB PUSH0 DUP4 ADD MSTORE PUSH2 0x19E1 DUP2 DUP6 PUSH2 0x11C3 JUMP JUMPDEST SWAP1 POP DUP2 DUP2 SUB PUSH1 0x20 DUP4 ADD MSTORE PUSH2 0x19F5 DUP2 DUP5 PUSH2 0x11C3 JUMP JUMPDEST SWAP1 POP SWAP4 SWAP3 POP POP POP JUMP JUMPDEST PUSH32 0x4F6E6C7920726567697374657265642075736572732063616E2061646420626F PUSH0 DUP3 ADD MSTORE PUSH32 0x6F6B730000000000000000000000000000000000000000000000000000000000 PUSH1 0x20 DUP3 ADD MSTORE POP JUMP JUMPDEST PUSH0 PUSH2 0x1A58 PUSH1 0x23 DUP4 PUSH2 0x11A5 JUMP JUMPDEST SWAP2 POP PUSH2 0x1A63 DUP3 PUSH2 0x19FE JUMP JUMPDEST PUSH1 0x40 DUP3 ADD SWAP1 POP SWAP2 SWAP1 POP JUMP JUMPDEST PUSH0 PUSH1 0x20 DUP3 ADD SWAP1 POP DUP2 DUP2 SUB PUSH0 DUP4 ADD MSTORE PUSH2 0x1A85 DUP2 PUSH2 0x1A4C JUMP JUMPDEST SWAP1 POP SWAP2 SWAP1 POP JUMP JUMPDEST PUSH32 0x4E487B7100000000000000000000000000000000000000000000000000000000 PUSH0 MSTORE PUSH1 0x11 PUSH1 0x4 MSTORE PUSH1 0x24 PUSH0 REVERT JUMPDEST PUSH0 PUSH2 0x1AC3 DUP3 PUSH2 0x113D JUMP JUMPDEST SWAP2 POP PUSH32 0xFFFFFFFFFFFFFFFFFFFFFFFFFFFFFFFFFFFFFFFFFFFFFFFFFFFFFFFFFFFFFFFF DUP3 SUB PUSH2 0x1AF5 JUMPI PUSH2 0x1AF4 PUSH2 0x1A8C JUMP JUMPDEST JUMPDEST PUSH1 0x1 DUP3 ADD SWAP1 POP SWAP2 SWAP1 POP JUMP JUMPDEST PUSH32 0x426F6F6B20646F6573206E6F7420657869737400000000000000000000000000 PUSH0 DUP3 ADD MSTORE POP JUMP JUMPDEST PUSH0 PUSH2 0x1B34 PUSH1 0x13 DUP4 PUSH2 0x11A5 JUMP JUMPDEST SWAP2 POP PUSH2 0x1B3F DUP3 PUSH2 0x1B00 JUMP JUMPDEST PUSH1 0x20 DUP3 ADD SWAP1 POP SWAP2 SWAP1 POP JUMP JUMPDEST PUSH0 PUSH1 0x20 DUP3 ADD SWAP1 POP DUP2 DUP2 SUB PUSH0 DUP4 ADD MSTORE PUSH2 0x1B61 DUP2 PUSH2 0x1B28 JUMP JUMPDEST SWAP1 POP SWAP2 SWAP1 POP JUMP INVALID LOG2 PUSH5 0x6970667358 0x22 SLT KECCAK256 PUSH13 0x373670B58DFB6E374A9E2A4CA1 ORIGIN MSTORE CODESIZE EQ ISZERO GASLIMIT PUSH21 0x93A16FCED9FC5AEAD519FC64736F6C634300081A00 CALLER "
				},
				"gasEstimates": {
					"creation": {
						"codeDepositCost": "1414000",
						"executionCost": "1470",
						"totalCost": "1415470"
					},
					"external": {
						"addBook(string,string,string,string,string,uint256)": "infinite",
						"bookCount()": "2469",
						"books(uint256)": "infinite",
						"getBook(uint256)": "infinite",
						"getUser(address)": "infinite",
						"registerUser(string,string)": "infinite",
						"users(address)": "infinite"
					}
				},
				"methodIdentifiers": {
					"addBook(string,string,string,string,string,uint256)": "84cba8d8",
					"bookCount()": "b905ad78",
					"books(uint256)": "68744046",
					"getBook(uint256)": "e0ff5b8b",
					"getUser(address)": "6f77926b",
					"registerUser(string,string)": "1d2e4afd",
					"users(address)": "a87430ba"
				}
			},
			"storageLayout": {
				"storage": [
					{
						"astId": 30,
						"contract": "BookChainNova/BookChainNova.sol:BookChainNova",
						"label": "users",
						"offset": 0,
						"slot": "0",
						"type": "t_mapping(t_address,t_struct(User)10_storage)"
					},
					{
						"astId": 35,
						"contract": "BookChainNova/BookChainNova.sol:BookChainNova",
						"label": "books",
						"offset": 0,
						"slot": "1",
						"type": "t_mapping(t_uint256,t_struct(Book)25_storage)"
					},
					{
						"astId": 37,
						"contract": "BookChainNova/BookChainNova.sol:BookChainNova",
						"label": "bookCount",
						"offset": 0,
						"slot": "2",
						"type": "t_uint256"
					}
				],
				"types": {
					"t_address": {
						"encoding": "inplace",
						"label": "address",
						"numberOfBytes": "20"
					},
					"t_bool": {
						"encoding": "inplace",
						"label": "bool",
						"numberOfBytes": "1"
					},
					"t_mapping(t_address,t_struct(User)10_storage)": {
						"encoding": "mapping",
						"key": "t_address",
						"label": "mapping(address => struct BookChainNova.User)",
						"numberOfBytes": "32",
						"value": "t_struct(User)10_storage"
					},
					"t_mapping(t_uint256,t_struct(Book)25_storage)": {
						"encoding": "mapping",
						"key": "t_uint256",
						"label": "mapping(uint256 => struct BookChainNova.Book)",
						"numberOfBytes": "32",
						"value": "t_struct(Book)25_storage"
					},
					"t_string_storage": {
						"encoding": "bytes",
						"label": "string",
						"numberOfBytes": "32"
					},
					"t_struct(Book)25_storage": {
						"encoding": "inplace",
						"label": "struct BookChainNova.Book",
						"members": [
							{
								"astId": 12,
								"contract": "BookChainNova/BookChainNova.sol:BookChainNova",
								"label": "title",
								"offset": 0,
								"slot": "0",
								"type": "t_string_storage"
							},
							{
								"astId": 14,
								"contract": "BookChainNova/BookChainNova.sol:BookChainNova",
								"label": "author",
								"offset": 0,
								"slot": "1",
								"type": "t_string_storage"
							},
							{
								"astId": 16,
								"contract": "BookChainNova/BookChainNova.sol:BookChainNova",
								"label": "genre",
								"offset": 0,
								"slot": "2",
								"type": "t_string_storage"
							},
							{
								"astId": 18,
								"contract": "BookChainNova/BookChainNova.sol:BookChainNova",
								"label": "imageUrl",
								"offset": 0,
								"slot": "3",
								"type": "t_string_storage"
							},
							{
								"astId": 20,
								"contract": "BookChainNova/BookChainNova.sol:BookChainNova",
								"label": "purchaseLink",
								"offset": 0,
								"slot": "4",
								"type": "t_string_storage"
							},
							{
								"astId": 22,
								"contract": "BookChainNova/BookChainNova.sol:BookChainNova",
								"label": "price",
								"offset": 0,
								"slot": "5",
								"type": "t_uint256"
							},
							{
								"astId": 24,
								"contract": "BookChainNova/BookChainNova.sol:BookChainNova",
								"label": "exists",
								"offset": 0,
								"slot": "6",
								"type": "t_bool"
							}
						],
						"numberOfBytes": "224"
					},
					"t_struct(User)10_storage": {
						"encoding": "inplace",
						"label": "struct BookChainNova.User",
						"members": [
							{
								"astId": 3,
								"contract": "BookChainNova/BookChainNova.sol:BookChainNova",
								"label": "userAddress",
								"offset": 0,
								"slot": "0",
								"type": "t_address"
							},
							{
								"astId": 5,
								"contract": "BookChainNova/BookChainNova.sol:BookChainNova",
								"label": "name",
								"offset": 0,
								"slot": "1",
								"type": "t_string_storage"
							},
							{
								"astId": 7,
								"contract": "BookChainNova/BookChainNova.sol:BookChainNova",
								"label": "isRegistered",
								"offset": 0,
								"slot": "2",
								"type": "t_bool"
							},
							{
								"astId": 9,
								"contract": "BookChainNova/BookChainNova.sol:BookChainNova",
								"label": "role",
								"offset": 0,
								"slot": "3",
								"type": "t_string_storage"
							}
						],
						"numberOfBytes": "128"
					},
					"t_uint256": {
						"encoding": "inplace",
						"label": "uint256",
						"numberOfBytes": "32"
					}
				}
			},
			"userdoc": {
				"kind": "user",
				"methods": {},
				"version": 1
			}
		}
	}
}